:100000004BC0000066C0000064C0000062C0000079
:1000100060C000005EC000005CC000005AC000006C
:1000200058C0000056C0000054C0000052C000007C
:1000300050C0000074C300004CC000004AC0000063
:1000400048C0000050C4000044C0000042C000008E
:1000500040C000003EC000003CC000003AC00000AC
:1000600038C0000036C0000034C0000032C00000BC
:1000700030C0000045C000002CC000002AC00000B5
:1000800028C0000026C0000024C0000022C00000DC
:1000900020C000001EC0000011241FBECFEFD0E220
:1000A000DEBFCDBF11E0A0E0B1E0E0E9FDE000E09F
:1000B0000BBF02C007900D92A036B107D9F721E01F
:1000C000A0E6B1E001C01D92A93EB207E1F735D22A
:1000D0005DC68EC29FB7F894EBE7F0E08081806840
:1000E0008083EAE7F0E08081806880838081886097
:1000F0008083ECE7F0E08081816480839FBF089576
:100100001F920F920FB60F9211240BB60F922F93DE
:100110003F938F939F93EF93FF93809185019091ED
:1001200086010A97B0F480918501909186019C0127
:100130002F5F3F4F309386012093850120917800F7
:1001400030917900880F991FFC01EF58FE4F3183E1
:100150002083EAE7F0E080818064808380918501DC
:10016000909186010A9719F482E08093A301FF9190
:10017000EF919F918F913F912F910F900BBE0F9018
:100180000FBE0F901F9018959BB180EA89278BB9FD
:10019000089588B1809588B908958F929F92AF9203
:1001A000BF92CF92DF92EF92FF9240E050E0BA010F
:1001B00080E090E0FC01EE0FFF1FEF58FE4F208122
:1001C0003181420F531F611D711D01968A309105C7
:1001D00089F7CB01BA012AE030E040E050E093D447
:1001E00069017A01DA01C9010B97A109B1098937BF
:1001F0009340A105B10590F48091DA019091DB0163
:1002000080D1A0E0B0E0C816D906EA06FB0630F4BB
:10021000B6018091DA019091DB0179D110928601CB
:10022000109285011092A301EAE7F0E080818064DA
:100230008083FF90EF90DF90CF90BF90AF909F9022
:100240008F90089580918B01882349F080916501FA
:100250009091660101969093660180936501639980
:100260001DC0809164018F5F80936401833090F1A1
:1002700061E080919001909191014FD18091900126
:100280009091910100D190939101809390011092EF
:10029000AC0110926601109265010895809165018C
:1002A00090916601813A9F40A8F060E080919001B2
:1002B0009091910132D18091900190919101E3D080
:1002C00090939101809390011092AC01109266017D
:1002D000109265010895CF93C091DF0180916D0167
:1002E00090916E0109D1C81322C080916D01909147
:1002F0006E01DED090936E0180936D0180918B0131
:10030000811103C080E890E08BD1E0916D01F09104
:100310006E0182819381F0D0C82F80916D01909100
:100320006E01EAD06C2FE7D11092B50103C080E0D6
:1003300090E076D1CF91089589B1837031F18091A9
:1003400063018F5F809363018330F8F089B183701C
:1003500031F48FE091E0C9D310926301089589B11F
:100360008370813031F487E291E0BFD31092630152
:10037000089589B18370823031F48AE391E0B5D376
:1003800010926301089510926301089544E06FEFA5
:100390008FEF9FEF54D0BC0180916D0190916E0161
:1003A00076D02091900130919101232B21F49093EC
:1003B0009101809390019093700180936F01E2E925
:1003C000F1E082E0828F14A6089566990AC08091B8
:1003D0006201882321F0EAE7F0E080811082109228
:1003E0006201659B10926101649909C0809160016E
:1003F000882319F082E08093B50110926001669B1A
:100400000CC080916201811105C0EAE7F0E08081B3
:100410008068808381E080936201659B0AC080913F
:100420006101811103C082E08093BE0181E080936D
:100430006101649B03C081E08093600108950F9384
:100440001F93CF93DF938C01D62FC42F84E090E0CD
:100450007CD3FC0111830083D283C383DF91CF91CE
:100460001F910F910895CF93DF93EC0186E090E008
:100470006CD3FC01D183C083158214821382128253
:10048000DF91CF910895FC01828193810895CF93EC
:10049000DF93EC01CB0101C0E9012A813B812115E9
:1004A0003105D1F7E0DF9B838A83DF91CF910895F7
:1004B000EF92FF920F931F93CF93DF93EC010A818A
:1004C0001B81EC80FD8088819981D7D3CE01D5D363
:1004D0000115110519F0F801F582E482E114F10427
:1004E00019F0F70113830283C801DF91CF911F91A7
:1004F0000F91FF90EF900895DC01ED91FC918381C5
:100500000895DC01ED91FC91808191810895DC01D9
:10051000ED91FC91718360830895DC01ED91FC9174
:10052000628308958FEF81B984B987B980EF8AB962
:100530001DB810BA80E090E008959AD1C1E008C0DB
:1005400089B1837029F48DE491E0CFD2C093870103
:10055000809187018823A1F3F89420E030E044ECF7
:1005600050E061E070E080EA9FE046D2C2E9D1E06D
:1005700012E0188720E030E04DEC50E061E070E0E0
:100580008BE190E039D2198A20E030E042E251E07C
:1005900061E070E088EC90E02FD21A8E20E030E02D
:1005A0004BE651E061E070E080E49FE125D21BA2C0
:1005B00020E030E046EC51E061E070E080E49FE153
:1005C0001BD21CA620E030E04CE951E061E070E075
:1005D00088EE93E011D21DAB20E030E045EE51E013
:1005E00061E070E08BE190E007D21EAF7894FFCF1E
:1005F0001F920F920FB60F92112420E030E049ECC9
:1006000050E061E070E080EA9FE0F6D1F6CF84B57B
:10061000836884BD85B5836085BD80E887BD089506
:1006200087BD892B21F081E080938B010895109282
:100630008B010895ECEDF1E0108281E0818312825C
:10064000138288EC84831582168284E1878380E399
:1006500082B918B8F89480E98093B300E0EBF0E039
:10066000808182608083E0E7F0E080818260808327
:10067000E1EBF0E08081876080837894089590E0DA
:10068000861B910952F0853691058CF024E630E006
:10069000A901481B590BCA0108958C395FEF9507D2
:1006A00034F02CE93FEFA901481B590BCA0108950A
:1006B0000F931F93CF93DF93CCEDD1E00A816B8131
:1006C000802FDDDF182F8C83602F8E81D8DF24E010
:1006D00029839C01129FC001139F900D1124892F23
:1006E0008095881F8827881F88871D82DF91CF917A
:1006F0001F910F910895CF93DF93F894CCEDD1E043
:100700008A836E83D5DF9F81892F880F880F880F9A
:10071000891B8093B3007894DF91CF9108951F9245
:100720000F920FB60F9211240BB60F922F938F9347
:100730009F93AF93BF93EF93FF93CF93DF9300D03B
:1007400000D0CDB7DEB786E390E0A0E0B0E09EE257
:10075000ADE2B5E389839A83AB83BC83ECEDF1E032
:1007600095818481981708F051C08091DD01843013
:1007700051F48091DC01E1E0F0E0EC0FFD1FE80FA7
:10078000F11D80810DC08091DC01E3E0F0E0E81B09
:10079000F10981E090E08C0F9D1FE80FF91F808127
:1007A00082B98091DC01833011F08F5F01C080E05D
:1007B000ECEDF1E0808385818F5F8583863070F07A
:1007C0008091E301873050F081508093E301982FAE
:1007D000990F990F990F981B9093B300ECEDF1E0EE
:1007E000848190E02581821B910906976CF58091A8
:1007F000E301833148F58F5F8093E301982F990FD0
:10080000990F990F981B9093B3001EC098131CC0AA
:10081000ECEDF1E0828183838085882319F090914B
:10082000E30101C094E1ECEDF1E09783892F880F9B
:10083000880F880F891B8093B3008085882311F06F
:1008400082B101C080E082B90F900F900F900F909D
:10085000DF91CF91FF91EF91BF91AF919F918F91D8
:100860002F910F900BBE0F900FBE0F901F901895F9
:10087000F894E1E6F0E080E8808310821ED152DE39
:100880009FD0C5DE27DCD6DE8FEF9FEF90938A01E5
:100890008093890190936A018093690190936C0120
:1008A00080936B01109286011092850184E1E1E74B
:1008B000F1E0DF011D928A95E9F71092880110920C
:1008C0006E0110926D011092700110926F011092E2
:1008D0009101109290011092DB011092DA011092B6
:1008E0008701789408951F920F920FB60F921124EA
:1008F0000BB60F92EF92FF920F931F932F933F939C
:100900004F935F936F937F938F939F93AF93BF9317
:10091000CF93DF93EF93FF938091670190916801EC
:1009200001969093680180936701C2E9D1E00F2E90
:10093000FAEDEF2EF1E0FF2EF02D8E01EC81FD811E
:10094000309709F180916701909168012881398180
:1009500028173907C1F48885823019F48E819F8168
:100960000995D80112968D919C911397009741F0AB
:100970002D913C911197820F931F8D939C9303C0EF
:10098000F801158214822996CE15DF05B1F6FF9184
:10099000EF91DF91CF91BF91AF919F918F917F9117
:1009A0006F915F914F913F912F911F910F91FF9008
:1009B000EF900F900BBE0F900FBE0F901F901895E9
:1009C000109285001092840088EE93E09093890045
:1009D000809388001092800089E08093810082E0FB
:1009E00080936F0088E4E2E9F1E0DF011D928A95CF
:1009F000E9F780E090E008950F931F93CF93DF9382
:100A00008B016091960170919701672B09F449C0A1
:100A1000E2E9F1E0A1E0B0E0C585D685CD2B09F48F
:100A200042C011963996A830B105B1F780E090E048
:100A30003FC0FD01EE0FFF1FEE0FFF1FEE0FFF1F68
:100A4000EA0FFB1FEE56FE4F938382830DC0FD011C
:100A5000EE0FFF1FEE0FFF1FEE0FFF1FEA0FFB1F32
:100A6000EE56FE4F13821282FD01EE0FFF1FEE0FB6
:100A7000FF1FEE0FFF1FEA0FFB1FEE56FE4F5583C1
:100A80004483378326832091670130916801820F68
:100A9000931F9183808382E080877FBF8A2F9B2F63
:100AA00007C0A0E0B0E07FB7F894012B11F6CFCFDC
:100AB000DF91CF911F910F9108951092CD0083E3A4
:100AC0008093CC00E9ECF0E0808188618083EAECDF
:100AD000F0E08081866080830895E8ECF0E090810A
:100AE00095FFFDCF8093CE000895CF93DF93EC0167
:100AF0008881882329F02196F0DF89918111FCCF2C
:100B0000DF91CF910895A1E21A2EAA1BBB1BFD0114
:100B10000DC0AA1FBB1FEE1FFF1FA217B307E407DC
:100B2000F50720F0A21BB30BE40BF50B661F771F34
:100B3000881F991F1A9469F7609570958095909514
:100B40009B01AC01BD01CF0108950F931F93CF937B
:100B5000DF938230910510F482E090E0E091E701AC
:100B6000F091E80120E030E0A0E0B0E0309719F12A
:100B7000408151810281138148175907C8F08417B9
:100B8000950769F4109731F012960C93129713960B
:100B90001C9327C00093E7011093E80122C02115A0
:100BA000310519F04217530718F49A01BD01EF01FE
:100BB000DF01F801DBCF21153105F9F0281B390BD6
:100BC0002430310580F48A819B816115710521F003
:100BD000FB019383828304C09093E8018093E70133
:100BE000FE01329644C0FE01E20FF31F8193919300
:100BF00022503109398328833AC02091E501309190
:100C0000E601232B41F4209102013091030130933E
:100C1000E6012093E50120910001309101012115A9
:100C2000310541F42DB73EB74091040150910501C3
:100C3000241B350BE091E501F091E601E217F30783
:100C4000A0F42E1B3F0B2817390778F0AC014E5F3C
:100C50005F4F2417350748F04E0F5F1F5093E60192
:100C60004093E5018193919302C0E0E0F0E0CF0171
:100C7000DF91CF911F910F910895CF93DF9300974C
:100C800009F481C0FC01329713821282A091E7011E
:100C9000B091E801109781F420813181820F931F78
:100CA0002091E5013091E6012817390751F5F093BD
:100CB000E601E093E50167C0ED0120E030E0CE17EA
:100CC000DF0740F44A815B819E0141155105F1F037
:100CD000EA01F5CFD383C28340815181840F951FF0
:100CE000C817D90759F488819981840F951F0296F6
:100CF000918380838A819B8193838283211531052F
:100D000029F4F093E801E093E7013DC0E901FB839A
:100D1000EA8349915991C40FD51FEC17FD0761F47F
:100D200080819181840F951F0296E90199838883C0
:100D3000828193819B838A83E0E0F0E012968D911B
:100D40009C911397009719F0FD01DC01F7CF8D916D
:100D50009C9111979D012E5F3F4F820F931F209111
:100D6000E5013091E6012817390769F4309729F435
:100D70001092E8011092E70102C013821282B09330
:100D8000E601A093E501DF91CF910895F894FFCF9C
:100D90000000E901200048656C6C6F210D0A0042DB
:100DA0006F746820427574746F6E7320507265732F
:100DB000736564210D0A00427574746F6E312050A2
:100DC000726573736564210D0A00427574746F6EE9
:100DD000322050726573736564210D0A005374618B
:100DE0007274696E672053797374656D210D0A0002
:00000001FF
