S00F00004D4543483435382E7372656357
S11300004BC0000067C0000065C0000063C0000072
S113001061C000005FC000005DC000005BC0000064
S113002059C0000057C0000055C0000053C0000074
S113003051C00000C9C500004DC000004BC0000005
S113004049C000000C94A90945C0000043C0000049
S113005041C000003FC000003DC000003BC00000A4
S113006039C0000037C0000035C0000033C00000B4
S113007031C0000046C000002DC000002BC00000AD
S113008029C0000027C0000025C0000023C00000D4
S113009021C000001FC0000011241FBECFEFD0E21A
S11300A0DEBFCDBF14E0A0E0B1E0EAE6FDE100E090
S11300B00BBF02C007900D92A23AB107D9F725E011
S11300C0A2EAB4E001C01D92A033B207E1F7FBD36A
S11300D00C94B30EB7C4EBE7F0E0808180688083B2
S11300E0EAE7F0E080818068808380818860808393
S11300F0ACE7B0E08C9181648C93808180648083D0
S113010008951F920F920FB60F9211240BB60F92FF
S11301102F933F938F939F93EF93FF938091C50405
S11301209091C6040697D8F48091C5049091C604B2
S11301309C012F5F3F4F3093C6042093C504209148
S1130140780030917900880F991FFC01EF54FB4F20
S113015031832083EAE7F0E08081806480838091AA
S1130160C5049091C604069719F482E08093E104D3
S1130170FF91EF919F918F913F912F910F900BBE23
S11301800F900FBE0F901F901895CF93DF93679930
S113019016C080910801882381F08091CC0490914D
S11301A0CD04892B41F48091AA049091AB049093DF
S11301B0CD048093CC041092CB041092080166996C
S11301C00EC080910701882341F062E080911805F8
S11301D09091190557D31092CB0410920701659999
S11301E00BC080910601882329F082E08093F304F8
S11301F01092CB0410920601679B0EC080910801F7
S1130200811107C0E0EDF4E082E0828F84A780933F
S1130210170581E080930801669B32C08091070135
S113022081112BC080911805909119050097B1F4A4
S11302308091AA049091AB049093190580931805BA
S11302406091C9047091CA0427D38091620190918E
S113025063019093A7048093A6040AC0CDD290931F
S11302601905809318056091C9047091CA0414D3C8
S1130270EAE7F0E080818064808381E08093070175
S1130280659B0FC080910601811108C08091AA046A
S11302909091AB04D7D2853009F44AD781E080939A
S11302A006018091AA049091AB04CCD28430C9F4A5
S11302B080912905811115C0C091C904D091CA0447
S11302C08091AA049091AB04EDD2C81BD90B809104
S11302D06401909165018C179D0718F41092A50490
S11302E004C08091A504811134C08091AA04909126
S11302F0AB04A8D2843069F1E091AA04F091AB0474
S1130300828193819FD2843021F1EBE1F5E08481F5
S11303102281338190E082179307D9F481E080939E
S1130320A504E091AA04F091AB04828193818AD25E
S1130330E82FF0E0E75FFE4FC0818091AA0490911E
S1130340AB0480D2E82FF0E0E75FFE4F80816C2F92
S11303501BD4DF91CF910895CF92DF92EF92FF9259
S1130360CF93E1EBF4E0A081B18160817181809150
S1130370A4048F5F8093A404C12CD12C760180E067
S113038090E04FB7F894FC01EE0FFF1FEF54FB4FC2
S113039020813181C20ED31EE11CF11C20813181E8
S11303A02617370738F4FC01EE0FFF1FEF54FB4FFD
S11303B060817181FC01EE0FFF1FEF54FB4F208120
S11303C03181A217B30708F04DC0FC01EE0FFF1FE7
S11303D0EF54FB4FA081B18145C08FB7F894CA1A7E
S11303E0DB0AE108F108C61AD70AE108F108F69415
S11303F0E794D794C794F694E794D794C7948FBF9F
S1130400CFB7F894D701C6010B97A109B1098D3D67
S11304109340A105B105A0F48091180590911905A8
S113042016D2A0E0B0E0C816D906EA06FB0640F4EE
S11304308091180590911905009711F0B60112D218
S1130440CFBF1092C6041092C5041092E104669BBB
S113045006C0EAE7F0E08081806480830AC01092DD
S1130460A40407C04FBF01968630910509F089CFD7
S1130470B4CFCF91FF90EF90DF90CF90089580910B
S1130480C704882329F08091A3048F5F8093A30479
S113049064991AC061E08091CC049091CD04F2D1AA
S11304A061E08091CC049091CD04E2D18091CC04A0
S11304B09091CD04A1D19093CD048093CC0410925B
S11304C0A3041092EA0408958091A3048333C8F02E
S11304D061E08091CC049091CD04D4D160E080910E
S11304E0CC049091CD04C4D18091CC049091CD04DE
S11304F083D19093CD048093CC041092A3041092E2
S1130500EA040895EF92FF920F931F93CF93DF9322
S11305101F92CDB7DEB78091AA049091AB04B7D1F6
S1130520823018F41092F304F7C02091C90430917A
S1130530CA0480916201909163012817390718F465
S11305401092F304E9C00091C9041091CA04809187
S1130550AA049091AB04A6D1081B190B80916401E5
S1130560909165010817190718F41092F304D4C088
S11305708091AA049091AB0465D1843089F581E01F
S11305808093C80463E08091AA049091AB047AD16B
S11305908091C9049091CA049093A7048093A604FF
S11305A08091AA049091AB0427D19093AB048093DB
S11305B0AA04FC018281938145D1E82FF0E0E75F32
S11305C0FE4F10818091AA049091AB043BD1E82F97
S11305D0F0E0E75FFE4F8081612FD6D21092F304E2
S11305E08091AA049091AB0452D1823041F50091DC
S11305F0C9041091CA048091A6049091A704081B11
S1130600190B8091AA049091AB044CD17C01E09128
S1130610AA04F091AB048481958144D120916001B6
S1130620309161012E0D3F1D281B390B0217130752
S113063030F081E08093AE041092F3046DC0EBE1DE
S1130640F5E0858196819781891B898399818091C1
S11306505D01981708F058C080912905811154C094
S113066089818530E0F480912505811118C080913D
S1130670AA049091AB0416D18C01E091AA04F091E4
S1130680AB04848195810ED1081B190B0D321140E6
S113069030F080915C01EBE1F5E08287158663E040
S11306A08091AA049091AB04EDD08091C9049091FB
S11306B0CA049093A7048093A6048091AA049091FD
S11306C0AB049AD09093AB048093AA0481E090E0A9
S11306D0CBD1E091AA04F091AB0482819381B2D092
S11306E0E82FF0E0E75FFE4F10818091AA0490911B
S11306F0AB04A8D0E82FF0E0E75FFE4F8081612FC4
S113070043D21092F30403C080E090E0ADD1809115
S1130710AA049091AB0496D00F90DF91CF911F91D2
S11307200F91FF90EF90089589B18370C1F080918B
S1130730A2048F5F8093A2048B3098F089B18370F8
S113074081F089B18370813019F480931A0508957A
S113075089B18370823029F48093FC040895109247
S1130760A20408958091CB04823018F086E191E0D0
S1130770B9D38091CB048F5F8093CB0408959BB150
S113078080EA89278BB908958091C704882349F0AA
S11307908091C9049091CA0401969093CA048093ED
S11307A0C9040895EF92FF921F93CF93DF937C01C6
S11307B0162FD42FC22F87E090E0D9D6FC01F18206
S11307C0E0821283D383C48316821582DF91CF9192
S11307D01F91FF90EF900895CF93DF93EC0186E093
S11307E090E0C5D6FC01D183C083158214821382A4
S11307F01282DF91CF910895FC0182819381089543
S1130800CF93DF93EC01CB0101C0E9012A813B8145
S113081021153105D1F7E0DF9B838A83DF91CF91E6
S11308200895DC011296ED91FC911397309741F0F5
S113083081E08F5F0280F381E02D3097D1F7089536
S113084081E00895DC01ED91FC9183810895DC0140
S1130850ED91FC91808191810895DC01ED91FC91F1
S113086082810895DC01ED91FC9171836083089588
S1130870DC01ED91FC9162830895DC01ED91FC9122
S113088063830895DC01ED91FC9164830895DC0198
S1130890ED91FC9184810895DC01ED91FC917683C6
S11308A065830895DC01ED91FC918581968108951D
S11308B08FEF81B984B987B980EF8AB91DB810BAAE
S11308C080E090E008957ED289B18370E9F784E2F4
S11308D091E03FD6F89420E030E045EC50E061E050
S11308E070E081E090E0BCD5C0EDD4E012E0188760
S11308F020E030E04CEA51E061E070E081E090E01B
S1130900AFD5198A20E030E04FE352E061E070E0B7
S113091081E090E0A5D51A8E20E030E042E852E074
S113092061E070E081E090E09BD51BA220E030E024
S113093044EC53E061E070E082E090E091D51CA6C5
S113094020E030E044E953E061E070E084E690E0C8
S113095087D51DAB20E030E04FEB53E061E070E061
S113096080ED97E07DD51EAF20E030E042EB53E010
S113097061E070E088E893E173D51092170587E38E
S113098091E0E7D580E890E06FD0789480911A05E3
S1130990882319F089E491E0A5D28091C8048111DB
S11309A02DD48091AE0481117AD4C091AA04D0913F
S11309B0AB04209759F3209709F43DC0CE0142DFE0
S11309C0843009F038C0CE0162DF8230A1F5CE0157
S11309D03EDF8C01CE0141DF882391F0C8010A97E4
S11309E08F3B910520F462E0CE0147DF24C0085C10
S11309F011090D3B1240F8F463E0CE013EDF1BC049
S1130A00C801895893400B9720F460E0CE0135DF8C
S1130A1012C0C801805293408B3A910520F461E0E2
S1130A20CE012BDF08C00A5011090F3B110518F441
S1130A3062E0CE0122DFCE01DFDEEC01892B09F07A
S1130A40BACFA4CF1F920F920FB60F9211248AEA45
S1130A5088B9FECF84B5836884BD85B5836085BDC0
S1130A6080910F0187BD08959C019FB7F8948091F0
S1130A700F0187BD232B31F081E08093C70481EF00
S1130A8085B904C01092C70480EF85B99FBF08954B
S1130A90F894EBE1F5E0108281E081831382128205
S1130AA01482128617821186108614861586138680
S1130AB088EC90E09683858380E382B984E980930F
S1130AC0B300E0EBF0E0808182608083E0E7F0E057
S1130AD0808182608083E1EBF0E0808187608083A5
S1130AE07894089590E0861B910952F0853691051B
S1130AF08CF024E630E0A901481B590BCA01089583
S1130B008C395FEF950734F42CE93FEFA901481BBA
S1130B10590BCA010895CF93DF93CBE1D5E06C81E3
S1130B208A819B81DFDF9E838D836A817B818885B7
S1130B309985D8DF2D813E81332314F428E001C048
S1130B4024E0EBE1F5E0218345815681849F900107
S1130B50859F300D949F300D112481E012161306E9
S1130B600CF080E0EBE1F5E08387858196819923A1
S1130B701CF4919581959109EBE1F5E096838583C9
S1130B801782DF91CF910895EBE1F5E02481428152
S1130B90538130E02417350729F091E09687878741
S1130BA0608B0895282F30E0EBE1F5E03383228356
S1130BB070E0718760879481891304C080915E011D
S1130BC080932505A8CF08951F920F920FB60F9218
S1130BD011240BB60F922F933F934F935F936F9310
S1130BE07F938F939F93AF93BF93EF93FF93CF9391
S1130BF0DF9300D000D0CDB7DEB786E390E0A0E06D
S1130C00B0E09EE2ADE2B5E389839A83AB83BC8313
S1130C1080912505882329F0EBE1F5E08285815058
S1130C208287EBE1F5E087812581368190E08217A8
S1130C309307E1F48281938184838685882321F05C
S1130C40168660898785A0DF80912605882319F0A0
S1130C508091280501C080E0EBE1F5E08587E5851A
S1130C60F0E0E05FFE4F80818093B300EBE1F5E0BC
S1130C7087812581368190E0821793070CF060C04C
S1130C808091250581115CC080911C05843051F44C
S1130C9080911B05E1E0F0E0EC0FFD1FE80FF11D72
S1130CA080810DC080911B05E3E0F0E0E81BF109B1
S1130CB081E090E08C0F9D1FE80FF91F808182B9BD
S1130CC080911B05833021F080911B058F5F01C04B
S1130CD080E0EBE1F5E0808387818F5F8783838504
S1130CE0811115C0858196812781821B9109069700
S1130CF074F4E0912805F0E0E05FFE4F80818439D0
S1130D0030F4EBE1F5E085858150858711C0809151
S1130D102205863068F0E0912805F0E0E05FFE4FA0
S1130D208081813428F0EBE1F5E085858F5F85874C
S1130D30E0912805F0E0E05FFE4F80818093B300EE
S1130D4080912705813029F1639904C080915F0166
S1130D508093270580912705823028F0EBE1F5E0A8
S1130D6084858150848780912705813091F4EBE15B
S1130D70F5E08487108281831382128214821682A2
S1130D801582178211861086138615861686108A98
S1130D9017860F900F900F900F90DF91CF91FF91D6
S1130DA0EF91BF91AF919F918F917F916F915F91DF
S1130DB04F913F912F910F900BBE0F900FBE0F904C
S1130DC01F9018950F931F93CF93F894E1E6F0E0EA
S1130DD080E880831082A5D36BDD28D33BDE7BD9EA
S1130DE057DE1092C6041092C50484E1E1EBF4E0EE
S1130DF0DF011D928A95E9F710921A051092CB042F
S1130E001092CA041092C9041092AE041092C8043D
S1130E101092AB041092AA041092B0041092AF0482
S1130E201092CD041092CC0410921905109218055A
S1130E301092AD041092AC041092CF041092CE0420
S1130E4020E044E06FEF89EE9DEFACDCC5DC9093CD
S1130E50AB048093AA049093AD048093AC04CAEFCE
S1130E6008EE1DEF20E044E06C2FC8019BDCBC01C0
S1130E708091AA049091AB04C3DC9093B004809356
S1130E80AF0401501109C150CB3C61F705E010E0FB
S1130E9020E045E06AEF88EE9DEF84DCBC018091A0
S1130EA0AA049091AB04ACDC0150110989F720E04D
S1130EB044E062ED88E99FEF75DC8EDCE091AA04E2
S1130EC0F091AB04958384839093CF048093CE04F4
S1130ED060E070E0E1DC86E691E03BD3CF911F91C6
S1130EE00F9108953F924F925F926F927F928F92EB
S1130EF09F92AF92BF92CF92DF92EF92FF920F93A5
S1130F001F93CF93DF93CDB7DEB7CA5FD1090FB676
S1130F10F894DEBF0FBECDBFF82EE92EF89480E022
S1130F2090E0A2DD0091AC041091AD04EF92FF9229
S1130F308CE791E09F938F93CE0101967C019F9360
S1130F408F9336D4C70105D38091AA049091AB0442
S1130F50A9DC2091C9043091CA049F938F933F93D5
S1130F602F9387E991E09F938F93FF92EF9220D480
S1130F70C701EFD20FB6F894DEBF0FBECDBFE12C90
S1130F80F12C0F2EF6EBAF2EF1E0BF2EF02D6E01FB
S1130F90F7E9CF0ED11C2DC08FEFE81AF80AC8016B
S1130FA081DC682E592EC80172DC782EC8014ADC17
S1130FB0882EC80152DC982EC80149DC5F926F92DA
S1130FC01F927F921F928F921F929F929F938F9353
S1130FD0FF92EF92BF92AF92DF92CF92E9D3C60114
S1130FE0B8D2C80109DC8C010FB6F894DEBF0FBE7D
S1130FF0CDBFC80127DC853079F60F2EF0EDCF2E5A
S1131000F4E0DF2EF02D00E010E00F2EF4EFAF2E11
S1131010F1E0BF2EF02D7E01F7E9EF0EF11CF60191
S113102080851F928F931F930F93BF92AF92FF926D
S1131030EF92BED3C7018DD20F5F1F4FF9E0CF0EE1
S1131040D11C0FB6F894DEBF0FBECDBF073011051B
S113105031F78091180590911905F9DB482E392E46
S113106060901805509019058091CC049091CD049E
S1131070F4DB782E9090CC048090CD040091AF04E2
S11310801091B004F801B280A380D090AC04C09059
S1131090AD04F090AA04E090AB048F2D9E2DC1DB2B
S11310A03F924F925F926F921F927F928F929F9284
S11310B0AF92BF92CF92DF921F930F93EF92FF9262
S11310C01F928F938BE092E09F938F938E010B5925
S11310D01F4F1F930F936CD3C8013BD20FB6F894E4
S11310E0DEBF0FBECDBF89B18370E9F784E291E022
S11310F030D210921A0580E890E0B6DC7894C6509D
S1131100DF4F0FB6F894DEBF0FBECDBFDF91CF9196
S11311101F910F91FF90EF90DF90CF90BF90AF9011
S11311209F908F907F906F905F904F903F90089525
S1131130FF920F931F93CF93DF93CDB7DEB7CA56B9
S1131140D1090FB6F894DEBF0FBECDBFFE013196B4
S113115086E0DF011D928A95E9F70091AC041091B5
S1131160AD04F8941BB818B880E090E07DDC81E908
S113117092E0EFD1F12C0FC0F394C80163DBE1E0FE
S1131180F0E0EC0FFD1FE80FF11D80818F5F80837D
S1131190C80132DB8C01C8017ADB833069F38D81AD
S11311A01F928F938B811F928F938C811F928F93A9
S11311B089811F928F938A811F928F931F92FF922E
S11311C086EB92E09F938F938E01095F1F4F1F93CD
S11311D00F93EED2C801BDD10FB6F894DEBF0FBE97
S11311E0CDBFC659DF4F0FB6F894DEBF0FBECDBFDB
S11311F0DF91CF911F910F91FF9008950F931F934B
S1131200CF93DF93CDB7DEB7E2970FB6F894DEBF86
S11312100FBECDBFF89480E090E026DC8CE993E02B
S113122098D1E091AA04F091AB048481958115DBF7
S1131230182FE091AA04F091AB048481958107DB17
S11312401F921F939F938F9383EC93E09F938F93AD
S11312508E010F5F1F4F1F930F93AAD2C80179D13C
S113126085EF93E076D10FB6F894DEBF0FBECDBF05
S113127089B18370E9F784E291E06BD180E890E072
S1131280F3DB1092C8047894E2960FB6F894DEBFAC
S11312900FBECDBFDF91CF911F910F9108950F9392
S11312A01F93CF93DF93CDB7DEB7E2970FB6F894D1
S11312B0DEBF0FBECDBFF89480E090E0D5DB84E3C1
S11312C094E047D184E394E044D184E394E041D1B1
S11312D08091CE049091CF04E5DA182F092F8091E4
S11312E0AA049091AB04DEDA2091C9043091CA04B7
S11312F00F931F939F938F933F932F938DE494E0C9
S11313009F938F938E010F5F1F4F1F930F9350D2A4
S1131310C8011FD180E894E01CD10FB6F894DEBF59
S11313200FBECDBF89B18370E9F784E291E011D19A
S113133080E890E099DB1092AE047894E2960FB6C0
S1131340F894DEBF0FBECDBFDF91CF911F910F91F7
S113135008951F920F920FB60F9211240BB60F929D
S1131360EF92FF920F931F932F933F934F935F93AB
S11313706F937F938F939F93AF93BF93CF93DF9399
S1131380EF93FF938091A8049091A9040196909300
S1131390A9048093A804C0EDD4E00F2EF8E1EF2E49
S11313A0F5E0FF2EF02D8E01EC81FD81309709F1DF
S11313B08091A8049091A9042881398128173907BC
S11313C0C1F48885823019F48E819F810995D801F2
S11313D012968D919C911397009741F02D913C9119
S11313E01197820F931F8D939C9303C0F80115826C
S11313F014822996CE15DF05B1F6FF91EF91DF91A6
S1131400CF91BF91AF919F918F917F916F915F9198
S11314104F913F912F911F910F91FF90EF900F905B
S11314200BBE0F900FBE0F901F9018951092850061
S11314301092840088E498E0909389008093880057
S11314401092800089E08093810082E080936F0095
S113145088E4E0EDF4E0DF011D928A95E9F7089550
S11314600F931F93CF93DF938B016091D4047091FA
S1131470D504672B09F449C0E0EDF4E0A1E0B0E045
S1131480C585D685CD2B09F442C011963996A8306E
S1131490B105B1F780E090E03FC0FD01EE0FFF1F02
S11314A0EE0FFF1FEE0FFF1FEA0FFB1FE053FB4F72
S11314B0938382830DC0FD01EE0FFF1FEE0FFF1F0C
S11314C0EE0FFF1FEA0FFB1FE053FB4F1382128244
S11314D0FD01EE0FFF1FEE0FFF1FEE0FFF1FEA0FC0
S11314E0FB1FE053FB4F55834483378326832091AE
S11314F0A8043091A904820F931F9183808382E012
S113150080877FBF8A2F9B2F07C0A0E0B0E07FB702
S1131510F894012B11F6CFCFDF91CF911F910F914A
S113152008951092CD0083E38093CC00E9ECF0E0C1
S1131530808188618083EAECF0E08081866080832A
S11315400895E8ECF0E0908195FFFDCF8093CE0004
S11315500895CF93DF93EC018881882329F02196A5
S1131560F0DF89918111FCCFDF91CF9108950F9322
S11315701F93CF93DF938230910510F482E090E0C3
S1131580E0912E05F0912F0520E030E0A0E0B0E0DE
S1131590309719F14081518102811381481759070D
S11315A0C8F08417950769F4109731F012960C93DC
S11315B0129713961C9327C000932E0510932F05A2
S11315C022C02115310519F04217530718F49A0166
S11315D0BD01EF01DF01F801DBCF21153105F9F081
S11315E0281B390B2430310580F48A819B816115D5
S11315F0710521F0FB019383828304C090932F052E
S113160080932E05FE01329644C0FE01E20FF31FC3
S11316108193919322503109398328833AC02091D0
S11316202C0530912D05232B41F42091020130919A
S1131630030130932D0520932C0520910001309156
S113164001012115310541F42DB73EB74091040144
S113165050910501241B350BE0912C05F0912D05CB
S1131660E217F307A0F42E1B3F0B2817390778F075
S1131670AC014E5F5F4F2417350748F04E0F5F1FD4
S113168050932D0540932C058193919302C0E0E083
S1131690F0E0CF01DF91CF911F910F910895CF9387
S11316A0DF93009709F481C0FC0132971382128200
S11316B0A0912E05B0912F05109781F420813181DE
S11316C0820F931F20912C0530912D05281739077F
S11316D051F5F0932D05E0932C0567C0ED0120E052
S11316E030E0CE17DF0740F44A815B819E0141154B
S11316F05105F1F0EA01F5CFD383C28340815181D2
S1131700840F951FC817D90759F488819981840FCC
S1131710951F0296918380838A819B819383828320
S11317202115310529F4F0932F05E0932E053DC0D2
S1131730E901FB83EA8349915991C40FD51FEC1742
S1131740FD0761F480819181840F951F0296E90160
S113175099838883828193819B838A83E0E0F0E08C
S113176012968D919C911397009719F0FD01DC015D
S1131770F7CF8D919C9111979D012E5F3F4F820F62
S1131780931F20912C0530912D052817390769F4F2
S1131790309729F410922F0510922E0502C013825F
S11317A01282B0932D05A0932C05DF91CF9108955B
S11317B00F931F93CF93DF93CDB7DEB72E970FB65A
S11317C0F894DEBF0FBECDBF0D891E8986E08C83E1
S11317D01A8309838FEF9FE79E838D83AE01475E53
S11317E05F4F6F89788DCE01019610D0EF81F88517
S11317F0E00FF11F10822E960FB6F894DEBF0FBED5
S1131800CDBFDF91CF911F910F9108952F923F92F9
S11318104F925F926F927F928F929F92AF92BF92FC
S1131820CF92DF92EF92FF920F931F93CF93DF93A8
S1131830CDB7DEB72B970FB6F894DEBF0FBECDBF82
S11318406C017B018A01FC0117821682838181FF6E
S1131850BFC1CE0101963C01F6019381F70193FDCE
S1131860859193FF81917F01882309F4ADC185326D
S113187039F493FD859193FF81917F01853221F4A1
S1131880B60190E0D6D1E8CF912C212C312CFFE188
S1131890F315D8F08B3279F038F4803279F0833252
S11318A0A1F4232D20611DC08D3261F0803369F4D1
S11318B0232D216016C0832D8260382EE32DE46031
S11318C03E2E2AC0F32DF8601DC037FC2DC020ED3C
S11318D0280F2A3040F08E32B9F436FC75C1232D1E
S11318E02064322E19C036FE06C08AE0989E200D70
S11318F01124922E11C0EAE02E9E200D1124222ED6
S1131900F32DF0623F2E08C08C3621F4832D8068BD
S1131910382E02C0883641F4F70193FD859193FF78
S113192081917F018111B3CF982F9F7D955493307E
S113193028F40C5F1F4F9FE399830DC0833631F069
S1131940833771F0833509F055C020C0F8018081D8
S113195089830E5F1F4F88248394912C530112C0F6
S11319602801F2E04F0E511CF801A080B18036FE30
S113197003C0692D70E002C06FEF7FEFC5014ED147
S11319804C018201F32DFF773F2E15C0280122E080
S1131990420E511CF801A080B18036FE03C0692DAF
S11319A070E002C06FEF7FEFC5012DD14C01F32D24
S11319B0F0683F2E820133FC19C0822D90E0881616
S11319C09906A0F4B60180E290E033D12A94F5CFD1
S11319D0F50137FC859137FE81915F01B60190E0F6
S11319E028D121102A9421E0821A910881149104AB
S11319F079F7E1C0843611F0893639F5F80137FEFC
S1131A0007C060817181828193810C5F1F4F08C080
S1131A1060817181072E000C880B990B0E5F1F4F9C
S1131A20F32DFF763F2E97FF09C090958095709512
S1131A3061957F4F8F4F9F4FF0683F2E2AE030E033
S1131A40A30133D1882E861844C0853731F4232D61
S1131A502F7EB22E2AE030E025C0932D997FB92E37
S1131A608F36C1F018F4883579F0AEC0803719F09C
S1131A70883721F0A9C0E92FE061BE2EB4FE0DC065
S1131A80FB2DF460BF2E09C034FE0AC0292F266046
S1131A90B22E06C028E030E005C020E130E002C0EC
S1131AA020E132E0F801B7FE07C0608171818281D4
S1131AB093810C5F1F4F06C06081718180E090E0CC
S1131AC00E5F1F4FA301F1D0882E8618FB2DFF77E0
S1131AD03F2E36FE0DC0232D2E7FA22E891458F4DE
S1131AE034FE0BC032FC09C0832D8E7EA82E05C0A7
S1131AF0B82CA32C03C0B82C01C0B92CA4FE0FC071
S1131B00FE01E80DF11D8081803321F49A2D997E28
S1131B10A92E09C0A2FE06C0B394B39404C08A2DB2
S1131B20867809F0B394A3FC10C0A0FE06C0B214DA
S1131B3080F4280C922C9B180DC0B21458F4B601F2
S1131B4080E290E076D0B394F8CFB21418F42B1856
S1131B5002C0982C212CA4FE0FC0B60180E390E0B3
S1131B6068D0A2FE16C0A1FC03C088E790E002C0C2
S1131B7088E590E0B6010CC08A2D867851F0A1FE6C
S1131B8002C08BE201C080E2A7FC8DE2B60190E0C6
S1131B9050D0891430F4B60180E390E04AD09A948E
S1131BA0F8CF8A94F301E80DF11D8081B60190E02D
S1131BB040D08110F6CF222009F44ECEB60180E247
S1131BC090E037D02A94F7CFF6018681978102C03E
S1131BD08FEF9FEF2B960FB6F894DEBF0FBECDBFED
S1131BE0DF91CF911F910F91FF90EF90DF90CF90F5
S1131BF0BF90AF909F908F907F906F905F904F9029
S1131C003F902F900895FC010590615070400110A1
S1131C10D8F7809590958E0F9F1F0895FC01615011
S1131C20704001900110D8F7809590958E0F9F1FFA
S1131C3008950F931F93CF93DF93FB01238121FD1D
S1131C4003C08FEF9FEF2CC022FF16C0468157813F
S1131C50248135814217530744F4A081B1819D0149
S1131C602F5F3F4F318320838C93268137812F5FF1
S1131C703F4F3783268314C08B01EC01FB010084A2
S1131C80F185E02D0995892BE1F6D80116968D9101
S1131C909C911797019617969C938E931697CE0155
S1131CA0DF91CF911F910F910895FA01AA2728304F
S1131CB051F1203181F1E8946F936E7F6E5F7F4F15
S1131CC08F4F9F4FAF4FB1E03ED0B4E03CD0670F91
S1131CD0781F891F9A1FA11D680F791F8A1F911DE4
S1131CE0A11D6A0F711D811D911DA11D20D009F434
S1131CF068943F912AE0269F11243019305D319376
S1131D00DEF6CF010895462F4770405D4193B3E05E
S1131D100FD0C9F7F6CF462F4F70405D4A3318F005
S1131D20495D31FD4052419302D0A9F7EACFB4E0B6
S1131D30A6959795879577956795BA95C9F700976E
S1131D406105710508959B01AC010A2E069457950F
S1131D50479537952795BA95C9F7620F731F841F66
S10D1D60951FA01D0895F894FFCF0D
S1131D6A0000300520000101016400329664646EAB
S1131D7A947D665643405741544348444F475F5401
S1131D8A61736B005374617274696E67205379735B
S1131D9A74656D210D0A0053797374656D2052655B
S1131DAA6164792E2E2E0D0A0050617573652052D6
S1131DBA6571756573746564210D0A000319070555
S1131DCA32004C04200353797374656D20496E699B
S1131DDA7469616C697A65642E2E2E005379737462
S1131DEA656D205061757365204D65737361676510
S1131DFA3A2025730D0A004D6F746F72205469637B
S1131E0A6B3A2025752C20484541445469636B3A42
S1131E1A2025750D0A004974656D3A2025642C2025
S1131E2A5265666C3A2025752C204D61673A202547
S1131E3A752C20436C6173732025752C20537461AF
S1131E4A7475733A2025752C205469636B3A2025DE
S1131E5A750D0A000D0A54696D65722025642053B4
S1131E6A746174653A2025750D0A0025750D0A48B2
S1131E7A4541443A2025782C205441494C3A20259E
S1131E8A782C2046524F4E543A2025782C20454E21
S1131E9A443A2025782C205354414745313A202589
S1131EAA782C204D61673A202575205354414745C3
S1131EBA323A2025782C205265666C3A2025750D15
S1131ECA0A004D6F746F72205469636B3A2025754A
S1131EDA0D0A004974656D3A2025642C2052656602
S1131EEA6C3A2025752C204D61673A2025750D0A18
S1131EFA000D0A0D0A0D0A0D0A0D0A0D0A5379730B
S1131F0A74656D2052616D70696E6720446F776ED7
S1131F1A2E2E2E0D0A002575204974656D732053E3
S1131F2A6F72746564210D0A0D0A426C61636B3A1F
S1131F3A2025752F31320957686974653A20257549
S1131F4A2F313209537465656C3A2025752F313265
S1131F5A09416C756D696E756D3A2025752F31329C
S1131F6A09556E6B6E6F776E204974656D733A20EE
S1131F7A25750D0A000D0A536F727465642069741D
S1131F8A656D732E2E2E0D0A0D0A000D0A0D0A49CF
S1131F9A74656D7320526561647920666F7220736B
S1131FAA6F7274696E672E2E2E200D0A0D0A00496F
S1131FBA74656D2025643A205265666C65637461A4
S1131FCA6E63653A2025752C204D61676E657469C8
S1131FDA633A2025750D0A000D0A0D0A4974656DC8
S1131FEA7320726561647920666F72207363616E0F
S1131FFA6E696E672E2E2E0D0A0D0A000D0A0D0A41
S113200A0D0A554E434C41535349464945442049C8
S113201A54454D2044455445435445440D0A0D0A3C
S113202A0D0A004974656D20737461746973746967
S113203A63733A0D0A5265666C656374616E63650F
S113204A3A2025752C204D61676E657469633A20C0
S113205A25750D0A000D0A0D0A0D0A506C65617387
S113206A652072656D6F7665206974656D20616E91
S113207A64207075736820626F7468206275747462
S113208A6F6E7320746F20726573756D650D0A0D1A
S113209A0A0D0A000D0A0D0A0D0A4954454D204D30
S11320AA495353494E470D0A0D0A0D0A00537973D1
S11320BA74656D205469636B3A2025752C20486534
S11320CA6164205469636B3A2025752050726576E1
S11320DA205469636B3A2025750D0A0D0A0D0A000E
S11320EA507265737320626F746820627574746FBA
S11320FA6E7320746F20726573756D652E2E2E0DA6
S105210A0A00C5
S9030000FC
