S00F00004D4543483435382E7372656357
S11300004BC0000067C0000065C0000063C0000072
S113001061C000005FC000005DC000005BC0000064
S113002059C0000057C0000055C0000053C0000074
S113003051C00000AEC500004DC000004BC0000020
S113004049C000000C94270A45C0000043C00000CA
S113005041C000003FC000003DC000003BC00000A4
S113006039C0000037C0000035C0000033C00000B4
S113007031C0000046C000002DC000002BC00000AD
S113008029C0000027C0000025C0000023C00000D4
S113009021C000001FC0000011241FBECFEFD0E21A
S11300A0DEBFCDBF14E0A0E0B1E0E6E6FEE100E093
S11300B00BBF02C007900D92A037B107D9F724E017
S11300C0A0E7B4E001C01D92AE3FB207E1F7ECD364
S11300D00C94310F9CC4EBE7F0E08081806880834E
S11300E0EAE7F0E080818068808380818860808393
S11300F0ACE7B0E08C9181648C93808180648083D0
S113010008951F920F920FB60F9211240BB60F92FF
S11301102F933F938F939F93EF93FF938091930437
S1130120909194040697D8F4809193049091940448
S11301309C012F5F3F4F30939404209393042091AC
S1130140780030917900880F991FFC01E158FB4F2A
S113015031832083EAE7F0E08081806480838091AA
S1130160930490919404069719F482E08093AF0469
S1130170FF91EF919F918F913F912F910F900BBE23
S11301800F900FBE0F901F901895CF93DF93679930
S113019016C080910801882381F080919C0490917D
S11301A09D04892B41F48091780490917904909373
S11301B09D0480939C0410929904109208016699FE
S11301C00EC080910701882341F062E08091E6042B
S11301D09091E70448D3109299041092070165990D
S11301E00BC080910601882329F082E08093C1042A
S11301F01092990410920601679B0EC08091080129
S1130200811107C0EEE9F4E082E0828F84A7809335
S1130210E50481E080930801669B34C08091070166
S113022081112DC08091E6049091E7040097C1F4F8
S113023080917804909179049093E7048093E60484
S1130240609197047091980418D3809197049091C9
S11302509804845B9B4F90937504809374040AC044
S1130260BCD29093E7048093E60460919704709164
S1130270980403D3EAE7F0E080818064808381E01E
S113028080930701659B0FC080910601811108C00E
S11302908091780490917904C6D2853009F41DD7F1
S11302A081E0809306018091780490917904BBD217
S11302B08430C9F48091F704811115C0C09197046A
S11302C0D09198048091780490917904DCD2C81B71
S11302D0D90B80916401909165018C179D0718F4E6
S11302E01092730404C080917304811134C080910E
S11302F078049091790497D2843069F1E09178047C
S1130300F0917904828193818ED2843021F1E9EED7
S1130310F4E084812281338190E082179307D9F439
S113032081E080937304E0917804F09179048281F0
S1130330938179D2E82FF0E0E75FFE4FC08180918E
S11303407804909179046FD2E82FF0E0E75FFE4FD4
S113035080816C2FFED3DF91CF910895CF92DF92ED
S1130360EF92FF92CF93EFE7F4E0A081B181608137
S11303707181809172048F5F80937204C12CD12C9F
S1130380760180E090E04FB7F894FC01EE0FFF1F78
S1130390E158FB4F20813181C20ED31EE11CF11CB8
S11303A0208131812617370738F4FC01EE0FFF1F37
S11303B0E158FB4F60817181FC01EE0FFF1FE15892
S11303C0FB4F20813181A217B30708F04DC0FC0117
S11303D0EE0FFF1FE158FB4FA081B18145C08FB7DD
S11303E0F894CA1ADB0AE108F108C61AD70AE10828
S11303F0F108F694E794D794C794F694E794D794C5
S1130400C7948FBFCFB7F894D701C6010B97A10942
S1130410B1098D3D9340A105B105A0F48091E60496
S11304209091E70405D2A0E0B0E0C816D906EA0628
S1130430FB0640F48091E6049091E704009711F0E4
S1130440B60101D2CFBF109294041092930410927B
S1130450AF04669B06C0EAE7F0E080818064808395
S11304600AC01092720407C04FBF019686309105EE
S113047009F089CFB4CFCF91FF90EF90DF90CF9068
S1130480089580919504882329F0809171048F5FE9
S11304908093710464991AC061E080919C049091E6
S11304A09D04E1D161E080919C0490919D04D1D19F
S11304B080919C0490919D0490D190939D0480938D
S11304C09C04109271041092B804089580917104F0
S11304D08333C8F061E080919C0490919D04C3D162
S11304E060E080919C0490919D04B3D180919C0420
S11304F090919D0472D190939D0480939C041092DA
S113050071041092B8040895EF92FF920F931F9311
S1130510CF93DF931F92CDB7DEB78091780490918B
S11305207904A6D1823018F41092C104E6C0209157
S11305309704309198048091620190916301281787
S1130540390718F41092C104D8C00091970410918F
S11305509804809178049091790495D1081B190B23
S113056080916401909165010817190718F410929D
S1130570C104C3C0809178049091790454D184302B
S113058091F581E08093960463E0809178049091E2
S1130590790469D1809178049091790474D190930D
S11305A0750480937404809178049091790415D132
S11305B09093790480937804FC018281938133D1F0
S11305C0E82FF0E0E75FFE4F10818091780490916E
S11305D0790429D1E82FF0E0E75FFE4F8081612F95
S11305E0B8D21092C104E0917804F0917904828128
S11305F093813ED1823041F5009197041091980483
S11306008091740490917504081B190BE09178048F
S1130610F09179048281938136D17C0180917804B0
S11306209091790430D120916001309161012E0DB7
S11306303F1D281B390B0217130730F081E080930C
S11306407C041092C10459C0E9EEF4E085819681DE
S11306509781891B8983998180915D01981708F09E
S113066044C08091F704811140C08981853040F4F1
S11306708091F304811104C080915C018287158606
S113068063E08091780490917904EDD0809197048F
S113069090919804909375048093740480917804E5
S11306A0909179049AD0909379048093780481E0AE
S11306B090E0BFD1E0917804F09179048281938134
S11306C0B2D0E82FF0E0E75FFE4F1081809178040C
S11306D090917904A8D0E82FF0E0E75FFE4F808185
S11306E0612F37D21092C10403C080E090E0A1D101
S11306F0809178049091790496D00F90DF91CF91F6
S11307001F910F91FF90EF90089589B18370C1F00C
S1130710809170048F5F809370048B3098F089B15E
S1130720837081F089B18370813019F48093E80477
S1130730089589B18370823029F48093CA0408959E
S113074010927004089580919904823018F086E123
S113075091E09DD3809199048F5F809399040895CB
S11307609BB180EA89278BB90895809195048823E9
S113077049F080919704909198040196909398047D
S1130780809397040895EF92FF921F93CF93DF9382
S11307907C01162FD42FC22F87E090E066D7FC018E
S11307A0F182E0821283D383C48316821582DF919F
S11307B0CF911F91FF90EF900895CF93DF93EC01B9
S11307C086E090E052D7FC01D183C0831582148265
S11307D013821282DF91CF910895FC01828193816B
S11307E00895CF93DF93EC01CB0101C0E9012A8185
S11307F03B8121153105D1F7E0DF9B838A83DF91AB
S1130800CF910895DC011296ED91FC9113973097E6
S113081041F081E08F5F0280F381E02D3097D1F7C2
S1130820089581E00895DC01ED91FC9183810895A0
S1130830DC01ED91FC91808191810895DC01ED91C1
S1130840FC9182810895DC01ED91FC9171836083B8
S11308500895DC01ED91FC9162830895DC01ED9132
S1130860FC9163830895DC01ED91FC916483089508
S1130870DC01ED91FC9184810895DC01ED91FC9102
S1130880768365830895DC01ED91FC9185819681E1
S113089008958FEF81B984B987B980EF8AB91DB8FB
S11308A010BA80E090E0089572D289B18370E9F7BC
S11308B084E291E0CCD6F89420E030E045EC50E0BE
S11308C061E070E081E090E049D6CEE9D4E012E046
S11308D0188720E030E04EEA51E061E070E081E00A
S11308E090E03CD6198A20E030E041E452E061E037
S11308F070E081E090E032D61A8E20E030E044E8E7
S113090052E061E070E081E090E028D61BA220E094
S113091030E045EB53E061E070E082E090E01ED609
S11309201CA620E030E045E853E061E070E084E696
S113093090E014D61DAB20E030E040EB53E061E0E2
S113094070E080ED97E00AD61EAF20E030E043EA85
S113095053E061E070E088E893E100D61092E5048A
S113096087E391E074D680E890E063D07894809136
S1130970E804882319F089E491E015D48091960461
S11309808111FBD480917C04811144D5C0917804F9
S1130990D0917904209759F3209791F1CE0143DF48
S11309A0843071F5CE0164DF823051F5CE0140DF31
S11309B08C01CE0143DF882391F0C8010A9783326A
S11309C0914020F462E0CE0149DF1AC00C5211407C
S11309D0053F1140A8F463E0CE0140DF11C0C80117
S11309E0895893400B9720F460E0CE0137DF08C0AC
S11309F0005213400B3A110518F461E0CE012EDFCA
S1130A00CE01EBDEEC01892B09F0C6CFB0CF1F92EB
S1130A100F920FB60F9211248AEA88B9FECF84B5DB
S1130A20836884BD85B5836085BD80910F0187BDD2
S1130A3008959C019FB7F89480910F0187BD232BE3
S1130A4031F081E08093950481EF85B904C0109260
S1130A50950480EF85B99FBF0895F894E9EEF4E01A
S1130A60108281E08183138212821482128617829B
S1130A701186108614861586138688EC90E096837A
S1130A80858380E382B984E98093B300E0EBF0E0EE
S1130A90808182608083E0E7F0E0808182608083EF
S1130AA0E1EBF0E08081876080837894089590E0A2
S1130AB0861B910952F0853691058CF024E630E0CE
S1130AC0A901481B590BCA0108958C395FEF95079A
S1130AD034F42CE93FEFA901481B590BCA010895CE
S1130AE0CF93DF93C9EED4E06C818A819B81DFDFF1
S1130AF09E838D836A817B8188859985D8DF2D814A
S1130B003E81332314F428E001C024E0E9EEF4E04C
S1130B10218345815681849F9001859F300D949F48
S1130B20300D112481E0121613060CF080E0E9EE7A
S1130B30F4E083878581968199231CF491958195AE
S1130B409109E9EEF4E0968385831782DF91CF91D2
S1130B500895E9EEF4E024814281538130E02417C2
S1130B60350729F091E096878787608B0895282FB1
S1130B7030E0E9EEF4E03383228370E0718760872C
S1130B809481891304C080915E018093F304A8CFFB
S1130B9008951F920F920FB60F9211240BB60F9265
S1130BA02F933F934F935F936F937F938F939F9371
S1130BB0AF93BF93EF93FF93CF93DF9300D000D015
S1130BC0CDB7DEB786E390E0A0E0B0E09EE2ADE210
S1130BD0B5E389839A83AB83BC838091F304882330
S1130BE029F0E9EEF4E0828581508287E9EEF4E0B1
S1130BF087812581368190E082179307E1F4828111
S1130C00938184838685882321F01686608987856D
S1130C10A0DF8091F404882319F08091F60401C0C8
S1130C2080E0E9EEF4E08587E585F0E0E05FFE4FE3
S1130C3080818093B300E9EEF4E0878125813681D9
S1130C4090E0821793070CF060C08091F304811147
S1130C505CC08091EA04843051F48091E904E1E0BD
S1130C60F0E0EC0FFD1FE80FF11D80810DC08091B5
S1130C70E904E3E0F0E0E81BF10981E090E08C0F87
S1130C809D1FE80FF91F808182B98091E9048330A8
S1130C9021F08091E9048F5F01C080E0E9EEF4E087
S1130CA0808387818F5F87838385811115C08581C8
S1130CB096812781821B9109069774F4E091F604CA
S1130CC0F0E0E05FFE4F8081843930F4E9EEF4E037
S1130CD085858150858711C08091F004863068F045
S1130CE0E091F604F0E0E05FFE4F8081813428F06B
S1130CF0E9EEF4E085858F5F8587E091F604F0E006
S1130D00E05FFE4F80818093B3008091F5048130D1
S1130D1029F1639904C080915F018093F504809167
S1130D20F504823028F0E9EEF4E08485815084876C
S1130D308091F504813091F4E9EEF4E08487108227
S1130D40818313821282148216821582178211867D
S1130D501086138615861686108A17860F900F90B4
S1130D600F900F90DF91CF91FF91EF91BF91AF91D1
S1130D709F918F917F916F915F914F913F912F91AF
S1130D800F900BBE0F900FBE0F901F9018950F93EE
S1130D901F93CF93F894E1E6F0E080E8808310821B
S1130DA03ED477DDC1D33BDE96D957DE109294044E
S1130DB01092930484E1EFE7F4E0DF011D928A9539
S1130DC0E9F71092E8041092990410929804109292
S1130DD0970410927C041092960410927904109255
S1130DE0780410927E0410927D0410929D04109257
S1130DF09C041092E7041092E60410927B04109273
S1130E007A0410929B0410929A0420E044E06FEF5D
S1130E1089EE9DEFB8DCD1DC90937904809378045B
S1130E2090937B0480937A0490939B0480939A0418
S1130E30CAEF08EE1DEF20E044E06C2FC801A3DCEC
S1130E40BC018091780490917904CBDC90937E046A
S1130E5080937D0401501109C150CB3C61F705E03A
S1130E6010E020E045E06AEF88EE9DEF8CDCBC01E9
S1130E708091780490917904B4DC0150110989F7C8
S1130E8086E691E0E4D3CF911F910F9108953F92AC
S1130E904F925F926F927F928F929F92AF92BF9286
S1130EA0CF92DF92EF92FF920F931F93CF93DF9332
S1130EB0CDB7DEB7CA5FD1090FB6F894DEBF0FBE57
S1130EC0CDBFF82EE92EF89480E090E0B2DD0091D9
S1130ED07A0410917B04EF92FF928CE791E09F9348
S1130EE08F93CE0101967C019F938F93DFD4C7012A
S1130EF0AED38091780490917904C5DC2091970455
S1130F00309198049F938F933F932F9387E991E0B7
S1130F109F938F93FF92EF92C9D4C70198D30FB6D2
S1130F20F894DEBF0FBECDBFE12CF12C0F2EF6EBF3
S1130F30AF2EF1E0BF2EF02D6E01F7E9CF0ED11CDC
S1130F402DC08FEFE81AF80AC8019DDC682E592ECF
S1130F50C8018EDC782EC80166DC882EC8016EDCE0
S1130F60982EC80165DC5F926F921F927F921F9248
S1130F708F921F929F929F938F93FF92EF92BF92B3
S1130F80AF92DF92CF9292D4C60161D3C80125DC1F
S1130F908C010FB6F894DEBF0FBECDBFC80143DC91
S1130FA0853079F60F2EFEE9CF2EF4E0DF2EF02DFA
S1130FB000E010E00F2EF4EFAF2EF1E0BF2EF02D85
S1130FC07E01F7E9EF0EF11CF60180851F928F93E5
S1130FD01F930F93BF92AF92FF92EF9267D4C70112
S1130FE036D30F5F1F4FF9E0CF0ED11C0FB6F89424
S1130FF0DEBF0FBECDBF0730110531F78091E60487
S11310009091E70415DC482E392E6090E604509048
S1131010E70480919C0490919D0410DC782E9090BC
S11310209C0480909D0400917D0410917E04F8013D
S1131030B280A380D0907A04C0907B04F0907804AE
S1131040E09079048F2D9E2DDDDB3F924F925F92CD
S11310506F921F927F928F929F92AF92BF92CF9284
S1131060DF921F930F93EF92FF921F928F938BE067
S113107092E09F938F938E010B591F4F1F930F93F1
S113108015D4C801E4D20FB6F894DEBF0FBECDBFAD
S113109089B18370E9F784E291E0D9D21092E8042F
S11310A080E890E0C6DC7894C650DF4F0FB6F89421
S11310B0DEBF0FBECDBFDF91CF911F910F91FF9087
S11310C0EF90DF90CF90BF90AF909F908F907F90E4
S11310D06F905F904F903F900895FF920F931F93EE
S11310E0CF93DF93CDB7DEB7CA56D1090FB6F894C4
S11310F0DEBF0FBECDBFFE01319686E0DF011D923B
S11311008A95E9F700917A0410917B04F8941BB84E
S113111018B880E090E08DDC81E992E098D2F12C5F
S11311200FC0F394C8017FDBE1E0F0E0EC0FFD1F9A
S1131130E80FF11D80818F5F8083C8014EDB8C0135
S1131140C80196DB833069F38D811F928F938B8165
S11311501F928F938C811F928F9389811F928F93FB
S11311608A811F928F931F92FF9286EB92E09F9346
S11311708F938E01095F1F4F1F930F9397D3C8015D
S113118066D20FB6F894DEBF0FBECDBFC659DF4F8F
S11311900FB6F894DEBF0FBECDBFDF91CF911F9184
S11311A00F91FF9008959F92AF92BF92CF92DF92DA
S11311B0EF92FF920F931F93CF93DF93CDB7DEB7D8
S11311C0CE5CD1090FB6F894DEBF0FBECDBF7C0153
S11311D0F89480E090E02DDC00917A0410917B0477
S11311E0FE01EB59FF4F86E0DF011D928A95E9F776
S11311F0C7012DD2F12C0FC0F394C80114DBE5E62E
S1131200F0E0EC0FFD1FE80FF11D80818F5F8083FC
S1131210C801E3DA8C01C8012BDB833069F385E173
S113122093E015D2AA968FADAA971F928F93A89692
S11312308FADA8971F928F93A9968FADA9971F92F0
S11312408F93A6968FADA6971F928F93A7968FAD77
S1131250A7971F928F931F92FF9286EB92E09F9322
S11312608F93CE0101967C019F938F931FD3C70167
S1131270EED18BE293E0EBD10FB6F894DEBF0FBE54
S1131280CDBFE12CF12C0F2EFFE4AF2EF3E0BF2EE7
S1131290F02D6E01BBE6CB0ED11C1DC08FEFE81AFA
S11312A0F80AC801CBDA982EC801C2DA1F929F92BD
S11312B09F938F93FF92EF92BF92AF92DF92CF9260
S11312C0F5D2C601C4D1C80188DA8C010FB6F894EE
S11312D0DEBF0FBECDBFC801CBDA8230F9F288E79A
S11312E093E0B5D10F2EFFE4AF2EF3E0BF2EF02D27
S11312F06E01BBE6CB0ED11C1DC08FEFE81AF80AB5
S1131300C8019CDA982EC80193DA1F929F929F938A
S11313108F93FF92EF92BF92AF92DF92CF92C6D299
S1131320C60195D1C80159DA8C010FB6F894DEBF15
S11313300FBECDBFC8019CDA8130F9F289B1837048
S1131340E9F784E291E083D180E890E072DB1092C7
S1131350E8047894C253DF4F0FB6F894DEBF0FBE93
S1131360CDBFDF91CF911F910F91FF90EF90DF9050
S1131370CF90BF90AF909F9008950F931F93CF93FA
S1131380DF93CDB7DEB7E2970FB6F894DEBF0FBE9A
S1131390CDBFF89480E090E04CDB8CE993E057D12A
S11313A0809178049091790449DA182F8091780417
S11313B0909179043DDA1F921F939F938F9383EC4E
S11313C093E09F938F938E010F5F1F4F1F930F9393
S11313D06DD2C8013CD185EF93E039D10FB6F894B2
S11313E0DEBF0FBECDBF89B18370E9F784E291E01F
S11313F02ED180E890E01DDB109296047894E2965A
S11314000FB6F894DEBF0FBECDBFDF91CF911F9111
S11314100F910895F89480E090E00BDB84E394E06E
S113142016D184E394E013D184E394E010D18DE4E5
S113143094E00DD189B18370E9F784E291E007D19A
S113144080E890E0F6DA10927C04789408951F9274
S11314500F920FB60F9211240BB60F92EF92FF92D8
S11314600F931F932F933F934F935F936F937F93A8
S11314708F939F93AF93BF93CF93DF93EF93FF9398
S113148080917604909177040196909377048093E9
S11314907604CEE9D4E00F2EF6EEEF2EF4E0FF2E24
S11314A0F02D8E01EC81FD81309709F18091760455
S11314B0909177042881398128173907C1F48885E8
S11314C0823019F48E819F810995D80112968D91ED
S11314D09C911397009741F02D913C911197820FA5
S11314E0931F8D939C9303C0F8011582148229964F
S11314F0CE15DF05B1F6FF91EF91DF91CF91BF914A
S1131500AF919F918F917F916F915F914F913F9197
S11315102F911F910F91FF90EF900F900BBE0F90A2
S11315200FBE0F901F9018951092850010928400A2
S113153088E498E09093890080938800109280005A
S113154089E08093810082E080936F0088E4EEE973
S1131550F4E0DF011D928A95E9F708950F931F9334
S1131560CF93DF938B016091A2047091A304672B46
S113157009F449C0EEE9F4E0A1E0B0E0C585D68500
S1131580CD2B09F442C011963996A830B105B1F7B4
S113159080E090E03FC0FD01EE0FFF1FEE0FFF1F44
S11315A0EE0FFF1FEA0FFB1FE256FB4F938382836C
S11315B00DC0FD01EE0FFF1FEE0FFF1FEE0FFF1F0B
S11315C0EA0FFB1FE256FB4F13821282FD01EE0F5E
S11315D0FF1FEE0FFF1FEE0FFF1FEA0FFB1FE25668
S11315E0FB4F5583448337832683209176043091BF
S11315F07704820F931F9183808382E080877FBF6B
S11316008A2F9B2F07C0A0E0B0E07FB7F894012B8E
S113161011F6CFCFDF91CF911F910F9108951092C2
S1131620CD0083E38093CC00E9ECF0E08081886115
S11316308083EAECF0E08081866080830895E8ECA2
S1131640F0E0908195FFFDCF8093CE000895CF9375
S1131650DF93EC018881882329F02196F0DF8991BA
S11316608111FCCFDF91CF9108950F931F93CF93F6
S1131670DF938230910510F482E090E0E091FC0465
S1131680F091FD0420E030E0A0E0B0E0309719F1E3
S1131690408151810281138148175907C8F084178A
S11316A0950769F4109731F012960C9312971396DC
S11316B01C9327C00093FC041093FD0422C0211541
S11316C0310519F04217530718F49A01BD01EF01CF
S11316D0DF01F801DBCF21153105F9F0281B390BA7
S11316E02430310580F48A819B816115710521F0D4
S11316F0FB019383828304C09093FD048093FC04D4
S1131700FE01329644C0FE01E20FF31F81939193D0
S113171022503109398328833AC02091FA04309148
S1131720FB04232B41F420910201309103013093F7
S1131730FB042093FA04209100013091010121154A
S1131740310541F42DB73EB7409104015091050194
S1131750241B350BE091FA04F091FB04E217F30724
S1131760A0F42E1B3F0B2817390778F0AC014E5F0D
S11317705F4F2417350748F04E0F5F1F5093FB044B
S11317804093FA048193919302C0E0E0F0E0CF012A
S1131790DF91CF911F910F910895CF93DF9300971D
S11317A009F481C0FC01329713821282A091FC04D7
S11317B0B091FD04109781F420813181820F931F31
S11317C02091FA043091FB042817390751F5F0935E
S11317D0FB04E093FA0467C0ED0120E030E0CE178B
S11317E0DF0740F44A815B819E0141155105F1F008
S11317F0EA01F5CFD383C28340815181840F951FC1
S1131800C817D90759F488819981840F951F0296C6
S1131810918380838A819B819383828321153105FF
S113182029F4F093FD04E093FC043DC0E901FB833B
S1131830EA8349915991C40FD51FEC17FD0761F450
S113184080819181840F951F0296E9019983888391
S1131850828193819B838A83E0E0F0E012968D91EC
S11318609C911397009719F0FD01DC01F7CF8D913E
S11318709C9111979D012E5F3F4F820F931F2091E2
S1131880FA043091FB042817390769F4309729F4D6
S11318901092FD041092FC0402C013821282B093D1
S11318A0FB04A093FA04DF91CF9108950F931F9343
S11318B0CF93DF93CDB7DEB72E970FB6F894DEBF84
S11318C00FBECDBF0D891E8986E08C831A830983E0
S11318D08FEF9FE79E838D83AE01475E5F4F6F89D5
S11318E0788DCE01019610D0EF81F885E00FF11FBD
S11318F010822E960FB6F894DEBF0FBECDBFDF91D7
S1131900CF911F910F9108952F923F924F925F9222
S11319106F927F928F929F92AF92BF92CF92DF92FB
S1131920EF92FF920F931F93CF93DF93CDB7DEB760
S11319302B970FB6F894DEBF0FBECDBF6C017B01B1
S11319408A01FC0117821682838181FFBFC1CE0107
S113195001963C01F6019381F70193FD859193FF74
S113196081917F01882309F4ADC1853239F493FD57
S1131970859193FF81917F01853221F4B60190E036
S1131980D6D1E8CF912C212C312CFFE1F315D8F0DE
S11319908B3279F038F4803279F08332A1F4232D3C
S11319A020611DC08D3261F0803369F4232D2160E4
S11319B016C0832D8260382EE32DE4603E2E2AC0AB
S11319C0F32DF8601DC037FC2DC020ED280F2A3000
S11319D040F08E32B9F436FC75C1232D2064322ECA
S11319E019C036FE06C08AE0989E200D1124922E5E
S11319F011C0EAE02E9E200D1124222EF32DF06258
S1131A003F2E08C08C3621F4832D8068382E02C006
S1131A10883641F4F70193FD859193FF81917F010D
S1131A208111B3CF982F9F7D9554933028F40C5F88
S1131A301F4F9FE399830DC0833631F0833771F0D4
S1131A40833509F055C020C0F801808189830E5F79
S1131A501F4F88248394912C530112C02801F2E073
S1131A604F0E511CF801A080B18036FE03C0692DD1
S1131A7070E002C06FEF7FEFC5014ED14C018201CF
S1131A80F32DFF773F2E15C0280122E0420E511C92
S1131A90F801A080B18036FE03C0692D70E002C059
S1131AA06FEF7FEFC5012DD14C01F32DF0683F2E70
S1131AB0820133FC19C0822D90E088169906A0F4A7
S1131AC0B60180E290E033D12A94F5CFF50137FCDA
S1131AD0859137FE81915F01B60190E028D12110F4
S1131AE02A9421E0821A91088114910479F7E1C0C3
S1131AF0843611F0893639F5F80137FE07C0608164
S1131B007181828193810C5F1F4F08C06081718154
S1131B10072E000C880B990B0E5F1F4FF32DFF76D9
S1131B203F2E97FF09C090958095709561957F4FE2
S1131B308F4F9F4FF0683F2E2AE030E0A30133D14E
S1131B40882E861844C0853731F4232D2F7EB22E7B
S1131B502AE030E025C0932D997FB92E8F36C1F04D
S1131B6018F4883579F0AEC0803719F0883721F041
S1131B70A9C0E92FE061BE2EB4FE0DC0FB2DF460B8
S1131B80BF2E09C034FE0AC0292F2660B22E06C01B
S1131B9028E030E005C020E130E002C020E132E07E
S1131BA0F801B7FE07C060817181828193810C5F67
S1131BB01F4F06C06081718180E090E00E5F1F4F6F
S1131BC0A301F1D0882E8618FB2DFF773F2E36FE19
S1131BD00DC0232D2E7FA22E891458F434FE0BC081
S1131BE032FC09C0832D8E7EA82E05C0B82CA32CF0
S1131BF003C0B82C01C0B92CA4FE0FC0FE01E80D2F
S1131C00F11D8081803321F49A2D997EA92E09C07B
S1131C10A2FE06C0B394B39404C08A2D867809F05A
S1131C20B394A3FC10C0A0FE06C0B21480F4280C28
S1131C30922C9B180DC0B21458F4B60180E290E0C7
S1131C4076D0B394F8CFB21418F42B1802C0982CA1
S1131C50212CA4FE0FC0B60180E390E068D0A2FE60
S1131C6016C0A1FC03C088E790E002C088E590E0BC
S1131C70B6010CC08A2D867851F0A1FE02C08BE219
S1131C8001C080E2A7FC8DE2B60190E050D0891437
S1131C9030F4B60180E390E04AD09A94F8CF8A9465
S1131CA0F301E80DF11D8081B60190E040D0811070
S1131CB0F6CF222009F44ECEB60180E290E037D070
S1131CC02A94F7CFF6018681978102C08FEF9FEFA8
S1131CD02B960FB6F894DEBF0FBECDBFDF91CF9128
S1131CE01F910F91FF90EF90DF90CF90BF90AF9036
S1131CF09F908F907F906F905F904F903F902F9028
S1131D000895FC010590615070400110D8F780954A
S1131D1090958E0F9F1F0895FC01615070400190B3
S1131D200110D8F7809590958E0F9F1F08950F93FB
S1131D301F93CF93DF93FB01238121FD03C08FEF1A
S1131D409FEF2CC022FF16C0468157812481358124
S1131D504217530744F4A081B1819D012F5F3F4F87
S1131D60318320838C93268137812F5F3F4F3783C4
S1131D70268314C08B01EC01FB010084F185E02D66
S1131D800995892BE1F6D80116968D919C911797A8
S1131D90019617969C938E931697CE01DF91CF915F
S1131DA01F910F910895FA01AA27283051F120318B
S1131DB081F1E8946F936E7F6E5F7F4F8F4F9F4FDB
S1131DC0AF4FB1E03ED0B4E03CD0670F781F891F1D
S1131DD09A1FA11D680F791F8A1F911DA11D6A0FEB
S1131DE0711D811D911DA11D20D009F468943F919E
S1131DF02AE0269F11243019305D3193DEF6CF019D
S1131E000895462F4770405D4193B3E00FD0C9F762
S1131E10F6CF462F4F70405D4A3318F0495D31FDCF
S1131E204052419302D0A9F7EACFB4E0A695979522
S1131E30879577956795BA95C9F7009761057105F8
S1131E4008959B01AC010A2E069457954795379542
S1131E502795BA95C9F7620F731F841F951FA01D9C
S1091E600895F894FFCF81
S1131E660000FE04200001010164003296646478D7
S1131E76947D665643405741544348444F475F5404
S1131E8661736B005374617274696E67205379735E
S1131E9674656D210D0A0053797374656D2052655E
S1131EA66164792E2E2E0D0A0050617573652052D9
S1131EB66571756573746564210D0A000319070558
S1131EC64B001405200353797374656D20496E69BC
S1131ED67469616C697A65642E2E2E005379737465
S1131EE6656D205061757365204D65737361676513
S1131EF63A2025730D0A004D6F746F72205469637E
S1131F066B3A2025752C20484541445469636B3A45
S1131F162025750D0A004974656D3A2025642C2028
S1131F265265666C3A2025752C204D61673A20254A
S1131F36752C20436C6173732025752C20537461B2
S1131F467475733A2025752C205469636B3A2025E1
S1131F56750D0A000D0A54696D65722025642053B7
S1131F66746174653A2025750D0A0025750D0A48B5
S1131F764541443A2025782C205441494C3A2025A1
S1131F86782C2046524F4E543A2025782C20454E24
S1131F96443A2025782C205354414745313A20258C
S1131FA6782C204D61673A202575205354414745C6
S1131FB6323A2025782C205265666C3A2025750D18
S1131FC60A004D6F746F72205469636B3A2025754D
S1131FD60D0A004974656D3A2025642C2052656605
S1131FE66C3A2025752C204D61673A2025750D0A1B
S1131FF6000D0A0D0A0D0A0D0A0D0A0D0A5379730E
S113200674656D2052616D70696E6720446F776EDA
S11320162E2E2E0D0A002575204974656D732053E6
S11320266F72746564210D0A0D0A426C61636B3A22
S11320362025752F31320957686974653A2025754C
S11320462F313209537465656C3A2025752F313268
S113205609416C756D696E756D3A2025752F31329F
S113206609556E6B6E6F776E204974656D733A20F1
S113207625750D0A000D0A536F7274656420697420
S1132086656D732E2E2E0D0A0D0A000D0A0D0A49D2
S113209674656D7320526561647920666F7220736E
S11320A66F7274696E672E2E2E200D0A0D0A004972
S11320B674656D2025643A205265666C65637461A7
S11320C66E63653A2025752C204D61676E657469CB
S11320D6633A2025750D0A000D0A0D0A4974656DCB
S11320E67320726561647920666F72207363616E12
S11320F66E696E672E2E2E0D0A0D0A000D0A0D0A44
S11321060D0A554E434C41535349464945442049CB
S113211654454D2044455445435445440D0A0D0A3F
S11321260D0A004974656D2073746174697374696A
S113213663733A0D0A5265666C656374616E636512
S11321463A2025752C204D61676E657469633A20C3
S113215625750D0A000D0A0D0A0D0A506C6561738A
S1132166652072656D6F7665206974656D20616E94
S113217664207075736820626F7468206275747465
S11321866F6E7320746F20726573756D650D0A0D1D
S11321960A0D0A000D0A0D0A0D0A4954454D204D33
S11321A6495353494E470D0A0D0A0D0A00507265EC
S11321B6737320626F746820627574746F6E732013
S11321C6746F20726573756D652E2E2E0D0A0000D0
S9030000FC
