:100000004BC0000067C0000065C0000063C0000076
:1000100061C000005FC000005DC000005BC0000068
:1000200059C0000057C0000055C0000053C0000078
:1000300051C0000062C400004DC000004BC0000071
:1000400049C0000060C7000045C0000043C0000078
:1000500041C000003FC000003DC000003BC00000A8
:1000600039C0000037C0000035C0000033C00000B8
:1000700031C0000046C000002DC000002BC00000B1
:1000800029C0000027C0000025C0000023C00000D8
:1000900021C000001FC0000011241FBECFEFD0E21E
:1000A000DEBFCDBF13E0A0E0B1E0E0E0FBE100E0A7
:1000B0000BBF02C007900D92A030B107D9F723E023
:1000C000A0E0B3E001C01D92A238B207E1F796D2DA
:1000D0000C947E0D61C3EBE7F0E080818068808343
:1000E000EAE7F0E080818068808380818860808397
:1000F000ACE7B0E08C9181648C93808180648083D4
:1001000008951F920F920FB60F9211240BB60F9203
:100110002F933F938F939F93EF93FF9380911F03B0
:10012000909120030697D8F480911F0390912003AB
:100130009C012F5F3F4F3093200320931F0320919A
:10014000780030917900880F991FFC01E55FFC4F22
:1001500031832083EAE7F0E08081806480838091AE
:100160001F0390912003069719F482E080933803CF
:10017000FF91EF919F918F913F912F910F900BBE27
:100180000F900FBE0F901F901895679916C0809121
:100190000E01882381F08091250390912603892BFD
:1001A00041F4809105039091060390932603809378
:1001B00025031092230310920E0166990EC08091C0
:1001C0000D01882341F062E080916F0390917003EC
:1001D00000D21092230310920D0165990BC08091FB
:1001E0000C01882329F082E080934A0310922303B4
:1001F00010920C01679B0CC080910E01811105C00B
:1002000082E08093410380936E0381E080930E012E
:10021000669B20C080910D01811119C080916F03F0
:1002200090917003009749F4809105039091060323
:100230009093700380936F0305C085D190937003F2
:1002400080936F03EAE7F0E080818064808381E03F
:1002500080930D01659B1AC080910C01811113C020
:1002600063E08091050390910603B3D1809105036B
:100270009091060368D1909306038093050389D17A
:10028000853009F4C1D581E080930C010895CF92A7
:10029000DF92EF92FF92CF93EBE0F3E0A081B18188
:1002A00060817181809102038F5F80930203C12C72
:1002B000D12C760180E090E04FB7F894FC01EE0F6E
:1002C000FF1FE55FFC4F20813181C20ED31EE11C70
:1002D000F11C208131812617370738F4FC01EE0F1D
:1002E000FF1FE55FFC4F60817181FC01EE0FFF1F76
:1002F000E55FFC4F20813181A217B30708F04DC0A4
:10030000FC01EE0FFF1FE55FFC4FA081B18145C0EE
:100310008FB7F894CA1ADB0AE108F108C61AD70A9F
:10032000E108F108F694E794D794C794F694E7941B
:10033000D794C7948FBFCFB7F894D701C6010B9756
:10034000A109B1098D3D9340A105B105A0F48091AB
:100350006F039091700322D1A0E0B0E0C816D906D7
:10036000EA06FB0640F480916F03909170030097BA
:1003700011F0B6011ED1CFBF1092200310921F03BF
:1003800010923803669B06C0EAE7F0E08081806443
:1003900080830AC01092020307C04FBF01968630C7
:1003A000910509F089CFB4CFCF91FF90EF90DF9006
:1003B000CF900895809101038F5F8093010364992A
:1003C0001AC061E0809125039091260302D161E07B
:1003D0008091250390912603F2D08091250390917E
:1003E0002603B1D090932603809325031092010336
:1003F000109241030895809101038D33C8F061E0AC
:100400008091250390912603E4D060E0809125033C
:1004100090912603D4D0809125039091260393D008
:1004200090932603809325031092010310924103B9
:100430000895CF93C09176038091050390910603B0
:10044000A8D0E82FF0E0EA5FFE4F8081C81719F0CE
:1004500081E080932403809124038130B9F0C0911E
:100460007603809105039091060393D0E82FF0E086
:10047000EA5FFE4F8081C81306C080E890E09ED1FD
:1004800010924A0303C080E090E098D1CF91089584
:1004900089B18370B9F0809100038F5F809300036E
:1004A000833090F089B1837079F089B183708130A5
:1004B00019F480937103089589B18370823021F417
:1004C000A3C40895109200030895809123038230FD
:1004D00008F09AD4809123038F5F809323030895BB
:1004E0009BB180EA89278BB90895809122038F5FA1
:1004F000809322030895EF92FF921F93CF93DF938F
:100500007C01162FD42FC22F85E090E0FBD6FC0192
:10051000F182E0821283D383C483DF91CF911F9154
:10052000FF90EF900895CF93DF93EC0186E090E089
:10053000E9D6FC01D183C083158214821382128212
:10054000DF91CF910895FC01828193810895CF932B
:10055000DF93EC01CB0101C0E9012A813B81211528
:100560003105D1F7E0DF9B838A83DF91CF91089536
:10057000DC011296ED91FC911397309741F081E0E8
:100580008F5F0280F381E02D3097D1F7089581E0ED
:100590000895DC01ED91FC9183810895DC01ED91DA
:1005A000FC91808191810895DC01ED91FC91828123
:1005B0000895DC01ED91FC91718360830895DC0165
:1005C000ED91FC9162830895DC01ED91FC916383D0
:1005D0000895DC01ED91FC9164830895DC01ED91B7
:1005E000FC91848108958FEF81B984B987B980EF38
:1005F0008AB91DB810BA80E090E0089588D289B118
:100600008370E9F78BE191E07ED5F89420E030E04B
:1006100045EC50E061E070E081E090E0FBD4C7E29F
:10062000D3E012E0188720E030E047E451E061E0D9
:1006300070E081E090E0EED4198A20E030E04AEDED
:1006400051E061E070E081E090E0E4D41A8E20E0B7
:1006500030E049E152E061E070E081E090E0DAD41E
:100660001BA220E030E045E752E061E070E08FEA55
:1006700093E0D0D41CA620E030E048E452E061E0F2
:1006800070E084E690E0C6D41DAB20E030E040E7A7
:1006900052E061E070E080ED97E0BCD41EAF20E056
:1006A00030E045E652E061E070E088E893E1B2D4E2
:1006B00010926E038EE291E026D580E890E07ED025
:1006C0007894E12CF12CCC24C394D12C809171032B
:1006D000882319F080E491E08ED2C0910503D09177
:1006E0000603209799F3209709F44FC0CE0151DFFC
:1006F000843009F04AC0CE0171DF823009F045C074
:10070000CE014CDF8C01CE014FDF882391F0C80170
:1007100044978135910520F462E0CE0155DF1AC07F
:100720000C5211400F351140A8F463E0CE014CDFAC
:1007300011C0C801895893400B9720F460E0CE01A6
:1007400043DF08C0005213400739110518F461E077
:10075000CE013ADFE114F104C1F4809105039091D8
:10076000060317DFE82FF0E0E15FFE4F1081809174
:100770000503909106030DDFE82FF0E0E15FFE4FE7
:100780008081612FA5D0EC2CFD2CCE01DCDEEC01AC
:10079000892B09F0A8CF9ACF1F920F920FB60F9214
:1007A00011248AEA88B9FECF84B5836884BD85B5F3
:1007B000836085BD8091450187BD08959C019FB7E9
:1007C000F8948091450187BD232B31F081E080931F
:1007D000210381EF85B904C01092210380EF85B910
:1007E0009FBF0895F894E2E7F3E0108281E08183EF
:1007F000138212821482178210861286138688EC66
:1008000090E09683858380E382B984E98093B30086
:10081000E0EBF0E0808182608083E0E7F0E08081BF
:1008200082608083E1EBF0E0808187608083789450
:10083000089590E0861B910952F0853691058CF061
:1008400024E630E0A901481B590BCA0108958C39F0
:100850005FEF950734F42CE93FEFA901481B590BD2
:10086000CA010895CF93DF93C2E7D3E06C818A81F8
:100870009B81DFDF9E838D836A817B818885D9DFC1
:100880002D813E81332314F428E001C024E0E2E707
:10089000F3E0218345815681849F9001859F300D2F
:1008A000949F300D1124832F8095881F8827881FDF
:1008B00081878581968199231CF491958195910971
:1008C000E2E7F3E0968385831782DF91CF91089565
:1008D000CF93DF93F89490E0C2E7D3E09B838A83C1
:1008E0006887C0DFEB85F0E0EB5EFE4F8081809390
:1008F000B3007894DF91CF9108951F920F920FB6B5
:100900000F9211240BB60F921F932F933F934F9387
:100910005F936F937F938F939F93AF93BF93EF9367
:10092000FF93CF93DF9300D000D0CDB7DEB786E33F
:1009300090E0A0E0B0E09EE2ADE2B5E389839A8367
:10094000AB83BC83E2E7F3E087812581368190E0C9
:10095000821793070CF066C080917303843051F4C2
:1009600080917203E1E0F0E0EC0FFD1FE80FF11D54
:1009700080810DC080917203E3E0F0E0E81BF10993
:1009800081E090E08C0F9D1FE80FF91F808182B9F4
:1009900080917203833021F0809172038F5F01C0D8
:1009A00080E0E2E7F3E0808387818F5F8783858142
:1009B00096812781821B91090F971CF481E090E0BA
:1009C000FDDEE2E7F3E0858196812781821B9109B4
:1009D000069774F4E0917D03F0E0EB5EFE4F8081BA
:1009E000843930F4E2E7F3E083858150838711C0D6
:1009F00080917903863068F0E0917D03F0E0EB5E52
:100A0000FE4F8081813428F0E2E7F3E083858F5F39
:100A10008387E0917D03F0E0EB5EFE4F8081809361
:100A2000B30048C0E2E7F3E087812581368190E09A
:100A30008217930709F03EC0828193818483818568
:100A4000882319F080917D0301C080E0A2E7B3E024
:100A50001B968C931B971B96EC911B97F0E0EB5E1B
:100A6000FE4F80818093B30019968C91811102C052
:100A700082B101C082B182B9109224038091050332
:100A80009091060386DDE1E0F0E0EC0FFD1FE80F3A
:100A9000F11D1081E0910503F09106038481958199
:100AA00078DDE1E0F0E0EC0FFD1FE80FF11D808143
:100AB000612F0EDF80917C0381110FC063990DC0FF
:100AC000E2E7F3E081E08287108281831382128261
:100AD000148216821582178210860F900F900F9045
:100AE0000F90DF91CF91FF91EF91BF91AF919F91C7
:100AF0008F917F916F915F914F913F912F911F91B6
:100B00000F900BBE0F900FBE0F901F9018950F9374
:100B10001F93CF93F894E1E6F0E080E880831082A1
:100B2000DAD261DD5DD240DED6DA5CDE10922003DF
:100B300010921F0384E1EBE0F3E0DF011D928A9540
:100B4000E9F710927103109223031092220310927E
:100B50002403109206031092050310920A031092C8
:100B6000090310922603109225031092700310922D
:100B70006F03109208031092070320E044E06FEF28
:100B800089EE9DEFB8DCCFDC9093060380930503DC
:100B90009093080380930703CAEF08EE1DEF20E04F
:100BA00044E06C2FC801A7DCBC0180910503909143
:100BB0000603CDDC90930A038093090301501109C9
:100BC000C150CB3C61F705E010E020E045E06AEF62
:100BD00088EE9DEF90DCBC018091050390910603A7
:100BE000B6DC0150110989F786E491E08CD2CF91EF
:100BF0001F910F9108953F924F925F926F927F9253
:100C00008F929F92AF92BF92CF92DF92EF92FF921C
:100C10000F931F93CF93DF93CDB7DEB7CA5FD10990
:100C20000FB6F894DEBF0FBECDBFF82EE92EF894B4
:100C300080E090E0C3DD0091070310910803EF927C
:100C4000FF928CE591E09F938F93CE0101967C01FA
:100C50009F938F9378D4C70156D20F900F900F9027
:100C60000F900F900F90E12CF12C0F2EF7E7AF2E85
:100C7000F1E0BF2EF02D6E0197E9C90ED11C27C0FF
:100C8000EFEFEE1AFE0AC801A9DC782EC80181DC5C
:100C9000882EC80189DC982EC80180DC1F927F92C3
:100CA0001F928F921F929F929F938F93FF92EF922A
:100CB000BF92AF92DF92CF9246D4C60124D2C80130
:100CC00042DC8C010FB6F894DEBF0FBECDBFC80169
:100CD00060DC8530A9F60F2EF7E2CF2EF3E0DF2E91
:100CE000F02D00E010E00F2EFBEAAF2EF1E0BF2E5A
:100CF000F02D7E0197E9E90EF11CF60180851F9227
:100D00008F931F930F93BF92AF92FF92EF921BD4DA
:100D1000C701F9D10F5F1F4FF9E0CF0ED11C0FB6FD
:100D2000F894DEBF0FBECDBF0730110531F78091BB
:100D30006F039091700332DC482E392E60906F0360
:100D40005090700380912503909126032DDC782E1E
:100D500090902503809026030091090310910A03C7
:100D6000F801B280A380D0900703C0900803F090F0
:100D70000503E09006038F2D9E2DFADB3F924F92E4
:100D80005F926F921F927F928F929F92AF92BF92CB
:100D9000CF92DF921F930F93EF92FF921F928F9348
:100DA00082EC91E09F938F938E010B591F4F1F93FD
:100DB0000F93C9D3C801A7D10FB6F894DEBF0FBEF9
:100DC000CDBF89B18370E9F78BE191E09CD180E8D8
:100DD00090E0F4DC7894C650DF4F0FB6F894DEBF95
:100DE0000FBECDBFDF91CF911F910F91FF90EF907C
:100DF000DF90CF90BF90AF909F908F907F906F903B
:100E00005F904F903F900895FF920F931F93CF9361
:100E1000DF93CDB7DEB7E7970FB6F894DEBF0FBE0E
:100E2000CDBFFE01319685E0DF011D928A95E9F77D
:100E30000091070310910803F8941BB818B880E0DC
:100E400090E0BCDC87E392E05ED1F12C0FC0F3941C
:100E5000C8019FDBE1E0F0E0EC0FFD1FE80FF11DA2
:100E600080818F5F8083C8016EDB8C01C801B6DB97
:100E7000833069F38D811F928F938B811F928F93A3
:100E80008C811F928F9389811F928F938A811F92E9
:100E90008F931F92FF928CE592E09F938F938E0128
:100EA0000A5F1F4F1F930F934ED3C8012CD18FEBB6
:100EB00092E029D16091220370E080E090E031D18E
:100EC00020E030E040E85EE369D19F938F937F9309
:100ED0006F9387EF92E09F938F931F930F9333D37A
:100EE000C80111D10FB6F894DEBF0FBECDBFE79693
:100EF0000FB6F894DEBF0FBECDBFDF91CF911F912B
:100F00000F91FF9008951F920F920FB60F92112428
:100F10000BB60F92EF92FF920F931F932F933F9375
:100F20004F935F936F937F938F939F93AF93BF93F1
:100F3000CF93DF93EF93FF9380910303909104038A
:100F400001969093040380930303C7E2D3E00F2E2E
:100F5000FFE6EF2EF3E0FF2EF02D8E01EC81FD81F8
:100F6000309709F18091030390910403288139811E
:100F700028173907C1F48885823019F48E819F8142
:100F80000995D80112968D919C911397009741F085
:100F90002D913C911197820F931F8D939C9303C0C9
:100FA000F801158214822996CE15DF05B1F6FF915E
:100FB000EF91DF91CF91BF91AF919F918F917F91F1
:100FC0006F915F914F913F912F911F910F91FF90E2
:100FD000EF900F900BBE0F900FBE0F901F901895C3
:100FE000109285001092840088E498E09093890024
:100FF000809388001092800089E08093810082E0D5
:1010000080936F0088E4E7E2F3E0DF011D928A95A8
:10101000E9F708950F931F93CF93DF938B016091AE
:101020002B0370912C03672B09F449C0E7E2F3E02E
:10103000A1E0B0E0C585D685CD2B09F442C011965C
:101040003996A830B105B1F780E090E03FC0FD01CE
:10105000EE0FFF1FEE0FFF1FEE0FFF1FEA0FFB1F2C
:10106000E95DFC4F938382830DC0FD01EE0FFF1FEE
:10107000EE0FFF1FEE0FFF1FEA0FFB1FE95DFC4F96
:1010800013821282FD01EE0FFF1FEE0FFF1FEE0F06
:10109000FF1FEA0FFB1FE95DFC4F55834483378335
:1010A00026832091030330910403820F931F9183C1
:1010B000808382E080877FBF8A2F9B2F07C0A0E0BC
:1010C000B0E07FB7F894012B11F6CFCFDF91CF912D
:1010D0001F910F9108951092CD0083E38093CC006F
:1010E000E9ECF0E0808188618083EAECF0E08081C7
:1010F000866080830895E8ECF0E0908195FFFDCF55
:101100008093CE000895CF93DF93EC0188818823EC
:1011100029F02196F0DF89918111FCCFDF91CF91E9
:101120000895E89409C097FB3EF4909580957095DA
:1011300061957F4F8F4F9F4F9923A9F0F92F96E923
:10114000BB279395F695879577956795B795F11198
:10115000F8CFFAF4BB0F11F460FF1BC06F5F7F4F35
:101160008F4F9F4F16C0882311F096E911C0772347
:1011700021F09EE8872F762F05C0662371F096E850
:10118000862F70E060E02AF09A95660F771F881F1F
:10119000DAF7880F9695879597F908950BD078C060
:1011A00069D028F06ED018F0952309F05AC05FC0BE
:1011B0001124A2C07ED0A0F3959FD1F3950F50E0EB
:1011C000551F629FF001729FBB27F00DB11D639FF9
:1011D000AA27F00DB11DAA1F649F6627B00DA11D9F
:1011E000661F829F2227B00DA11D621F739FB00D45
:1011F000A11D621F839FA00D611D221F749F3327B5
:10120000A00D611D231F849F600D211D822F762F4D
:101210006A2F11249F5750408AF0E1F088234AF04A
:10122000EE0FFF1FBB1F661F771F881F9150504096
:10123000A9F79E3F510570F014C05EC05F3FECF30C
:10124000983EDCF3869577956795B795F795E79582
:101250009F5FC1F7FE2B880F911D9695879597F993
:10126000089597F99F6780E870E060E008959FEF28
:1012700080EC089500240A9416161706180609062D
:10128000089500240A9412161306140605060895FC
:10129000092E0394000C11F4882352F0BB0F40F484
:1012A000BF2B11F460FF04C06F5F7F4F8F4F9F4FC4
:1012B000089557FD9058440F551F59F05F3F71F046
:1012C0004795880F97FB991F61F09F3F79F08795AD
:1012D0000895121613061406551FF2CF4695F1DF36
:1012E00008C0161617061806991FF1CF86957105C6
:1012F000610508940895E894BB2766277727CB01FA
:1013000097F908950F931F93CF93DF938230910540
:1013100010F482E090E0E0918003F091810320E0FE
:1013200030E0A0E0B0E0309719F1408151810281B6
:10133000138148175907C8F08417950769F4109767
:1013400031F012960C93129713961C9327C00093BA
:1013500080031093810322C02115310519F0421733
:10136000530718F49A01BD01EF01DF01F801DBCF4B
:1013700021153105F9F0281B390B2430310580F493
:101380008A819B816115710521F0FB019383828322
:1013900004C09093810380938003FE01329644C081
:1013A000FE01E20FF31F819391932250310939839B
:1013B00028833AC020917E0330917F03232B41F490
:1013C000209102013091030130937F0320937E032B
:1013D00020910001309101012115310541F42DB713
:1013E0003EB74091040150910501241B350BE0915B
:1013F0007E03F0917F03E217F307A0F42E1B3F0B4F
:101400002817390778F0AC014E5F5F4F2417350776
:1014100048F04E0F5F1F50937F0340937E038193EC
:10142000919302C0E0E0F0E0CF01DF91CF911F91F6
:101430000F910895CF93DF93009709F481C0FC01C9
:10144000329713821282A0918003B091810310978A
:1014500081F420813181820F931F20917E0330918E
:101460007F032817390751F5F0937F03E0937E033C
:1014700067C0ED0120E030E0CE17DF0740F44A817D
:101480005B819E0141155105F1F0EA01F5CFD3834F
:10149000C28340815181840F951FC817D90759F421
:1014A00088819981840F951F0296918380838A8118
:1014B0009B81938382832115310529F4F093810365
:1014C000E09380033DC0E901FB83EA834991599190
:1014D000C40FD51FEC17FD0761F480819181840F43
:1014E000951F0296E90199838883828193819B836A
:1014F0008A83E0E0F0E012968D919C91139700971B
:1015000019F0FD01DC01F7CF8D919C9111979D01A0
:101510002E5F3F4F820F931F20917E0330917F03F8
:101520002817390769F4309729F410928103109233
:10153000800302C013821282B0937F03A0937E03C4
:10154000DF91CF9108950F931F93CF93DF93CDB782
:10155000DEB72E970FB6F894DEBF0FBECDBF0D8954
:101560001E8986E08C831A8309838FEF9FE79E8311
:101570008D83AE01475E5F4F6F89788DCE010196F6
:1015800010D0EF81F885E00FF11F10822E960FB674
:10159000F894DEBF0FBECDBFDF91CF911F910F91A9
:1015A00008952F923F924F925F926F927F928F9207
:1015B0009F92AF92BF92CF92DF92EF92FF920F93E2
:1015C0001F93CF93DF93CDB7DEB72B970FB6F89469
:1015D000DEBF0FBECDBF6C017B018A01FC0117820B
:1015E0001682838181FFBFC1CE0101963C01F601C5
:1015F0009381F70193FD859193FF81917F0188236A
:1016000009F4ADC1853239F493FD859193FF819141
:101610007F01853221F4B60190E0D6D1E8CF912C3C
:10162000212C312CFFE1F315D8F08B3279F038F40E
:10163000803279F08332A1F4232D20611DC08D32D8
:1016400061F0803369F4232D216016C0832D826000
:10165000382EE32DE4603E2E2AC0F32DF8601DC025
:1016600037FC2DC020ED280F2A3040F08E32B9F41F
:1016700036FC75C1232D2064322E19C036FE06C0FB
:101680008AE0989E200D1124922E11C0EAE02E9E31
:10169000200D1124222EF32DF0623F2E08C08C362F
:1016A00021F4832D8068382E02C0883641F4F7017A
:1016B00093FD859193FF81917F018111B3CF982F85
:1016C0009F7D9554933028F40C5F1F4F9FE39983BF
:1016D0000DC0833631F0833771F0833509F055C082
:1016E00020C0F801808189830E5F1F4F8824839476
:1016F000912C530112C02801F2E04F0E511CF80149
:10170000A080B18036FE03C0692D70E002C06FEF8B
:101710007FEFC5014ED14C018201F32DFF773F2EA3
:1017200015C0280122E0420E511CF801A080B180B2
:1017300036FE03C0692D70E002C06FEF7FEFC50178
:101740002DD14C01F32DF0683F2E820133FC19C0DE
:10175000822D90E088169906A0F4B60180E290E010
:1017600033D12A94F5CFF50137FC859137FE81916D
:101770005F01B60190E028D121102A9421E0821A5D
:1017800091088114910479F7E1C0843611F089360B
:1017900039F5F80137FE07C060817181828193813C
:1017A0000C5F1F4F08C060817181072E000C880BF1
:1017B000990B0E5F1F4FF32DFF763F2E97FF09C049
:1017C00090958095709561957F4F8F4F9F4FF068F2
:1017D0003F2E2AE030E0A30133D1882E861844C082
:1017E000853731F4232D2F7EB22E2AE030E025C03C
:1017F000932D997FB92E8F36C1F018F4883579F082
:10180000AEC0803719F0883721F0A9C0E92FE06118
:10181000BE2EB4FE0DC0FB2DF460BF2E09C034FEF9
:101820000AC0292F2660B22E06C028E030E005C08D
:1018300020E130E002C020E132E0F801B7FE07C04D
:1018400060817181828193810C5F1F4F06C060812E
:10185000718180E090E00E5F1F4FA301F1D0882ED0
:101860008618FB2DFF773F2E36FE0DC0232D2E7FD1
:10187000A22E891458F434FE0BC032FC09C0832D0B
:101880008E7EA82E05C0B82CA32C03C0B82C01C096
:10189000B92CA4FE0FC0FE01E80DF11D808180333C
:1018A00021F49A2D997EA92E09C0A2FE06C0B394F8
:1018B000B39404C08A2D867809F0B394A3FC10C0B9
:1018C000A0FE06C0B21480F4280C922C9B180DC008
:1018D000B21458F4B60180E290E076D0B394F8CF19
:1018E000B21418F42B1802C0982C212CA4FE0FC09F
:1018F000B60180E390E068D0A2FE16C0A1FC03C050
:1019000088E790E002C088E590E0B6010CC08A2D1F
:10191000867851F0A1FE02C08BE201C080E2A7FCF4
:101920008DE2B60190E050D0891430F4B60180E326
:1019300090E04AD09A94F8CF8A94F301E80DF11D13
:101940008081B60190E040D08110F6CF222009F4CA
:101950004ECEB60180E290E037D02A94F7CFF60160
:101960008681978102C08FEF9FEF2B960FB6F89478
:10197000DEBF0FBECDBFDF91CF911F910F91FF90C2
:10198000EF90DF90CF90BF90AF909F908F907F901F
:101990006F905F904F903F902F900895FC010590BD
:1019A000615070400110D8F7809590958E0F9F1F61
:1019B0000895FC016150704001900110D8F78095A6
:1019C00090958E0F9F1F08950F931F93CF93DF93D2
:1019D000FB01238121FD03C08FEF9FEF2CC022FF6D
:1019E00016C046815781248135814217530744F43C
:1019F000A081B1819D012F5F3F4F318320838C9364
:101A0000268137812F5F3F4F3783268314C08B0198
:101A1000EC01FB010084F185E02D0995892BE1F6AD
:101A2000D80116968D919C911797019617969C93C5
:101A30008E931697CE01DF91CF911F910F9108954C
:101A4000FA01AA27283051F1203181F1E8946F93EF
:101A50006E7F6E5F7F4F8F4F9F4FAF4FB1E03ED095
:101A6000B4E03CD0670F781F891F9A1FA11D680F33
:101A7000791F8A1F911DA11D6A0F711D811D911D66
:101A8000A11D20D009F468943F912AE0269F1124DB
:101A90003019305D3193DEF6CF010895462F47703F
:101AA000405D4193B3E00FD0C9F7F6CF462F4F709A
:101AB000405D4A3318F0495D31FD4052419302D0F8
:101AC000A9F7EACFB4E0A69597958795779567959E
:101AD000BA95C9F700976105710508959B01AC019E
:101AE0000A2E06945795479537952795BA95C9F7C5
:101AF000620F731F841F951FA01D0895F894FFCFD8
:101B000000008203200064003296646401010164D5
:101B10000032966464947D665043405374617274DD
:101B2000696E672053797374656D210D0A005379CE
:101B30007374656D2052656164792E2E2E0D0A0036
:101B40006D61696E006453797374656D20496E69C7
:101B50007469616C697A65642E2E2E0053797374F2
:101B6000656D205061757365204D657373616765A0
:101B70003A2025730D0A004974656D3A2025642CBE
:101B8000205265666C3A2025752C204D61673A20FD
:101B900025752C20436C6173732025752C2053749C
:101BA000617475733A2025750D0A000D0A54696D2C
:101BB00065722025642053746174653A2025750D83
:101BC0000A0025750D0A484541443A2025782C2005
:101BD0005441494C3A2025782C2046524F4E543AD5
:101BE0002025782C20454E443A2025782C2053542B
:101BF000414745313A2025782C204D61673A202510
:101C000075205354414745323A2025782C2052659F
:101C1000666C3A2025750D0A004974656D3A2025D9
:101C2000642C205265666C3A2025752C204D616726
:101C30003A2025750D0A000D0A0D0A0D0A0D0A0D30
:101C40000A0D0A53797374656D2052616D70696E67
:101C50006720446F776E2E2E2E0D0A0025752049C1
:101C600074656D7320536F72746564210D0A0D0ADB
:101C7000426C61636B3A2025752F313209576869D0
:101C800074653A2025752F313209537465656C3AB5
:101C90002025752F313209416C756D696E756D3A6D
:101CA0002025752F313209556E6B6E6F776E204986
:101CB00074656D733A2025750D0A0D0A0D0A0054DE
:101CC0006F74616C2074696D6520656C61707365FB
:101CD000642073696E6365206974656D20656E7438
:101CE0006572656420746865206669727374207318
:101CF000746167653A2000252E326620730D0A0054
:00000001FF
