:100000004BC0000067C0000065C0000063C0000076
:1000100061C000005FC000005DC000005BC0000068
:1000200059C0000057C0000055C0000053C0000078
:1000300051C00000CFC400004DC000004BC0000004
:1000400049C00000D0C7000045C0000043C0000008
:1000500041C000003FC000003DC000003BC00000A8
:1000600039C0000037C0000035C0000033C00000B8
:1000700031C0000046C000002DC000002BC00000B1
:1000800029C0000027C0000025C0000023C00000D8
:1000900021C000001FC0000011241FBECFEFD0E21E
:1000A000DEBFCDBF13E0A0E0B1E0EEEFF9E100E08C
:1000B0000BBF02C007900D92A230B107D9F723E021
:1000C000A2E0B3E001C01D92AF38B207E1F715D34B
:1000D0000C94FD0CBDC3EBE7F0E080818068808369
:1000E000EAE7F0E080818068808380818860808397
:1000F000ACE7B0E08C9181648C93808180648083D4
:1001000008951F920F920FB60F9211240BB60F9203
:100110002F933F938F939F93EF93FF9380912203AD
:10012000909123030697D8F48091220390912303A2
:100130009C012F5F3F4F3093230320932203209194
:10014000780030917900880F991FFC01E25FFC4F25
:1001500031832083EAE7F0E08081806480838091AE
:10016000220390912303069719F482E080933F03C2
:10017000FF91EF919F918F913F912F910F900BBE27
:100180000F900FBE0F901F901895CF93679916C0D0
:1001900080910801882381F080912C0390912D0398
:1001A000892B41F4809108039091090390932D03CA
:1001B00080932C03109227031092080166990EC0B9
:1001C00080910701882341F062E08091760390914D
:1001D000770372D2109227031092070165990BC022
:1001E00080910601882329F082E0809351031092C8
:1001F000270310920601679B0EC0809108018111B0
:1002000007C0EEE2F3E082E0828F84A7809375035B
:1002100081E080930801669B2AC0809107018111CB
:1002200023C08091760390917703009771F48091B9
:10023000080390910903909377038093760360916C
:1002400025037091260342D20AC0F0D19093770320
:1002500080937603609125037091260337D2EAE7F5
:10026000F0E080818064808381E080930701659B5A
:100270000FC080910601811108C080910803909100
:100280000903FAD1853009F44AD681E0809306014A
:100290008091050381112BC080910803909109037F
:1002A000EBD1843021F1E0910803F09109038281C0
:1002B0009381E2D18430D9F081E080930503E0910D
:1002C0000803F091090382819381D6D1E82FF0E0F1
:1002D000E75FFE4FC0818091080390910903CCD164
:1002E000E82FF0E0E75FFE4F80816C2F53D3CF9172
:1002F0000895CF92DF92EF92FF92CF93EEE0F3E07A
:10030000A081B18160817181809104038F5F8093AE
:100310000403C12CD12C760180E090E04FB7F89413
:10032000FC01EE0FFF1FE25FFC4F20813181C20E06
:10033000D31EE11CF11C208131812617370738F4C8
:10034000FC01EE0FFF1FE25FFC4F60817181FC0139
:10035000EE0FFF1FE25FFC4F20813181A217B30730
:1003600008F04DC0FC01EE0FFF1FE25FFC4FA081C3
:10037000B18145C08FB7F894CA1ADB0AE108F108C9
:10038000C61AD70AE108F108F694E794D794C794FF
:10039000F694E794D794C7948FBFCFB7F894D7015A
:1003A000C6010B97A109B1098D3D9340A105B10587
:1003B000A0F4809176039091770363D1A0E0B0E040
:1003C000C816D906EA06FB0640F4809176039091A0
:1003D0007703009711F0B6015FD1CFBF10922303CE
:1003E0001092220310923F03669B06C0EAE7F0E0FA
:1003F0008081806480830AC01092040307C04FBFCD
:1004000001968630910509F089CFB4CFCF91FF9046
:10041000EF90DF90CF90089580912403882329F0F6
:10042000809103038F5F8093030364991AC061E096
:1004300080912C0390912D033FD161E080912C039A
:1004400090912D032FD180912C0390912D03EED00C
:1004500090932D0380932C03109203031092480372
:100460000895809103038333C8F061E080912C03E9
:1004700090912D0321D160E080912C0390912D0368
:1004800011D180912C0390912D03D0D090932D0306
:1004900080932C03109203031092480308951F9336
:1004A000CF93DF931F92CDB7DEB7EAE7F3E0858104
:1004B00096819781891B8983998180914F01981733
:1004C00008F03CC080918803811138C08981853053
:1004D00040F480918403811104C080914E01828791
:1004E000158663E08091080390910903E5D080911F
:1004F0000803909109039AD090930903809308030D
:1005000081E090E0B7D1E0910803F0910903828186
:100510009381B2D0E82FF0E0E75FFE4F1081809129
:10052000080390910903A8D0E82FF0E0E75FFE4FA1
:100530008081612F2FD21092510306C080E090E09D
:1005400099D181E080937803809108039091090309
:1005500093D00F90DF91CF911F91089589B183704F
:10056000C1F0809102038F5F80930203833098F083
:1005700089B1837081F089B18370813019F48093DF
:100580007903089589B18370823029F480935A03E6
:10059000089510920203089580912703823018F085
:1005A00086E191E098D3809127038F5F80932703A2
:1005B00008959BB180EA89278BB90895809124031F
:1005C000882349F08091250390912603019690930A
:1005D0002603809325030895EF92FF921F93CF93F4
:1005E000DF937C01162FD42FC22F87E090E009D62D
:1005F000FC01F182E0821283D383C48316821582C8
:10060000DF91CF911F91FF90EF900895CF93DF93EB
:10061000EC0186E090E0F5D5FC01D183C083158222
:10062000148213821282DF91CF910895FC0182819E
:1006300093810895CF93DF93EC01CB0101C0E901D1
:100640002A813B8121153105D1F7E0DF9B838A8325
:10065000DF91CF910895DC011296ED91FC911397F3
:10066000309741F081E08F5F0280F381E02D309779
:10067000D1F7089581E00895DC01ED91FC9183812B
:100680000895DC01ED91FC91808191810895DC0158
:10069000ED91FC9182810895DC01ED91FC917183D3
:1006A00060830895DC01ED91FC9162830895DC0183
:1006B000ED91FC9163830895DC01ED91FC916483DD
:1006C0000895DC01ED91FC9184810895DC01ED91A8
:1006D000FC91768365830895DC01ED91FC91858121
:1006E000968108958FEF81B984B987B980EF8AB96F
:1006F0001DB810BA80E090E008956DD289B1837082
:10070000E9F784E291E06FD5F89420E030E045EC21
:1007100050E061E070E081E090E0ECD4CEE2D3E024
:1007200012E0188720E030E049E751E061E070E036
:1007300081E090E0DFD4198A20E030E04CE052E024
:1007400061E070E081E090E0D5D41A8E20E030E0E6
:100750004FE452E061E070E081E090E0CBD41BA276
:1007600020E030E04EED52E061E070E082E090E0A9
:10077000C1D41CA620E030E04EEA52E061E070E017
:1007800084E690E0B7D41DAB20E030E049ED52E0C4
:1007900061E070E080ED97E0ADD41EAF20E030E086
:1007A0004CEC52E061E070E088E893E1A3D4109251
:1007B000750387E391E017D580E890E05BD07894EB
:1007C00080917903882319F089E491E084D2C09163
:1007D0000803D0910903209799F3209791F1CE0156
:1007E0004BDF843071F5CE016CDF823051F5CE01E4
:1007F00048DF8C01CE014BDF882391F0C80144977C
:100800008135910520F462E0CE0151DF1AC0045613
:10081000110909351240A8F463E0CE0148DF11C088
:10082000C801895893400B9720F460E0CE013FDF68
:1008300008C0005213400739110518F461E0CE01D9
:1008400036DFCE01F3DEEC01892B09F0C6CFB8CF3D
:100850001F920F920FB60F9211248AEA88B9FECF29
:1008600084B5836884BD85B5836085BD80910F01A3
:1008700087BD08959C019FB7F89480910F0187BDB3
:10088000232B31F081E08093240381EF85B904C0EC
:100890001092240380EF85B99FBF0895F894EAE78A
:1008A000F3E0108281E08183138212821482128627
:1008B00017821186108614861586138688EC90E0C0
:1008C0009683858380E382B984E98093B300E0EB6B
:1008D000F0E0808182608083E0E7F0E080818260E8
:1008E0008083E1EBF0E080818760808378940895D5
:1008F00090E0861B910952F0853691058CF024E634
:1009000030E0A901481B590BCA0108958C395FEFEB
:10091000950734F42CE93FEFA901481B590BCA0194
:100920000895CF93DF93CAE7D3E06C818A819B81DE
:10093000DFDF9E838D836A817B8188859985D8DFFF
:100940002D813E81332314F428E001C024E0EAE73E
:10095000F3E0218345815681849F9001859F300D6E
:10096000949F300D112481E0121613060CF080E0E4
:10097000EAE7F3E083878581968199231CF49195BA
:1009800081959109EAE7F3E0968385831782DF91E9
:10099000CF910895EAE7F3E024814281538130E06A
:1009A0002417350729F091E096878787608B089593
:1009B000282F30E0EAE7F3E03383228370E0718789
:1009C00060879481891304C08091500180938403CF
:1009D000A8CF08951F920F920FB60F9211240BB655
:1009E0000F922F933F934F935F936F937F938F93C8
:1009F0009F93AF93BF93EF93FF93CF93DF9300D079
:100A000000D0CDB7DEB786E390E0A0E0B0E09EE294
:100A1000ADE2B5E389839A83AB83BC838091840381
:100A2000882329F0EAE7F3E0828581508287EAE7AC
:100A3000F3E087812581368190E082179307F9F4EE
:100A400010922A038281938184838685882321F0F2
:100A50001686608987859EDF80918503882319F03B
:100A60008091870301C080E0EAE7F3E08587E585B0
:100A7000F0E0E05FFE4F80818093B3006AC0EAE758
:100A8000F3E087812581368190E0821793070CF08F
:100A900060C08091840381115CC080917B038430AD
:100AA00051F480917A03E1E0F0E0EC0FFD1FE80FD4
:100AB000F11D80810DC080917A03E3E0F0E0E81B36
:100AC000F10981E090E08C0F9D1FE80FF91F8081F4
:100AD00082B980917A03833021F080917A038F5F0D
:100AE00001C080E0EAE7F3E0808387818F5F87833E
:100AF0008385811115C0858196812781821B91098B
:100B0000069774F4E0918703F0E0E05FFE4F808188
:100B1000843930F4EAE7F3E085858150858711C098
:100B200080918103863068F0E0918703F0E0E05F18
:100B3000FE4F8081813428F0EAE7F3E085858F5FFE
:100B40008587E0918703F0E0E05FFE4F808180932E
:100B5000B30080918603813029F1639904C08091AC
:100B600051018093860380918603823028F0EAE762
:100B7000F3E084858150848780918603813091F4ED
:100B8000EAE7F3E084871082818313821282148261
:100B90001682158217821186108613861586168690
:100BA000108A17860F900F900F900F90DF91CF91C2
:100BB000FF91EF91BF91AF919F918F917F916F9135
:100BC0005F914F913F912F910F900BBE0F900FBEF1
:100BD0000F901F9018950F931F93CF93F894E1E611
:100BE000F0E080E880831082E6D27CDD69D238DED6
:100BF00072DA54DE109223031092220384E1EEE0B5
:100C0000F3E0DF011D928A95E9F7109279031092C3
:100C10002703109226031092250310927803109256
:100C20002A03109209031092080310920D031092E8
:100C30000C0310922D0310922C0310927703109244
:100C4000760310920B0310920A031092290310925C
:100C5000280320E044E06FEF89EE9DEFBDDCD6DC99
:100C6000909309038093080390930B0380930A03E6
:100C70009093290380932803CAEF08EE1DEF20E02C
:100C800044E06C2FC801A8DCBC018091080390915E
:100C90000903D0DC90930D0380930C0301501109DC
:100CA000C150CB3C61F705E010E020E045E06AEF81
:100CB00088EE9DEF91DCBC018091080390910903BF
:100CC000B9DC0150110989F782E591E08CD2CF910E
:100CD0001F910F9108953F924F925F926F927F9272
:100CE0008F929F92AF92BF92CF92DF92EF92FF923C
:100CF0000F931F93CF93DF93CDB7DEB7CA5FD109B0
:100D00000FB6F894DEBF0FBECDBFF82EE92EF894D3
:100D100080E090E0AFDD00910A0310910B03EF92A9
:100D2000FF9288E691E09F938F93CE0101967C011C
:100D30009F938F9387D3C70156D2809108039091D8
:100D40000903CADC20912503309126039F938F93DA
:100D50003F932F9383E891E09F938F93FF92EF92BD
:100D600071D3C70140D20FB6F894DEBF0FBECDBF1E
:100D7000E12CF12C0F2EF2EAAF2EF1E0BF2EF02D78
:100D80006E01F7E9CF0ED11C2DC08FEFE81AF80ADB
:100D9000C801A2DC682E592EC80193DC782EC80148
:100DA0006BDC882EC80173DC982EC8016ADC5F9268
:100DB0006F921F927F921F928F921F929F929F938A
:100DC0008F93FF92EF92BF92AF92DF92CF923AD37E
:100DD000C60109D2C8012ADC8C010FB6F894DEBF27
:100DE0000FBECDBFC80148DC853079F60F2EFEE27C
:100DF000CF2EF3E0DF2EF02D00E010E00F2EF0EE0E
:100E0000AF2EF1E0BF2EF02D7E01F7E9EF0EF11CC1
:100E1000F60180851F928F931F930F93BF92AF921D
:100E2000FF92EF920FD3C701DED10F5F1F4FF9E0A2
:100E3000CF0ED11C0FB6F894DEBF0FBECDBF07306A
:100E4000110531F780917603909177031ADC482ED3
:100E5000392E609076035090770380912C03909107
:100E60002D0315DC782E90902C0380902D0300919B
:100E70000C0310910D03F801B280A380D0900A03F7
:100E8000C0900B03F0900803E09009038F2D9E2D76
:100E9000E2DB3F924F925F926F921F927F928F920E
:100EA0009F92AF92BF92CF92DF921F930F93EF92D8
:100EB000FF921F928F9387EF91E09F938F938E0104
:100EC0000B591F4F1F930F93BDD2C8018CD10FB682
:100ED000F894DEBF0FBECDBF89B18370E9F784E21D
:100EE00091E081D180E890E0C5DC7894C650DF4F76
:100EF0000FB6F894DEBF0FBECDBFDF91CF911F912B
:100F00000F91FF90EF90DF90CF90BF90AF909F90A8
:100F10008F907F906F905F904F903F900895FF92D9
:100F20000F931F93CF93DF93CDB7DEB7E8970FB63C
:100F3000F894DEBF0FBECDBFFE01319686E0DF0123
:100F40001D928A95E9F700910A0310910B03F8941A
:100F50001BB818B880E090E08DDC8DE792E043D1BB
:100F6000F12C0FC0F394C80187DBE1E0F0E0EC0F57
:100F7000FD1FE80FF11D80818F5F8083C80156DB64
:100F80008C01C8019EDB833069F38D811F928F93A2
:100F90008B811F928F938C811F928F9389811F92D7
:100FA0008F938A811F928F931F92FF9282EA92E021
:100FB0009F938F938E01095F1F4F1F930F9342D210
:100FC000C80111D10FB6F894DEBF0FBECDBFE896B1
:100FD0000FB6F894DEBF0FBECDBFDF91CF911F914A
:100FE0000F91FF9008951F920F920FB60F92112448
:100FF0000BB60F92EF92FF920F931F932F933F9395
:101000004F935F936F937F938F939F93AF93BF9310
:10101000CF93DF93EF93FF938091060390910703A3
:1010200001969093070380930603CEE2D3E00F2E40
:10103000F6E7EF2EF3E0FF2EF02D8E01EC81FD811F
:10104000309709F180910603909107032881398137
:1010500028173907C1F48885823019F48E819F8161
:101060000995D80112968D919C911397009741F0A4
:101070002D913C911197820F931F8D939C9303C0E8
:10108000F801158214822996CE15DF05B1F6FF917D
:10109000EF91DF91CF91BF91AF919F918F917F9110
:1010A0006F915F914F913F912F911F910F91FF9001
:1010B000EF900F900BBE0F900FBE0F901F901895E2
:1010C000109285001092840088E498E09093890043
:1010D000809388001092800089E08093810082E0F4
:1010E00080936F0088E4EEE2F3E0DF011D928A95C1
:1010F000E9F708950F931F93CF93DF938B016091CE
:10110000320370913303672B09F449C0EEE2F3E038
:10111000A1E0B0E0C585D685CD2B09F442C011967B
:101120003996A830B105B1F780E090E03FC0FD01ED
:10113000EE0FFF1FEE0FFF1FEE0FFF1FEA0FFB1F4B
:10114000E25DFC4F938382830DC0FD01EE0FFF1F14
:10115000EE0FFF1FEE0FFF1FEA0FFB1FE25DFC4FBC
:1011600013821282FD01EE0FFF1FEE0FFF1FEE0F25
:10117000FF1FEA0FFB1FE25DFC4F5583448337835B
:1011800026832091060330910703820F931F9183DA
:10119000808382E080877FBF8A2F9B2F07C0A0E0DB
:1011A000B0E07FB7F894012B11F6CFCFDF91CF914C
:1011B0001F910F9108951092CD0083E38093CC008E
:1011C000E9ECF0E0808188618083EAECF0E08081E6
:1011D000866080830895E8ECF0E0908195FFFDCF74
:1011E0008093CE000895CF93DF93EC01888188230C
:1011F00029F02196F0DF89918111FCCFDF91CF9109
:1012000008950F931F93CF93DF938230910510F4CD
:1012100082E090E0E0918D03F0918E0320E030E0D9
:10122000A0E0B0E0309719F1408151810281138133
:1012300048175907C8F08417950769F4109731F0DB
:1012400012960C93129713961C9327C000938D034C
:1012500010938E0322C02115310519F04217530750
:1012600018F49A01BD01EF01DF01F801DBCF211570
:101270003105F9F0281B390B2430310580F48A81BF
:101280009B816115710521F0FB019383828304C06A
:1012900090938E0380938D03FE01329644C0FE012D
:1012A000E20FF31F819391932250310939832883F0
:1012B0003AC020918B0330918C03232B41F4209171
:1012C00002013091030130938C0320938B03209112
:1012D0000001309101012115310541F42DB73EB7D0
:1012E0004091040150910501241B350BE0918B03C3
:1012F000F0918C03E217F307A0F42E1B3F0B281785
:10130000390778F0AC014E5F5F4F2417350748F07E
:101310004E0F5F1F50938C0340938B0381939193E7
:1013200002C0E0E0F0E0CF01DF91CF911F910F917B
:101330000895CF93DF93009709F481C0FC013297A1
:1013400013821282A0918D03B0918E03109781F4C5
:1013500020813181820F931F20918B0330918C0368
:101360002817390751F5F0938C03E0938B0367C07E
:10137000ED0120E030E0CE17DF0740F44A815B81C9
:101380009E0141155105F1F0EA01F5CFD383C283E7
:1013900040815181840F951FC817D90759F488815E
:1013A0009981840F951F0296918380838A819B8106
:1013B000938382832115310529F4F0938E03E09302
:1013C0008D033DC0E901FB83EA8349915991C40F24
:1013D000D51FEC17FD0761F480819181840F951F63
:1013E0000296E90199838883828193819B838A8312
:1013F000E0E0F0E012968D919C911397009719F020
:10140000FD01DC01F7CF8D919C9111979D012E5F1D
:101410003F4F820F931F20918B0330918C0328172D
:10142000390769F4309729F410928E0310928D03D6
:1014300002C013821282B0938C03A0938B03DF91BE
:10144000CF9108950F931F93CF93DF93CDB7DEB75E
:101450002E970FB6F894DEBF0FBECDBF0D891E8943
:1014600086E08C831A8309838FEF9FE79E838D83A9
:10147000AE01475E5F4F6F89788DCE01019610D027
:10148000EF81F885E00FF11F10822E960FB6F894C9
:10149000DEBF0FBECDBFDF91CF911F910F91089599
:1014A0002F923F924F925F926F927F928F929F9274
:1014B000AF92BF92CF92DF92EF92FF920F931F9362
:1014C000CF93DF93CDB7DEB72B970FB6F894DEBF7F
:1014D0000FBECDBF6C017B018A01FC011782168211
:1014E000838181FFBFC1CE0101963C01F60193814A
:1014F000F70193FD859193FF81917F01882309F482
:10150000ADC1853239F493FD859193FF81917F01BF
:10151000853221F4B60190E0D6D1E8CF912C212C70
:10152000312CFFE1F315D8F08B3279F038F48032AA
:1015300079F08332A1F4232D20611DC08D3261F03A
:10154000803369F4232D216016C0832D8260382EEC
:10155000E32DE4603E2E2AC0F32DF8601DC037FC59
:101560002DC020ED280F2A3040F08E32B9F436FC21
:1015700075C1232D2064322E19C036FE06C08AE0C4
:10158000989E200D1124922E11C0EAE02E9E200D6F
:101590001124222EF32DF0623F2E08C08C3621F448
:1015A000832D8068382E02C0883641F4F70193FD00
:1015B000859193FF81917F018111B3CF982F9F7DFA
:1015C0009554933028F40C5F1F4F9FE399830DC00F
:1015D000833631F0833771F0833509F055C020C070
:1015E000F801808189830E5F1F4F88248394912C9A
:1015F000530112C02801F2E04F0E511CF801A080E7
:10160000B18036FE03C0692D70E002C06FEF7FEF3E
:10161000C5014ED14C018201F32DFF773F2E15C03D
:10162000280122E0420E511CF801A080B18036FE54
:1016300003C0692D70E002C06FEF7FEFC5012DD1AF
:101640004C01F32DF0683F2E820133FC19C0822D2E
:1016500090E088169906A0F4B60180E290E033D1BC
:101660002A94F5CFF50137FC859137FE81915F0112
:10167000B60190E028D121102A9421E0821A910825
:101680008114910479F7E1C0843611F0893639F577
:10169000F80137FE07C060817181828193810C5F00
:1016A0001F4F08C060817181072E000C880B990BB9
:1016B0000E5F1F4FF32DFF763F2E97FF09C09095C9
:1016C0008095709561957F4F8F4F9F4FF0683F2EAB
:1016D0002AE030E0A30133D1882E861844C0853734
:1016E00031F4232D2F7EB22E2AE030E025C0932D39
:1016F000997FB92E8F36C1F018F4883579F0AEC0D5
:10170000803719F0883721F0A9C0E92FE061BE2E9B
:10171000B4FE0DC0FB2DF460BF2E09C034FE0AC01C
:10172000292F2660B22E06C028E030E005C020E157
:1017300030E002C020E132E0F801B7FE07C060816E
:101740007181828193810C5F1F4F06C0608171811E
:1017500080E090E00E5F1F4FA301F1D0882E861825
:10176000FB2DFF773F2E36FE0DC0232D2E7FA22EA0
:10177000891458F434FE0BC032FC09C0832D8E7ED0
:10178000A82E05C0B82CA32C03C0B82C01C0B92CBE
:10179000A4FE0FC0FE01E80DF11D8081803321F40D
:1017A0009A2D997EA92E09C0A2FE06C0B394B394C7
:1017B00004C08A2D867809F0B394A3FC10C0A0FE63
:1017C00006C0B21480F4280C922C9B180DC0B214E1
:1017D00058F4B60180E290E076D0B394F8CFB2141A
:1017E00018F42B1802C0982C212CA4FE0FC0B601AF
:1017F00080E390E068D0A2FE16C0A1FC03C088E799
:1018000090E002C088E590E0B6010CC08A2D867891
:1018100051F0A1FE02C08BE201C080E2A7FC8DE284
:10182000B60190E050D0891430F4B60180E390E026
:101830004AD09A94F8CF8A94F301E80DF11D808183
:10184000B60190E040D08110F6CF222009F44ECEB0
:10185000B60180E290E037D02A94F7CFF601868176
:10186000978102C08FEF9FEF2B960FB6F894DEBFE3
:101870000FBECDBFDF91CF911F910F91FF90EF90E1
:10188000DF90CF90BF90AF909F908F907F906F90A0
:101890005F904F903F902F900895FC01059061500C
:1018A00070400110D8F7809590958E0F9F1F089576
:1018B000FC016150704001900110D8F7809590951F
:1018C0008E0F9F1F08950F931F93CF93DF93FB01FC
:1018D000238121FD03C08FEF9FEF2CC022FF16C094
:1018E00046815781248135814217530744F4A081F2
:1018F000B1819D012F5F3F4F318320838C932681DF
:1019000037812F5F3F4F3783268314C08B01EC0153
:10191000FB010084F185E02D0995892BE1F6D801C2
:1019200016968D919C911797019617969C938E937E
:101930001697CE01DF91CF911F910F910895FA0173
:10194000AA27283051F1203181F1E8946F936E7FFE
:101950006E5F7F4F8F4F9F4FAF4FB1E03ED0B4E0EF
:101960003CD0670F781F891F9A1FA11D680F791F30
:101970008A1F911DA11D6A0F711D811D911DA11D41
:1019800020D009F468943F912AE0269F1124301951
:10199000305D3193DEF6CF010895462F4770405DEC
:1019A0004193B3E00FD0C9F7F6CF462F4F70405D9B
:1019B0004A3318F0495D31FD4052419302D0A9F7F6
:1019C000EACFB4E0A6959795879577956795BA95F0
:1019D000C9F700976105710508959B01AC010A2EB6
:1019E00006945795479537952795BA95C9F7620F8D
:0E19F000731F841F951FA01D0895F894FFCF4C
:1019FE0000008F03200001010164003296646478B8
:101A0E00947D665643405741544348444F475F5474
:101A1E0061736B005374617274696E6720537973CE
:101A2E0074656D210D0A0053797374656D205265CE
:101A3E006164792E2E2E0D0A006D61696E000519F6
:101A4E000A0553797374656D20496E697469616C0A
:101A5E00697A65642E2E2E0053797374656D20504D
:101A6E0061757365204D6573736167653A202573E3
:101A7E000D0A004D6F746F72205469636B3A202506
:101A8E00752C20484541445469636B3A2025750DE9
:101A9E000A004974656D3A2025642C205265666CE7
:101AAE003A2025752C204D61673A2025752C204350
:101ABE006C6173732025752C205374617475733AA1
:101ACE002025752C205469636B3A2025750D0A006C
:101ADE000D0A54696D657220256420537461746516
:101AEE003A2025750D0A0025750D0A484541443AE0
:101AFE002025782C205441494C3A2025782C20461C
:101B0E00524F4E543A2025782C20454E443A2025EB
:101B1E00782C205354414745313A2025782C204DBE
:101B2E0061673A202575205354414745323A2025A6
:101B3E00782C205265666C3A2025750D0A004D6F83
:101B4E00746F72205469636B3A2025750D0A004933
:101B5E0074656D3A2025642C205265666C3A2025FA
:101B6E00752C204D61673A2025750D0A000D0A0D62
:101B7E000A0D0A0D0A0D0A0D0A53797374656D204C
:101B8E0052616D70696E6720446F776E2E2E2E0D2A
:101B9E000A002575204974656D7320536F72746544
:101BAE0064210D0A0D0A426C61636B3A2025752F74
:101BBE0031320957686974653A2025752F3132091B
:101BCE00537465656C3A2025752F313209416C7559
:101BDE006D696E756D3A2025752F313209556E6B14
:101BEE006E6F776E204974656D733A2025750D0AF8
:021BFE000000E5
:00000001FF
