S00F00004D4543483435382E7372656357
S11300004BC0000066C0000064C0000062C0000075
S113001060C000005EC000005CC000005AC0000068
S113002058C0000056C0000054C0000052C0000078
S113003050C000004EC000004CC000004AC0000088
S113004048C0000009C2000044C0000042C00000D3
S113005040C000003EC000003CC000003AC00000A8
S113006038C0000036C0000034C0000032C00000B8
S113007030C0000048C000002CC000002AC00000AE
S113008028C0000026C0000024C0000022C00000D8
S113009020C000001EC0000011241FBECFEFD0E21C
S11300A0DEBFCDBF11E0A0E0B1E0E8E7FEE000E094
S11300B00BBF02C007900D92AC35B107D9F721E010
S11300C0ACE5B1E001C01D92A53BB207E1F7A7D1B1
S11300D0D1C6A9C19FB7F894EBE7F0E080818068AE
S11300E08083EAE7F0E08081806880838081886093
S11300F08083ACE7B0E08C9181648C9380818064D0
S113010080839FBF08951F920F920FB60F92112400
S11301108F939F938091780090E09093B0018093A7
S1130120AF018091790090E09093AB018093AA0194
S113013081E08093AC019F918F910F900FBE0F903F
S11301401F90189588B1809588B9089586E091E04C
S113015087C208950F931F93CF93DF938C01D62FFB
S1130160C42F84E090E08AD2FC0111830083D283FF
S1130170C383DF91CF911F910F910895AF92BF92E6
S1130180CF92DF92EF92FF920F93CF93DF937C0194
S1130190EB015A01690189E090E070D2FC01D0863C
S11301A0C782B682A582F282E182D483C3830083AC
S11301B0DF91CF910F91FF90EF90DF90CF90BF90A0
S11301C0AF900895CF93DF93EC0186E090E056D290
S11301D0FC01D183C0831582148213821282DF91C1
S11301E0CF910895CF93DF93EC0186E090E046D25F
S11301F0FC01D183C0831582148213821282DF91A1
S1130200CF910895CF93DF93EC01CB0101C0E901B5
S11302102A813B8121153105D1F7D4DF9B838A8361
S1130220DF91CF910895EF92FF920F931F93CF9395
S1130230DF93EC010A811B81EC80FD808881998128
S1130240B5D2CE01B3D20115110519F0F801F5822A
S1130250E482E114F10419F0F70113830283C80165
S1130260DF91CF911F910F91FF90EF900895FC01C2
S113027001C0F9012481358121153105D1F7CF0160
S11302800895DC011296ED91FC911397309741F09B
S113029081E08F5F0280F381E02D3097D1F70895DC
S11302A081E00895DC01ED91FC9183810895DC01E6
S11302B0ED91FC91808191810895FC01A081B1812F
S11302C01596ED91FC91169717968D919C91189720
S11302D009950895DC01ED91FC9171836083089583
S11302E08FEF81B984B987B980EF8AB91DB810BA84
S11302F080E090E00895DF92EF92FF920F931F93B6
S1130300CF93DF93CDB7DEB7A0970FB6F894DEBFD7
S11303100FBECDBFF894E1E6F0E080E88083108260
S113032087D1DEDF8FEF9FEF9093AE018093AD0115
S11303309093A7018093A6019093A9018093A801AB
S1130340EFD0892B19F08FE091E08AD17CD0C2DE06
S1130350789488E291E084D180EF88B940E064E643
S113036084E690E0F7DE2EDF7C0141E064E684E67B
S113037090E0F0DEBC01C70145DF42E064E684E6BC
S113038090E0E8DEBC01C7013DDF43E064E684E6BB
S113039090E0E0DEBC01C70135DFC70168DF43DF61
S11303A07C0100E020E030E046EA50E064E670E0E2
S11303B084E690E0E3DE16DF80DF68EC70E0C701DE
S11303C089DFC70174DF082FD92EC7016BDF182F0F
S11303D0C70157DFDF920F931F921F931F928F93D2
S11303E087E391E09F938F938E010F5F1F4F1F93BD
S11303F00F9365D2C80134D10FB6F894DEBF0FBE97
S1130400CDBFA0960FB6F894DEBF0FBECDBFDF916F
S1130410CF911F910F91FF90EF90DF9008956BDFC4
S113042080E090E008951F920F920FB60F9211246E
S113043000E020E030E042EA50E061E070E080EA71
S11304409FE08AD0F5CF84B5836884BD85B5836089
S113045085BD80E887BD08951F920F920FB60F9255
S113046011240BB60F92EF92FF920F931F932F93C9
S11304703F934F935F936F937F938F939F93AF9328
S1130480BF93CF93DF93EF93FF9380915C0190919F
S11304905D01019690935D0180935C01CEE5D1E00E
S11304A00F2EF6EAEF2EF1E0FF2EF02DED81FE8106
S11304B03097C9F080915C0190915D0129813A8166
S11304C02817390781F48F81988509958B819C8140
S11304D0009739F029813A81820F931F9A83898387
S11304E002C01E821D822996CE15DF05F9F6FF9102
S11304F0EF91DF91CF91BF91AF919F918F917F91B8
S11305006F915F914F913F912F911F910F91FF90A8
S1130510EF900F900BBE0F900FBE0F901F90189589
S1130520109285001092840088EE93E090938900E5
S1130530809388001092800089E08093810082E09B
S113054080936F0088E4EEE5F1E0DF011D928A9567
S1130550E9F780E090E008950F931F93CF93DF9322
S11305608B016091630170916401672B09F453C09E
S1130570AEE5B1E0E1E0F0E01E96CD91DC911F978D
S1130580CD2B09F44AC031961996E830F105A1F74C
S113059080E090E048C0DF01AA0FBB1FAA0FBB1F79
S11305A0AA0FBB1FAE0FBF1FA25ABE4F14969C9337
S11305B08E9313970FC0DF01AA0FBB1FAA0FBB1F97
S11305C0AA0FBB1FAE0FBF1FA25ABE4F14961C9298
S11305D01E921397DF01AA0FBB1FAA0FBB1FAA0FFE
S11305E0BB1FAE0FBF1FA25ABE4F16965C934E930D
S11305F0159718963C932E93179720915C01309190
S11306005D01820F931F12969C938E9311977FBF67
S11306108E2F9F2F08C0E0E0F0E07FB7F894012B05
S113062009F0B9CFC8CFDF91CF911F910F910895F1
S11306301092CD0083E38093CC00E9ECF0E080815C
S113064088618083EAECF0E080818660808308958D
S1130650E8ECF0E0908195FFFDCF8093CE00089503
S1130660CF93DF93EC018881882329F02196F0DF72
S113067089918111FCCFDF91CF9108950F931F933E
S1130680CF93DF938230910510F482E090E0E09103
S1130690B301F091B40120E030E0A0E0B0E0309785
S11306A019F1408151810281138148175907C8F01B
S11306B08417950769F4109731F012960C931297EA
S11306C013961C9327C00093B3011093B40122C066
S11306D02115310519F04217530718F49A01BD0189
S11306E0EF01DF01F801DBCF21153105F9F0281BFB
S11306F0390B2430310580F48A819B8161157105A1
S113070021F0FB019383828304C09093B40180930E
S1130710B301FE01329644C0FE01E20FF31F819340
S1130720919322503109398328833AC02091B10131
S11307303091B201232B41F4209102013091030145
S11307403093B2012093B101209100013091010155
S11307502115310541F42DB73EB740910401509164
S11307600501241B350BE091B101F091B201E217B0
S1130770F307A0F42E1B3F0B2817390778F0AC01C0
S11307804E5F5F4F2417350748F04E0F5F1F50939D
S1130790B2014093B1018193919302C0E0E0F0E093
S11307A0CF01DF91CF911F910F910895CF93DF93E4
S11307B0009709F481C0FC01329713821282A09140
S11307C0B301B091B401109781F420813181820F7B
S11307D0931F2091B1013091B2012817390751F5C7
S11307E0F093B201E093B10167C0ED0120E030E085
S11307F0CE17DF0740F44A815B819E014115510504
S1130800F1F0EA01F5CFD383C28340815181840F93
S1130810951FC817D90759F488819981840F951FAA
S11308200296918380838A819B819383828321159D
S1130830310529F4F093B401E093B3013DC0E9011B
S1130840FB83EA8349915991C40FD51FEC17FD0727
S113085061F480819181840F951F0296E901998347
S11308608883828193819B838A83E0E0F0E01296FF
S11308708D919C911397009719F0FD01DC01F7CF3E
S11308808D919C9111979D012E5F3F4F820F931F75
S11308902091B1013091B2012817390769F43097DA
S11308A029F41092B4011092B30102C0138212828F
S11308B0B093B201A093B101DF91CF9108950F934A
S11308C01F93CF93DF93CDB7DEB72E970FB6F8946F
S11308D0DEBF0FBECDBF0D891E8986E08C831A83CF
S11308E009838FEF9FE79E838D83AE01475E5F4F41
S11308F06F89788DCE01019610D0EF81F885E00FD5
S1130900F11F10822E960FB6F894DEBF0FBECDBF36
S1130910DF91CF911F910F9108952F923F924F92A3
S11309205F926F927F928F929F92AF92BF92CF927B
S1130930DF92EF92FF920F931F93CF93DF93CDB784
S1130940DEB72B970FB6F894DEBF0FBECDBF6C0198
S11309507B018A01FC0117821682838181FFBFC15A
S1130960CE0101963C01F6019381F70193FD859137
S113097093FF81917F01882309F4ADC1853239F455
S113098093FD859193FF81917F01853221F4B60116
S113099090E0D6D1E8CF912C212C312CFFE1F31536
S11309A0D8F08B3279F038F4803279F08332A1F4C4
S11309B0232D20611DC08D3261F0803369F4232D15
S11309C0216016C0832D8260382EE32DE4603E2E14
S11309D02AC0F32DF8601DC037FC2DC020ED280F70
S11309E02A3040F08E32B9F436FC75C1232D2064D0
S11309F0322E19C036FE06C08AE0989E200D1124BE
S1130A00922E11C0EAE02E9E200D1124222EF32DE9
S1130A10F0623F2E08C08C3621F4832D8068382E76
S1130A2002C0883641F4F70193FD859193FF8191CB
S1130A307F018111B3CF982F9F7D9554933028F473
S1130A400C5F1F4F9FE399830DC0833631F08337CA
S1130A5071F0833509F055C020C0F8018081898385
S1130A600E5F1F4F88248394912C530112C02801D8
S1130A70F2E04F0E511CF801A080B18036FE03C095
S1130A80692D70E002C06FEF7FEFC5014ED14C01BC
S1130A908201F32DFF773F2E15C0280122E0420E7C
S1130AA0511CF801A080B18036FE03C0692D70E0AE
S1130AB002C06FEF7FEFC5012DD14C01F32DF0681B
S1130AC03F2E820133FC19C0822D90E088169906CE
S1130AD0A0F4B60180E290E033D12A94F5CFF50179
S1130AE037FC859137FE81915F01B60190E028D1F2
S1130AF021102A9421E0821A91088114910479F733
S1130B00E1C0843611F0893639F5F80137FE07C0A3
S1130B1060817181828193810C5F1F4F08C0608165
S1130B207181072E000C880B990B0E5F1F4FF32D5C
S1130B30FF763F2E97FF09C090958095709561953B
S1130B407F4F8F4F9F4FF0683F2E2AE030E0A30184
S1130B5033D1882E861844C0853731F4232D2F7E57
S1130B60B22E2AE030E025C0932D997FB92E8F361E
S1130B70C1F018F4883579F0AEC0803719F08837A1
S1130B8021F0A9C0E92FE061BE2EB4FE0DC0FB2DFB
S1130B90F460BF2E09C034FE0AC0292F2660B22E8D
S1130BA006C028E030E005C020E130E002C020E1CA
S1130BB032E0F801B7FE07C06081718182819381C0
S1130BC00C5F1F4F06C06081718180E090E00E5F72
S1130BD01F4FA301F1D0882E8618FB2DFF773F2EDF
S1130BE036FE0DC0232D2E7FA22E891458F434FE18
S1130BF00BC032FC09C0832D8E7EA82E05C0B82CF4
S1130C00A32C03C0B82C01C0B92CA4FE0FC0FE0154
S1130C10E80DF11D8081803321F49A2D997EA92E4F
S1130C2009C0A2FE06C0B394B39404C08A2D86788A
S1130C3009F0B394A3FC10C0A0FE06C0B21480F463
S1130C40280C922C9B180DC0B21458F4B60180E203
S1130C5090E076D0B394F8CFB21418F42B1802C0F5
S1130C60982C212CA4FE0FC0B60180E390E068D03C
S1130C70A2FE16C0A1FC03C088E790E002C088E58C
S1130C8090E0B6010CC08A2D867851F0A1FE02C016
S1130C908BE201C080E2A7FC8DE2B60190E050D067
S1130CA0891430F4B60180E390E04AD09A94F8CFE6
S1130CB08A94F301E80DF11D8081B60190E040D0E3
S1130CC08110F6CF222009F44ECEB60180E290E0E6
S1130CD037D02A94F7CFF6018681978102C08FEF2F
S1130CE09FEF2B960FB6F894DEBF0FBECDBFDF91FA
S1130CF0CF911F910F91FF90EF90DF90CF90BF9015
S1130D00AF909F908F907F906F905F904F903F90A7
S1130D102F900895FC010590615070400110D8F7A0
S1130D20809590958E0F9F1F0895FC01615070402F
S1130D3001900110D8F7809590958E0F9F1F08950C
S1130D400F931F93CF93DF93FB01238121FD03C0F6
S1130D508FEF9FEF2CC022FF16C04681578124815C
S1130D6035814217530744F4A081B1819D012F5F5F
S1130D703F4F318320838C93268137812F5F3F4FF0
S1130D803783268314C08B01EC01FB010084F185B9
S1130D90E02D0995892BE1F6D80116968D919C9149
S1130DA01797019617969C938E931697CE01DF9111
S1130DB0CF911F910F910895FA01AA27283051F17C
S1130DC0203181F1E8946F936E7F6E5F7F4F8F4F78
S1130DD09F4FAF4FB1E03ED0B4E03CD0670F781FD7
S1130DE0891F9A1FA11D680F791F8A1F911DA11DBC
S1130DF06A0F711D811D911DA11D20D009F46894F5
S1130E003F912AE0269F11243019305D3193DEF69C
S1130E10CF010895462F4770405D4193B3E00FD052
S1130E20C9F7F6CF462F4F70405D4A3318F0495D3D
S1130E3031FD4052419302D0A9F7EACFB4E0A69520
S1130E409795879577956795BA95C9F70097610542
S1130E50710508959B01AC010A2E06945795479598
S1130E6037952795BA95C9F7620F731F841F951F8D
S10B0E70A01D0895F894FFCFC2
S1130E780000B501200048656C6C6F210D0A005410
S1130E88494D455220444944204E4F5420494E4927
S1130E985449414C495A450054657374696E672036
S1130EA84C6973740D0A0053697A653A2025640DF8
S1130EB80A436C6173733A2025640D0A5265666CA3
S10F0EC86563743A202564200D0A0000C4
S9030000FC
