S00F00004D4543483435382E7372656357
S11300004BC0000067C0000065C0000063C0000072
S113001061C000005FC000005DC000005BC0000064
S113002059C0000057C0000055C0000053C0000074
S113003051C000005BC400004DC000004BC0000074
S113004049C00000EEC6000045C0000043C00000E7
S113005041C000003FC000003DC000003BC00000A4
S113006039C0000037C0000035C0000033C00000B4
S113007031C0000049C000002DC000002BC00000AA
S113008029C0000027C0000025C0000023C00000D4
S113009021C000001FC0000011241FBECFEFD0E21A
S11300A0DEBFCDBF12E0A0E0B1E0EAE8F8E100E095
S11300B00BBF02C007900D92A639B107D9F723E010
S11300C0A6E9B2E001C01D92A936B207E1F7ABD2AE
S11300D00C94430C53C39FB7F894EBE7F0E0808192
S11300E080688083EAE7F0E0808180688083808193
S11300F088608083ACE7B0E08C9181648C938081CC
S1130100806480839FBF08951F920F920FB60F9251
S113011011240BB60F922F933F938F939F93EF93DA
S1130120FF938091D1029091D2020A97D8F48091E2
S1130130D1029091D2029C012F5F3F4F3093D202A3
S11301402093D1022091780030917900880F991F73
S1130150FC01E354FD4F31832083EAE7F0E0808122
S1130160806480838091D1029091D2020A9719F41D
S113017082E080931603FF91EF919F918F913F91BD
S11301802F910F900BBE0F900FBE0F901F901895DC
S11301909BB180EA89278BB908958F929F92AF9281
S11301A0BF92CF92DF92EF92FF92CF9380919A0207
S11301B090919B02019690939B0280939A0240E057
S11301C050E0BA0180E090E02FB7F894FC01EE0F04
S11301D0FF1FE354FD4F0190F081E02D4E0F5F1F90
S11301E0611D711D2FBF01968A30910569F7CFB744
S11301F0F894CB01BA012AE030E040E050E025D782
S113020069017A01CFBFCFB7F894DA01C901019728
S1130210A109B1098F3C9740A105B105A0F48091D3
S11302204D0390914E03CFD1A0E0B0E0C816D9069B
S1130230EA06FB0640F480914D0390914E0300972B
S113024011F0B601CBD1CFBF1092D2021092D102DD
S113025010921603669B05C0EAE7F0E08081806493
S11302608083CF91FF90EF90DF90CF90BF90AF90BD
S11302709F908F9008958091F502882349F0809192
S11302809802909199020196909399028093980212
S113029064991CC061E08091030390910403AED182
S11302A061E080910303909104039ED18091030344
S11302B0909104035DD190930403809303031092FF
S11302C01F03109299021092980208958091980247
S11302D0909199024F97D8F061E080910303909137
S11302E004038CD160E080910303909104037CD1DA
S11302F080910303909104033BD190930403809372
S1130300030310921F031092990210929802089509
S1130310CF93C0915D038091B4029091B5024ED108
S1130320E82FF0E0E75FFE4F8081C81325C080917D
S1130330F502811103C080E890E031D263E080913E
S1130340B4029091B5025AD18091B4029091B50251
S11303500FD19093B5028093B402FC018281938102
S11303602DD1C82F8091B4029091B50227D16C2F62
S11303709ED21092280319C080E090E010D28091A0
S11303809702811112C0E091B402F091B50282810A
S1130390938114D1C82F8091B4029091B5020ED1EB
S11303A06C2F85D281E0809397028091B402909162
S11303B0B50204D1CF91089589B1837069F1809118
S11303C096028F5F80939602833030F189B18370F7
S11303D031F484E291E02BD610929602089589B10B
S11303E08370813069F48CE391E021D681E08093BD
S11303F058031092BA021092B9021092960208950C
S113040089B18370823031F482E691E010D6109283
S1130410960208951092960208950895679916C059
S113042080910801882381F0809103039091040353
S1130430892B41F48091B4029091B5029093040306
S1130440809303031092E7021092080166990EC08C
S113045080910701882341F062E080914D039091DF
S11304604E03CCD01092E7021092070165990BC09D
S113047080910601882329F082E08093280310925A
S1130480E70210920601679B0EC08091080181115A
S113049007C082E080931F0380934C031092E7020D
S11304A081E080930801669B22C08091070181113D
S11304B01BC080914D0390914E03009749F48091A5
S11304C0B4029091B50290934E0380934D0305C0FE
S11304D04FD090934E0380934D031092E702EAE7C6
S11304E0F0E080818064808381E080930701659BD4
S11304F009C080910601811102C01092E70281E0D7
S11305008093060108958091E702823018F085E710
S113051091E07CD38091E7028F5F8093E702089596
S1130520EF92FF921F93CF93DF937C01162FD42F6A
S1130530C22F85E090E0ABD5FC01F182E08212830A
S1130540D383C483DF91CF911F91FF90EF900895DF
S1130550CF93DF93EC0186E090E099D5FC01D18341
S1130560C0831582148213821282DF91CF91089581
S1130570FC01828193810895CF93DF93EC01CB0139
S113058001C0E9012A813B8121153105D1F7E0DF62
S11305909B838A83DF91CF910895DC011296ED91BC
S11305A0FC911397309741F081E08F5F0280F381D3
S11305B0E02D3097D1F7089581E00895DC01ED91A5
S11305C0FC9183810895DC01ED91FC9180819181FE
S11305D00895DC01ED91FC9182810895DC01ED9197
S11305E0FC91718360830895DC01ED91FC91628339
S11305F00895DC01ED91FC9163830895DC01ED9194
S1130600FC9164830895DC01ED91FC91848108954B
S11306108FEF81B984B987B980EF8AB91DB810BA50
S113062080E090E0089537D289B18370E9F783E8D8
S113063091E0FDD4F89420E030E04EE052E061E037
S113064070E081E090E07AD4C5E0D3E012E018874E
S113065020E030E04DEC50E061E070E081E090E0BB
S11306606DD4198A20E030E04BE351E061E070E0A2
S113067081E090E063D41A8E20E030E048E851E055
S113068061E070E081E090E059D41BA220E030E00A
S11306904DE052E061E070E081E090E04FD41CA6B0
S11306A020E030E04CED51E061E070E082E390E066
S11306B045D41DAB20E030E048EC50E061E070E050
S11306C088EE93E03BD41EAF20E030E043E852E0F4
S11306D061E070E089E991E131D410924C0386E93C
S11306E091E0A5D480E890E05AD0789480915803A2
S11306F0882319F088EA91E089D2C091B402D0919C
S1130700B502209799F3209791F1CE0157DF8430F9
S113071071F5CE0178DF823051F5CE0154DF8C01C2
S1130720CE0157DF882391F0C801449781359105A4
S113073020F462E0CE015DDF1AC00B521140003696
S11307401140A8F463E0CE0154DF11C0C8018657FC
S113075093408E9720F461E0CE014BDF08C00B5329
S113076013400033110518F460E0CE0142DFCE01DE
S1130770FFDEEC01892B09F0C6CFB8CF1F920F9290
S11307800FB60F9211248AEA88B9FECF84B5836824
S113079084BD85B5836085BD80E887BD089520E864
S11307A027BD892B31F081E08093F50281EF85B973
S11307B008951092F50280EF85B90895F894109287
S11307C0B802E9E5F3E0108281E0818313821282AA
S11307D0148288EC90E096838583178210861286B3
S11307E01386118680E382B984E98093B300E0EB39
S11307F0F0E0808182608083E0E7F0E080818260C5
S11308008083E1EBF0E080818760808378940895B1
S113081090E0861B910952F0853691058CF024E610
S113082030E0A901481B590BCA0108958C395FEFC8
S1130830950734F02CE93FEFA901481B590BCA0175
S11308400895CF93DF93C9E5D3E06C818A819B81BE
S1130850DFDF9E838D836A817B818885D9DF2D814B
S11308603E81332314F428E001C024E0E9E5F3E0F9
S1130870218345815681849F9001859F300D949FEB
S1130880300D1124832F8095881F8827881F818726
S11308908581968199231CF4919581959109E9E5C7
S11308A0F3E0968385831782DF91CF910895CF93E8
S11308B0DF93F894E82FF0E0E15FFE4F808190E051
S11308C0C9E5D3E09B838A83E62FF0E0E15FFE4F26
S11308D080818887B6DFEB85F0E0EB5EFE4F808198
S11308E08093B3007894DF91CF9108951F920F9273
S11308F00FB60F9211240BB60F922F933F938F9341
S11309009F93AF93BF93EF93FF93CF93DF9300D065
S113091000D0CDB7DEB786E390E0A0E0B0E09EE281
S1130920ADE2B5E389839A83AB83BC83E9E5F3E065
S113093087812581368190E0821793070CF05AC095
S113094080915A03843051F480915903E1E0F0E03E
S1130950EC0FFD1FE80FF11D80810DC0809159033C
S1130960E3E0F0E0E81BF10981E090E08C0F9D1FCB
S1130970E80FF91F808182B980915903833021F0F7
S1130980809159038F5F01C080E0E9E5F3E0808343
S113099087818F5F8783858196812781821B910957
S11309A0069774F4E0916403F0E0EB5EFE4F8081FF
S11309B0843930F4E9E5F3E083858150838711C0FD
S11309C080916003863068F0E0916403F0E0EB5EB0
S11309D0FE4F8081813428F0E9E5F3E083858F5F61
S11309E08387E0916403F0E0EB5EFE4F80818093A7
S11309F0B30029C0E9E5F3E087812581368190E0E1
S1130A008217930701F582819381848381858823EA
S1130A1019F08091640301C080E0A9E5B3E01B965E
S1130A208C931B971B96EC911B97F0E0EB5EFE4FAB
S1130A3080818093B30019968C91811102C082B198
S1130A4001C082B182B98091630381110FC063999F
S1130A500DC0E9E5F3E081E082871082818313828F
S1130A601282148216821582178210860F900F90BC
S1130A700F900F90DF91CF91FF91EF91BF91AF91C4
S1130A809F918F913F912F910F900BBE0F900FBEAE
S1130A900F901F901895AF92BF92CF92DF92EF9272
S1130AA0FF920F931F93CF93DF93CDB7DEB7E297F7
S1130AB00FB6F894DEBF0FBECDBFF894E1E6F0E0C8
S1130AC080E8808310829BD2A3DD05DB77DE1AD217
S1130AD05DDE1092D2021092D10284E1EDEBF2E0DD
S1130AE0DF011D928A95E9F71092E90210925803EA
S1130AF01092B5021092B4021092BC021092BB0282
S1130B00109204031092030310924E0310924D03AB
S1130B101092B7021092B60220E044E06FEF89EE23
S1130B209DEFFEDC15DD9093B5028093B4029093A3
S1130B30B7028093B6021AEF0F2EF8EEEF2EFDEFF8
S1130B40FF2EF02D20E044E0612FC701E9DCBC0159
S1130B508091B4029091B5020FDD9093BC02809312
S1130B60BB02B1E0EB1AF10811501A3C59F705E049
S1130B7010E020E045E06AEF88EE9DEFD1DCBC0197
S1130B808091B4029091B502F7DC0150110989F704
S1130B900091BB021091BC02F801B280A380D090F6
S1130BA0B602C090B702F090B402E090B5028F2D67
S1130BB09E2DF3DCAF92BF92CF92DF921F930F93DF
S1130BC0EF92FF921F928F938DEA91E09F938F9300
S1130BD08E010F5F1F4F1F930F937AD3C80127D243
S1130BE00FB6F894DEBF0FBECDBFE2960FB6F894F1
S1130BF0DEBF0FBECDBFDF91CF911F910F91FF904C
S1130C00EF90DF90CF90BF90AF9008953F924F92B6
S1130C105F926F927F928F929F92AF92BF92CF9288
S1130C20DF92EF92FF920F931F93CF93DF93CDB791
S1130C30DEB7C85CD1090FB6F894DEBF0FBECDBFD6
S1130C40F82EE92EF89480E090E0A9DD0091B60238
S1130C501091B702EF92FF928AED91E09F938F93E8
S1130C60CE0101967C019F938F9332D3C701DFD1CC
S1130C700F900F900F900F900F900F90E12CF12C8C
S1130C800F2EF5EFAF2EF1E0BF2EF02D6E0197E998
S1130C90C90ED11C27C0EFEFEE1AFE0AC801B3DC5F
S1130CA0782EC8018BDC882EC80193DC982EC801ED
S1130CB08ADC1F927F921F928F921F929F929F9322
S1130CC08F93FF92EF92BF92AF92DF92CF9200D3B5
S1130CD0C601ADD1C8014CDC8C010FB6F894DEBF5F
S1130CE00FBECDBFC8016ADC8530A9F60F2EF5E032
S1130CF0CF2EF3E0DF2EF02D00E010E00F2EF9E20E
S1130D00AF2EF2E0BF2EF02D7E0197E9E90EF11C23
S1130D10F60180851F928F931F930F93BF92AF921A
S1130D20FF92EF92D5D2C70182D10F5F1F4FF9E036
S1130D30CF0ED11C0FB6F894DEBF0FBECDBF073067
S1130D40110531F780914D0390914E033CDC482E00
S1130D50392E60904D0350904E038091030390917F
S1130D60040337DC782E90900303809004030091F1
S1130D70BB021091BC02F801B280A380D090B602ED
S1130D80C090B702F090B402E090B5028F2D9E2D72
S1130D9004DC3F924F925F926F921F927F928F92E8
S1130DA09F92AF92BF92CF92DF921F930F93EF92D5
S1130DB0FF921F928F938EE392E09F938F938E0105
S1130DC00B591F4F1F930F9383D2C80130D10FB615
S1130DD0F894DEBF0FBECDBF89B18370E9F783E815
S1130DE091E025D180E890E0DADC10925803789401
S1130DF0C853DF4F0FB6F894DEBF0FBECDBFDF91EF
S1130E00CF911F910F91FF90EF90DF90CF90BF9003
S1130E10AF909F908F907F906F905F904F903F9096
S1130E2008951F920F920FB60F9211240BB60F92D2
S1130E30EF92FF920F931F932F933F934F935F93E0
S1130E406F937F938F939F93AF93BF93CF93DF93CE
S1130E50EF93FF9398B18EEF892788B980919C0214
S1130E6090919D02019690939D0280939C02C5E00F
S1130E70D3E00F2EFDE4EF2EF3E0FF2EF02D8E01D4
S1130E80EC81FD813097E9F080919C0290919D0264
S1130E902881398128173907A1F48885823019F40B
S1130EA08E819F810995D80112968D919C911397FB
S1130EB0009739F02D913C911197820F931F8D93D8
S1130EC09C932996CE15DF05D1F698B18EEF89272C
S1130ED088B9FF91EF91DF91CF91BF91AF919F912D
S1130EE08F917F916F915F914F913F912F911F91BE
S1130EF00F91FF90EF900F900BBE0F900FBE0F90CD
S1130F001F901895109285001092840080EE9DE049
S1130F1090938900809388001092800089E08093E8
S1130F20810082E080936F0088E4E5E0F3E0DF0174
S1130F301D928A95E9F780E090E008950F931F933E
S1130F40CF93DF938B016091090370910A03672BA0
S1130F5009F449C0E5E0F3E0A1E0B0E0C585D68539
S1130F60CD2B09F442C011963996A830B105B1F7DA
S1130F7080E090E03FC0FD01EE0FFF1FEE0FFF1F6A
S1130F80EE0FFF1FEA0FFB1FEB5FFC4F938382837F
S1130F900DC0FD01EE0FFF1FEE0FFF1FEE0FFF1F31
S1130FA0EA0FFB1FEB5FFC4F13821282FD01EE0F71
S1130FB0FF1FEE0FFF1FEE0FFF1FEA0FFB1FEB5F7C
S1130FC0FC4F558344833783268320919C023091C0
S1130FD09D02820F931F9183808382E080877FBF6D
S1130FE08A2F9B2F07C0A0E0B0E07FB7F894012BB5
S1130FF011F6CFCFDF91CF911F910F9108951092E9
S1131000CD0083E38093CC00E9ECF0E0808188613B
S11310108083EAECF0E08081866080830895E8ECC8
S1131020F0E0908195FFFDCF8093CE000895CF939B
S1131030DF93EC018881882329F02196F0DF8991E0
S11310408111FCCFDF91CF910895A1E21A2EAA1B42
S1131050BB1BFD010DC0AA1FBB1FEE1FFF1FA21764
S1131060B307E407F50720F0A21BB30BE40BF50B61
S1131070661F771F881F991F1A9469F760957095EA
S1131080809590959B01AC01BD01CF0108950F930C
S11310901F93CF93DF938230910510F482E090E0A8
S11310A0E0916703F091680320E030E0A0E0B0E055
S11310B0309719F1408151810281138148175907F2
S11310C0C8F08417950769F4109731F012960C93C1
S11310D0129713961C9327C0009367031093680319
S11310E022C02115310519F04217530718F49A014B
S11310F0BD01EF01DF01F801DBCF21153105F9F066
S1131100281B390B2430310580F48A819B816115B9
S1131110710521F0FB019383828304C090936803DB
S113112080936703FE01329644C0FE01E20FF31F71
S11311308193919322503109398328833AC02091B5
S1131140650330916603232B41F420910201309111
S113115003013093660320936503209100013091CD
S113116001012115310541F42DB73EB74091040129
S113117050910501241B350BE0916503F091660342
S1131180E217F307A0F42E1B3F0B2817390778F05A
S1131190AC014E5F5F4F2417350748F04E0F5F1FB9
S11311A050936603409365038193919302C0E0E0FA
S11311B0F0E0CF01DF91CF911F910F910895CF936C
S11311C0DF93009709F481C0FC01329713821282E5
S11311D0A0916703B0916803109781F42081318155
S11311E0820F931F209165033091660328173907F6
S11311F051F5F0936603E093650367C0ED0120E0C9
S113120030E0CE17DF0740F44A815B819E0141152F
S11312105105F1F0EA01F5CFD383C28340815181B6
S1131220840F951FC817D90759F488819981840FB1
S1131230951F0296918380838A819B819383828305
S11312402115310529F4F0936803E09367033DC049
S1131250E901FB83EA8349915991C40FD51FEC1727
S1131260FD0761F480819181840F951F0296E90145
S113127099838883828193819B838A83E0E0F0E071
S113128012968D919C911397009719F0FD01DC0142
S1131290F7CF8D919C9111979D012E5F3F4F820F47
S11312A0931F20916503309166032817390769F469
S11312B0309729F4109268031092670302C01382D6
S11312C01282B0936603A0936503DF91CF910895D2
S11312D00F931F93CF93DF93CDB7DEB72E970FB63F
S11312E0F894DEBF0FBECDBF0D891E8986E08C83C6
S11312F01A8309838FEF9FE79E838D83AE01475E38
S11313005F4F6F89788DCE01019610D0EF81F885FB
S1131310E00FF11F10822E960FB6F894DEBF0FBEB9
S1131320CDBFDF91CF911F910F9108952F923F92DE
S11313304F925F926F927F928F929F92AF92BF92E1
S1131340CF92DF92EF92FF920F931F93CF93DF938D
S1131350CDB7DEB72B970FB6F894DEBF0FBECDBF67
S11313606C017B018A01FC0117821682838181FF53
S1131370BFC1CE0101963C01F6019381F70193FDB3
S1131380859193FF81917F01882309F4ADC1853252
S113139039F493FD859193FF81917F01853221F486
S11313A0B60190E0D6D1E8CF912C212C312CFFE16D
S11313B0F315D8F08B3279F038F4803279F0833237
S11313C0A1F4232D20611DC08D3261F0803369F4B6
S11313D0232D216016C0832D8260382EE32DE46016
S11313E03E2E2AC0F32DF8601DC037FC2DC020ED21
S11313F0280F2A3040F08E32B9F436FC75C1232D03
S11314002064322E19C036FE06C08AE0989E200D54
S11314101124922E11C0EAE02E9E200D1124222EBA
S1131420F32DF0623F2E08C08C3621F4832D8068A2
S1131430382E02C0883641F4F70193FD859193FF5D
S113144081917F018111B3CF982F9F7D9554933063
S113145028F40C5F1F4F9FE399830DC0833631F04E
S1131460833771F0833509F055C020C0F8018081BD
S113147089830E5F1F4F88248394912C530112C0DB
S11314802801F2E04F0E511CF801A080B18036FE15
S113149003C0692D70E002C06FEF7FEFC5014ED12C
S11314A04C018201F32DFF773F2E15C0280122E065
S11314B0420E511CF801A080B18036FE03C0692D94
S11314C070E002C06FEF7FEFC5012DD14C01F32D09
S11314D0F0683F2E820133FC19C0822D90E08816FB
S11314E09906A0F4B60180E290E033D12A94F5CFB6
S11314F0F50137FC859137FE81915F01B60190E0DB
S113150028D121102A9421E0821A9108811491048F
S113151079F7E1C0843611F0893639F5F80137FEE0
S113152007C060817181828193810C5F1F4F08C065
S113153060817181072E000C880B990B0E5F1F4F81
S1131540F32DFF763F2E97FF09C0909580957095F7
S113155061957F4F8F4F9F4FF0683F2E2AE030E018
S1131560A30133D1882E861844C0853731F4232D46
S11315702F7EB22E2AE030E025C0932D997FB92E1C
S11315808F36C1F018F4883579F0AEC0803719F081
S1131590883721F0A9C0E92FE061BE2EB4FE0DC04A
S11315A0FB2DF460BF2E09C034FE0AC0292F26602B
S11315B0B22E06C028E030E005C020E130E002C0D1
S11315C020E132E0F801B7FE07C0608171818281B9
S11315D093810C5F1F4F06C06081718180E090E0B1
S11315E00E5F1F4FA301F1D0882E8618FB2DFF77C5
S11315F03F2E36FE0DC0232D2E7FA22E891458F4C3
S113160034FE0BC032FC09C0832D8E7EA82E05C08B
S1131610B82CA32C03C0B82C01C0B92CA4FE0FC055
S1131620FE01E80DF11D8081803321F49A2D997E0D
S1131630A92E09C0A2FE06C0B394B39404C08A2D97
S1131640867809F0B394A3FC10C0A0FE06C0B214BF
S113165080F4280C922C9B180DC0B21458F4B601D7
S113166080E290E076D0B394F8CFB21418F42B183B
S113167002C0982C212CA4FE0FC0B60180E390E098
S113168068D0A2FE16C0A1FC03C088E790E002C0A7
S113169088E590E0B6010CC08A2D867851F0A1FE51
S11316A002C08BE201C080E2A7FC8DE2B60190E0AB
S11316B050D0891430F4B60180E390E04AD09A9473
S11316C0F8CF8A94F301E80DF11D8081B60190E012
S11316D040D08110F6CF222009F44ECEB60180E22C
S11316E090E037D02A94F7CFF6018681978102C023
S11316F08FEF9FEF2B960FB6F894DEBF0FBECDBFD2
S1131700DF91CF911F910F91FF90EF90DF90CF90D9
S1131710BF90AF909F908F907F906F905F904F900D
S11317203F902F900895FC01059061507040011086
S1131730D8F7809590958E0F9F1F0895FC016150F6
S1131740704001900110D8F7809590958E0F9F1FDF
S113175008950F931F93CF93DF93FB01238121FD02
S113176003C08FEF9FEF2CC022FF16C04681578124
S1131770248135814217530744F4A081B1819D012E
S11317802F5F3F4F318320838C93268137812F5FD6
S11317903F4F3783268314C08B01EC01FB01008487
S11317A0F185E02D0995892BE1F6D80116968D91E6
S11317B09C911797019617969C938E931697CE013A
S11317C0DF91CF911F910F910895FA01AA27283034
S11317D051F1203181F1E8946F936E7F6E5F7F4FFA
S11317E08F4F9F4FAF4FB1E03ED0B4E03CD0670F76
S11317F0781F891F9A1FA11D680F791F8A1F911DC9
S1131800A11D6A0F711D811D911DA11D20D009F418
S113181068943F912AE0269F11243019305D31935A
S1131820DEF6CF010895462F4770405D4193B3E043
S11318300FD0C9F7F6CF462F4F70405D4A3318F0EA
S1131840495D31FD4052419302D0A9F7EACFB4E09B
S1131850A6959795879577956795BA95C9F7009753
S11318606105710508959B01AC010A2E06945795F4
S1131870479537952795BA95C9F7620F731F841F4B
S10D1880951FA01D0895F894FFCFF2
S113188A0000690320000101016400329664646463
S113189A0032966464947D6650434048656C6C6F6C
S11318AA210D0A00426F746820427574746F6E7356
S11318BA2050726573736564210D0A00427574744D
S11318CA6F6E312050726573736564210D0D0D0DB1
S11318DA50617573696E672053797374656D2E2E22
S11318EA2E00427574746F6E32205072657373657C
S11318FA64210D0A005741544348444F475F5461D9
S113190A736B005374617274696E672053797374CC
S113191A656D210D0A0053797374656D20526561F2
S113192A64792E2E2E0D0A006D61696E0025750DDF
S113193A0A484541443A2025782C205441494C3AD6
S113194A2025782C2046524F4E543A2025782C20B4
S113195A454E443A2025780D0A0053797374656D0F
S113196A205061757365204D6573736167653A200C
S113197A25730D0A004974656D3A2025642C20529A
S113198A65666C3A2025752C204D61673A202575C9
S113199A2C20436C6173732025752C205374617455
S11319AA75733A2025750D0A0054696D65722025F0
S11319BA642053746174653A2025750D0A002575EF
S11319CA0D0A484541443A2025782C205441494C73
S11319DA3A2025782C2046524F4E543A2025782C0A
S11319EA20454E443A2025782C205354414745310A
S11319FA3A2025782C204D61673A202575205354C6
S1131A0A414745323A2025782C205265666C3A20A3
S1091A1A25750D0A000011
S9030000FC
