S00F00004D4543483435382E7372656357
S11300004BC0000067C0000065C0000063C0000072
S113001061C000005FC000005DC000005BC0000064
S113002059C0000057C0000055C0000053C0000074
S113003051C00000D3C500004DC000004BC00000FB
S113004049C000000C94BF0945C0000043C0000033
S113005041C000003FC000003DC000003BC00000A4
S113006039C0000037C0000035C0000033C00000B4
S113007031C0000046C000002DC000002BC00000AD
S113008029C0000027C0000025C0000023C00000D4
S113009021C000001FC0000011241FBECFEFD0E21A
S11300A0DEBFCDBF14E0A0E0B1E0E6E9FDE100E091
S11300B00BBF02C007900D92A23BB107D9F725E010
S11300C0A2EBB4E001C01D92A234B207E1F705D45B
S11300D00C94C90EC1C4EBE7F0E080818068808392
S11300E0EAE7F0E080818068808380818860808393
S11300F0ACE7B0E08C9181648C93808180648083D0
S113010008951F920F920FB60F9211240BB60F92FF
S11301102F933F938F939F93EF93FF938091D504F5
S11301209091D6040697D8F48091D5049091D60482
S11301309C012F5F3F4F3093D6042093D504209128
S1130140780030917900880F991FFC01EF53FB4F21
S113015031832083EAE7F0E08081806480838091AA
S1130160D5049091D604069719F482E08093F104A3
S1130170FF91EF919F918F913F912F910F900BBE23
S11301800F900FBE0F901F901895CF93DF93679930
S113019016C080910801882381F08091DC0490913D
S11301A0DD04892B41F48091BA049091BB049093AF
S11301B0DD048093DC041092DB041092080166993C
S11301C00EC080910701882341F062E080912A05E6
S11301D090912B0561D31092DB041092070165996D
S11301E00BC080910601882329F082E080930305E7
S11301F01092DB0410920601679B0EC080910801E7
S1130200811107C0E0EEF4E082E0828F84A780933E
S1130210270581E080930801669B32C08091070125
S113022081112BC080912A0590912B050097B1F480
S11302308091BA049091BB0490932B0580932A0576
S11302406091D9047091DA0431D380916401909162
S113025065019093B7048093B6040AC0D7D29093F3
S11302602B0580932A056091D9047091DA041ED37A
S1130270EAE7F0E080818064808381E08093070175
S1130280659B0FC080910601811108C08091BA045A
S11302909091BB04E1D2853009F458D781E0809372
S11302A006018091BA049091BB04D6D28430C9F47B
S11302B080913B05811115C0C091D904D091DA0415
S11302C08091BA049091BB04F7D2C81BD90B8091DA
S11302D06401909165018C179D0718F41092B50480
S11302E004C08091B504811134C08091BA04909106
S11302F0BB04B2D2843069F1E091BA04F091BB043A
S113030082819381A9D2843021F1EDE2F5E08481E8
S11303102281338190E082179307D9F481E080939E
S1130320B504E091BA04F091BB048281938194D224
S1130330E82FF0E0E75FFE4FC0818091BA0490910E
S1130340BB048AD2E82FF0E0E75FFE4F80816C2F78
S113035025D4DF91CF910895CF92DF92EF92FF924F
S1130360CF93E1ECF4E0A081B1816081718180914F
S1130370B4048F5F8093B404C12CD12C760180E047
S113038090E04FB7F894FC01EE0FFF1FEF53FB4FC3
S113039020813181C20ED31EE11CF11C20813181E8
S11303A02617370738F4FC01EE0FFF1FEF53FB4FFE
S11303B060817181FC01EE0FFF1FEF53FB4F208121
S11303C03181A217B30708F04DC0FC01EE0FFF1FE7
S11303D0EF53FB4FA081B18145C08FB7F894CA1A7F
S11303E0DB0AE108F108C61AD70AE108F108F69415
S11303F0E794D794C794F694E794D794C7948FBF9F
S1130400CFB7F894D701C6010B97A109B1098D3D67
S11304109340A105B105A0F480912A0590912B0584
S113042020D2A0E0B0E0C816D906EA06FB0640F4E4
S113043080912A0590912B05009711F0B6011CD2EA
S1130440CFBF1092D6041092D5041092F104669B8B
S113045006C0EAE7F0E08081806480830AC01092DD
S1130460B40407C04FBF01968630910509F089CFC7
S1130470B4CFCF91FF90EF90DF90CF90089580910B
S1130480D704882329F08091B3048F5F8093B30449
S113049064991AC061E08091DC049091DD04FCD180
S11304A061E08091DC049091DD04ECD18091DC0466
S11304B09091DD04ABD19093DD048093DC04109221
S11304C0B3041092FA0408958091B3048333C8F0FE
S11304D061E08091DC049091DD04DED160E08091E4
S11304E0DC049091DD04CED18091DC049091DD0494
S11304F08DD19093DD048093DC041092B3041092A8
S1130500FA040895EF92FF920F931F93CF93DF9312
S11305101F92CDB7DEB78091BA049091BB04C1D1CC
S1130520823018F41092030501C12091D90430914E
S1130530DA0480916201909163012817390718F455
S113054010920305F3C00091D9041091DA0480914C
S1130550BA049091BB04B0D1081B190B80916401BB
S1130560909165010817190718F410920305DEC06D
S11305708091BA049091BB046FD1843089F581E0F5
S11305808093D80463E08091BA049091BB0484D131
S11305908091D9049091DA049093B7048093B604BF
S11305A08091BA049091BB0431D19093BB048093A1
S11305B0BA04FC01828193814FD1E82FF0E0E75F18
S11305C0FE4F10818091BA049091BB0445D1E82F6D
S11305D0F0E0E75FFE4F8081612FE0D210920305C7
S11305E08091BA049091BB045CD1823031F50091C2
S11305F0D9041091DA048091B6049091B704081BD1
S1130600190B8091BA049091BB0456D17C0180915E
S1130610DE049091DF0450D120916001309161019A
S11306202E0D3F1D281B390B0217130730F081E0F4
S11306308093BE041092030579C0EDE2F5E0858154
S113064096819781891B8983998180915D0198178F
S113065008F064C080913B05811160C089818530B8
S1130660E0F480913705811118C08091BA0490910B
S1130670BB0422D18C01E091BA04F091BB048481C3
S113068095811AD1081B190B0D32114030F080915D
S11306905C01EDE2F5E08287158663E08091BA049F
S11306A09091BB04F9D08091D9049091DA0490938D
S11306B0B7048093B6048091D9049091DA0490939E
S11306C02905809328058091BA049091BB049093E6
S11306D0DF048093DE049AD09093BB048093BA0421
S11306E081E090E0CBD1E091BA04F091BB04828127
S11306F09381B2D0E82FF0E0E75FFE4F1081809144
S1130700BA049091BB04A8D0E82FF0E0E75FFE4F55
S11307108081612F43D21092030503C080E090E0F2
S1130720ADD18091BA049091BB0496D00F90DF9123
S1130730CF911F910F91FF90EF90089589B183702D
S1130740C1F08091B2048F5F8093B2048B3098F033
S113075089B1837081F089B18370813019F48093F9
S11307602C05089589B18370823029F480930C0597
S113077008951092B20408958091DB04823018F039
S113078086E191E0BDD38091DB048F5F8093DB042D
S113079008959BB180EA89278BB908958091D70485
S11307A0882349F08091D9049091DA0401969093BA
S11307B0DA048093D9040895EF92FF921F93CF93A4
S11307C0DF937C01162FD42FC22F87E090E0E5D66B
S11307D0FC01F182E0821283D383C48316821582E2
S11307E0DF91CF911F91FF90EF900895CF93DF9306
S11307F0EC0186E090E0D1D6FC01D183C083158260
S1130800148213821282DF91CF910895FC018281B8
S113081093810895CF93DF93EC01CB0101C0E901EB
S11308202A813B8121153105D1F7E0DF9B838A833F
S1130830DF91CF910895DC011296ED91FC9113970D
S1130840309741F081E08F5F0280F381E02D309793
S1130850D1F7089581E00895DC01ED91FC91838145
S11308600895DC01ED91FC91808191810895DC0172
S1130870ED91FC9182810895DC01ED91FC917183ED
S113088060830895DC01ED91FC9162830895DC019D
S1130890ED91FC9163830895DC01ED91FC916483F7
S11308A00895DC01ED91FC9184810895DC01ED91C2
S11308B0FC91768365830895DC01ED91FC9185813B
S11308C0968108958FEF81B984B987B980EF8AB989
S11308D01DB810BA80E090E008957ED289B183708B
S11308E0E9F784E291E04BD6F89420E030E045EC5F
S11308F050E061E070E081E090E0C8D5C0EED4E063
S113090012E0188720E030E04CEA51E061E070E04A
S113091081E090E0BBD5198A20E030E04FE352E05B
S113092061E070E081E090E0B1D51A8E20E030E023
S113093042E852E061E070E081E090E0A7D51BA2BC
S113094020E030E04EEC53E061E070E082E090E0C3
S11309509DD51CA620E030E04EE953E061E070E054
S113096084E690E093D51DAB20E030E049EC53E001
S113097061E070E080ED97E089D51EAF20E030E0C3
S11309804CEB53E061E070E088E893E17FD510928E
S1130990270587E391E0F3D580E890E06FD0789461
S11309A080912C05882319F089E491E0A9D28091E3
S11309B0D804811131D48091BE0481117ED4C091B8
S11309C0BA04D091BB04209759F3209709F43DC091
S11309D0CE0142DF843009F038C0CE0162DF8230BC
S11309E0A1F5CE013EDF8C01CE0141DF882391F0D9
S11309F0C8010A978F3B910520F462E0CE0147DFDE
S1130A0024C0085C11090D3B1240F8F463E0CE01E8
S1130A103EDF1BC0C801895893400B9720F460E067
S1130A20CE0135DF12C0C801805293408B3A910544
S1130A3020F461E0CE012BDF08C00A5011090F3BFE
S1130A40110518F462E0CE0122DFCE01DFDEEC01F5
S1130A50892B09F0BACFA4CF1F920F920FB60F9231
S1130A6011248AEA88B9FECF84B5836884BD85B52C
S1130A70836085BD80910F0187BD08959C019FB758
S1130A80F89480910F0187BD232B31F081E080938E
S1130A90D70481EF85B904C01092D70480EF85B9DB
S1130AA09FBF0895F894EDE2F5E0108281E0818320
S1130AB0138212821482128617821186108614867B
S1130AC01586138688EC90E09683858380E382B94B
S1130AD084E98093B300E0EBF0E08081826080835E
S1130AE0E0E7F0E0808182608083E1EBF0E08081E8
S1130AF0876080837894089590E0861B910952F072
S1130B00853691058CF024E630E0A901481B590B89
S1130B10CA0108958C395FEF950734F42CE93FEF4F
S1130B20A901481B590BCA010895CF93DF93CDE265
S1130B30D5E06C818A819B81DFDF9E838D836A810E
S1130B407B8188859985D8DF2D813E81332314F4F8
S1130B5028E001C024E0EDE2F5E0218345815681DF
S1130B60849F9001859F300D949F300D112481E066
S1130B70121613060CF080E0EDE2F5E08387858120
S1130B80968199231CF4919581959109EDE2F5E004
S1130B90968385831782DF91CF910895EDE2F5E086
S1130BA024814281538130E02417350729F091E0F4
S1130BB096878787608B0895282F30E0EDE2F5E073
S1130BC03383228370E0718760879481891304C022
S1130BD080915E0180933705A8CF08951F920F92EC
S1130BE00FB60F9211240BB60F922F933F934F938E
S1130BF05F936F937F938F939F93AF93BF93EF9381
S1130C00FF93CF93DF9300D000D0CDB7DEB786E358
S1130C1090E0A0E0B0E09EE2ADE2B5E389839A8380
S1130C20AB83BC8380913705882329F0EDE2F5E09E
S1130C30828581508287EDE2F5E0878125813681C6
S1130C4090E082179307E1F48281938184838685FF
S1130C50882321F0168660898785A0DF8091380576
S1130C60882319F080913A0501C080E0EDE2F5E0B7
S1130C708587E585F0E0E05FFE4F80818093B300D7
S1130C80EDE2F5E087812581368190E082179307B4
S1130C900CF060C08091370581115CC080912E05F5
S1130CA0843051F480912D05E1E0F0E0EC0FFD1F5C
S1130CB0E80FF11D80810DC080912D05E3E0F0E087
S1130CC0E81BF10981E090E08C0F9D1FE80FF91FEC
S1130CD0808182B980912D05833021F080912D058A
S1130CE08F5F01C080E0EDE2F5E0808387818F5F54
S1130CF087838385811115C0858196812781821B15
S1130D009109069774F4E0913A05F0E0E05FFE4F34
S1130D108081843930F4EDE2F5E085858150858762
S1130D2011C080913405863068F0E0913A05F0E016
S1130D30E05FFE4F8081813428F0EDE2F5E08585A7
S1130D408F5F8587E0913A05F0E0E05FFE4F808198
S1130D508093B30080913905813029F1639904C0EF
S1130D6080915F018093390580913905823028F0A4
S1130D70EDE2F5E0848581508487809139058130E6
S1130D8091F4EDE2F5E0848710828183138212826C
S1130D901482168215821782118610861386158690
S1130DA01686108A17860F900F900F900F90DF9180
S1130DB0CF91FF91EF91BF91AF919F918F917F91CF
S1130DC06F915F914F913F912F910F900BBE0F90B8
S1130DD00FBE0F901F9018950F931F93CF93F89405
S1130DE0E1E6F0E080E880831082B1D36BDD34D398
S1130DF03BDE71D957DE1092D6041092D50484E1FB
S1130E00E1ECF4E0DF011D928A95E9F710922C05DC
S1130E101092DB041092DA041092D9041092BE04EA
S1130E201092D80410922905109228051092BB0440
S1130E301092BA041092C0041092BF041092DD0400
S1130E401092DC0410922B0510922A051092BD0416
S1130E501092BC041092DF041092DE0420E044E0FF
S1130E606FEF89EE9DEFA8DCC1DC9093BB04809307
S1130E70BA049093BD048093BC04CAEF08EE1DEF3E
S1130E8020E044E06C2FC80197DCBC018091BA04D7
S1130E909091BB04BFDC9093C0048093BF040150C5
S1130EA01109C150CB3C61F705E010E020E045E0BA
S1130EB06AEF88EE9DEF80DCBC018091BA049091CA
S1130EC0BB04A8DC0150110989F720E044E062ED7D
S1130ED088E99FEF71DC8ADCE091BA04F091BB04ED
S1130EE0958384839093DF048093DE0460E070E054
S1130EF0DDDC86E691E043D3CF911F910F910895F5
S1130F003F924F925F926F927F928F929F92AF9295
S1130F10BF92CF92DF92EF92FF920F931F93CF93E2
S1130F20DF93CDB7DEB7CA5FD1090FB6F894DEBF41
S1130F300FBECDBFF82EE92EF89480E090E09EDD40
S1130F400091BC041091BD04EF92FF928CE791E0F4
S1130F509F938F93CE0101967C019F938F933ED4F0
S1130F60C7010DD38091BA049091BB04A5DC2091F4
S1130F70D9043091DA049F938F933F932F9387E999
S1130F8091E09F938F93FF92EF9228D4C701F7D2F9
S1130F900FB6F894DEBF0FBECDBFE12CF12C0F2E9F
S1130FA0F6EBAF2EF1E0BF2EF02D6E01F7E9CF0E78
S1130FB0D11C2DC08FEFE81AF80AC8017DDC682E19
S1130FC0592EC8016EDC782EC80146DC882EC80173
S1130FD04EDC982EC80145DC5F926F921F927F927F
S1130FE01F928F921F929F929F938F93FF92EF92E3
S1130FF0BF92AF92DF92CF92F1D3C601C0D2C801A3
S113100005DC8C010FB6F894DEBF0FBECDBFC8015E
S113101023DC853079F60F2EF0EECF2EF4E0DF2EB0
S1131020F02D00E010E00F2EF4EFAF2EF1E0BF2E14
S1131030F02D7E01F7E9EF0EF11CF60180851F9279
S11310408F931F930F93BF92AF92FF92EF92C6D3E9
S1131050C70195D20F5F1F4FF9E0CF0ED11C0FB619
S1131060F894DEBF0FBECDBF0730110531F7809174
S11310702A0590912B05F5DB482E392E60902A0520
S113108050902B058091DC049091DD04F0DB782EE8
S11310909090DC048090DD040091BF041091C004A2
S11310A0F801B280A380D090BC04C090BD04F0903D
S11310B0BA04E090BB048F2D9E2DBDDB3F924F926E
S11310C05F926F921F927F928F929F92AF92BF9284
S11310D0CF92DF921F930F93EF92FF921F928F9301
S11310E08BE092E09F938F938E010B591F4F1F93B8
S11310F00F9374D3C80143D20FB6F894DEBF0FBE6A
S1131100CDBF89B18370E9F784E291E038D21092BF
S11311102C0580E890E0B2DC7894C650DF4F0FB61F
S1131120F894DEBF0FBECDBFDF91CF911F910F9119
S1131130FF90EF90DF90CF90BF90AF909F908F90F3
S11311407F906F905F904F903F900895FF920F9320
S11311501F93CF93DF93CDB7DEB7CA56D1090FB62D
S1131160F894DEBF0FBECDBFFE01319686E0DF01ED
S11311701D928A95E9F70091BC041091BD04F8947E
S11311801BB818B880E090E079DC81E992E0F7D1EF
S1131190F12C0FC0F394C8015FDBE1E0F0E0EC0F49
S11311A0FD1FE80FF11D80818F5F8083C8012EDB56
S11311B08C01C80176DB833069F38D811F928F9394
S11311C08B811F928F938C811F928F9389811F92A1
S11311D08F938A811F928F931F92FF9286EB92E0E6
S11311E09F938F938E01095F1F4F1F930F93F6D226
S11311F0C801C5D10FB6F894DEBF0FBECDBFC65926
S1131200DF4F0FB6F894DEBF0FBECDBFDF91CF9195
S11312101F910F91FF9008950F931F93CF93DF9326
S1131220CDB7DEB7E2970FB6F894DEBF0FBECDBFE1
S1131230F89480E090E022DC8CE993E0A0D1E09186
S1131240BA04F091BB048481958111DB182FE091DD
S1131250BA04F091BB048481958103DB1F921F9330
S11312609F938F9383EC93E09F938F938E010F5FF3
S11312701F4F1F930F93B2D2C80181D185EF93E022
S11312807ED10FB6F894DEBF0FBECDBF89B1837097
S1131290E9F784E291E073D180E890E0EFDB10920B
S11312A0D8047894E2960FB6F894DEBF0FBECDBF93
S11312B0DF91CF911F910F9108950F931F93CF93B7
S11312C0DF93CDB7DEB7C456D1090FB6F894DEBFAD
S11312D00FBECDBFF89480E090E0D0DB84E394E0CF
S11312E04ED184E394E04BD184E394E048D18091DF
S11312F0DE049091DF04E0DA182F092F8091BA04FC
S11313009091BB04D9DA4091280550912905209188
S1131310D9043091DA040F931F939F938F935F93B3
S11313204F933F932F938DE494E09F938F938E017B
S11313300F5F1F4F1F930F9351D2C80120D18FE825
S113134094E01DD10FB6F894DEBF0FBECDBF89B1B6
S11313508370E9F784E291E012D180E890E08EDBBB
S11313601092BE047894CC59DF4F0FB6F894DEBFC8
S11313700FBECDBFDF91CF911F910F9108951F92A2
S11313800F920FB60F9211240BB60F92EF92FF92A9
S11313900F931F932F933F934F935F936F937F9379
S11313A08F939F93AF93BF93CF93DF93EF93FF9369
S11313B08091B8049091B90401969093B9048093F4
S11313C0B804C0EED4E00F2EF8E2EF2EF5E0FF2EC5
S11313D0F02D8E01EC81FD81309709F18091B804E4
S11313E09091B9042881398128173907C1F4888577
S11313F0823019F48E819F810995D80112968D91BE
S11314009C911397009741F02D913C911197820F75
S1131410931F8D939C9303C0F8011582148229961F
S1131420CE15DF05B1F6FF91EF91DF91CF91BF911A
S1131430AF919F918F917F916F915F914F913F9168
S11314402F911F910F91FF90EF900F900BBE0F9073
S11314500FBE0F901F901895109285001092840073
S113146088E498E09093890080938800109280002B
S113147089E08093810082E080936F0088E4E0EE4D
S1131480F4E0DF011D928A95E9F708950F931F9305
S1131490CF93DF938B016091E4047091E504672B93
S11314A009F449C0E0EEF4E0A1E0B0E0C585D685DA
S11314B0CD2B09F442C011963996A830B105B1F785
S11314C080E090E03FC0FD01EE0FFF1FEE0FFF1F15
S11314D0EE0FFF1FEA0FFB1FE052FB4F9383828343
S11314E00DC0FD01EE0FFF1FEE0FFF1FEE0FFF1FDC
S11314F0EA0FFB1FE052FB4F13821282FD01EE0F35
S1131500FF1FEE0FFF1FEE0FFF1FEA0FFB1FE0523E
S1131510FB4F55834483378326832091B80430914D
S1131520B904820F931F9183808382E080877FBFF9
S11315308A2F9B2F07C0A0E0B0E07FB7F894012B5F
S113154011F6CFCFDF91CF911F910F910895109293
S1131550CD0083E38093CC00E9ECF0E080818861E6
S11315608083EAECF0E08081866080830895E8EC73
S1131570F0E0908195FFFDCF8093CE000895CF9346
S1131580DF93EC018881882329F02196F0DF89918B
S11315908111FCCFDF91CF9108950F931F93CF93C7
S11315A0DF938230910510F482E090E0E0914005F1
S11315B0F091410520E030E0A0E0B0E0309719F16F
S11315C0408151810281138148175907C8F084175B
S11315D0950769F4109731F012960C9312971396AD
S11315E01C9327C0009340051093410522C0211588
S11315F0310519F04217530718F49A01BD01EF01A0
S1131600DF01F801DBCF21153105F9F0281B390B77
S11316102430310580F48A819B816115710521F0A4
S1131620FB019383828304C090934105809340051A
S1131630FE01329644C0FE01E20FF31F81939193A1
S113164022503109398328833AC020913E053091D4
S11316503F05232B41F42091020130910301309383
S11316603F0520933E052091000130910101211591
S1131670310541F42DB73EB7409104015091050165
S1131680241B350BE0913E05F0913F05E217F3076B
S1131690A0F42E1B3F0B2817390778F0AC014E5FDE
S11316A05F4F2417350748F04E0F5F1F50933F05D7
S11316B040933E058193919302C0E0E0F0E0CF01B6
S11316C0DF91CF911F910F910895CF93DF930097EE
S11316D009F481C0FC01329713821282A091400563
S11316E0B0914105109781F420813181820F931FBD
S11316F020913E0530913F052817390751F5F093A5
S11317003F05E0933E0567C0ED0120E030E0CE17D1
S1131710DF0740F44A815B819E0141155105F1F0D8
S1131720EA01F5CFD383C28340815181840F951F91
S1131730C817D90759F488819981840F951F029697
S1131740918380838A819B819383828321153105D0
S113175029F4F0934105E09340053DC0E901FB8382
S1131760EA8349915991C40FD51FEC17FD0761F421
S113177080819181840F951F0296E9019983888362
S1131780828193819B838A83E0E0F0E012968D91BD
S11317909C911397009719F0FD01DC01F7CF8D910F
S11317A09C9111979D012E5F3F4F820F931F2091B3
S11317B03E0530913F052817390769F4309729F41D
S11317C0109241051092400502C013821282B09318
S11317D03F05A0933E05DF91CF9108950F931F938A
S11317E0CF93DF93CDB7DEB72E970FB6F894DEBF55
S11317F00FBECDBF0D891E8986E08C831A830983B1
S11318008FEF9FE79E838D83AE01475E5F4F6F89A5
S1131810788DCE01019610D0EF81F885E00FF11F8D
S113182010822E960FB6F894DEBF0FBECDBFDF91A7
S1131830CF911F910F9108952F923F924F925F92F3
S11318406F927F928F929F92AF92BF92CF92DF92CC
S1131850EF92FF920F931F93CF93DF93CDB7DEB731
S11318602B970FB6F894DEBF0FBECDBF6C017B0182
S11318708A01FC0117821682838181FFBFC1CE01D8
S113188001963C01F6019381F70193FD859193FF45
S113189081917F01882309F4ADC1853239F493FD28
S11318A0859193FF81917F01853221F4B60190E007
S11318B0D6D1E8CF912C212C312CFFE1F315D8F0AF
S11318C08B3279F038F4803279F08332A1F4232D0D
S11318D020611DC08D3261F0803369F4232D2160B5
S11318E016C0832D8260382EE32DE4603E2E2AC07C
S11318F0F32DF8601DC037FC2DC020ED280F2A30D1
S113190040F08E32B9F436FC75C1232D2064322E9A
S113191019C036FE06C08AE0989E200D1124922E2E
S113192011C0EAE02E9E200D1124222EF32DF06228
S11319303F2E08C08C3621F4832D8068382E02C0D7
S1131940883641F4F70193FD859193FF81917F01DE
S11319508111B3CF982F9F7D9554933028F40C5F59
S11319601F4F9FE399830DC0833631F0833771F0A5
S1131970833509F055C020C0F801808189830E5F4A
S11319801F4F88248394912C530112C02801F2E044
S11319904F0E511CF801A080B18036FE03C0692DA2
S11319A070E002C06FEF7FEFC5014ED14C018201A0
S11319B0F32DFF773F2E15C0280122E0420E511C63
S11319C0F801A080B18036FE03C0692D70E002C02A
S11319D06FEF7FEFC5012DD14C01F32DF0683F2E41
S11319E0820133FC19C0822D90E088169906A0F478
S11319F0B60180E290E033D12A94F5CFF50137FCAB
S1131A00859137FE81915F01B60190E028D12110C4
S1131A102A9421E0821A91088114910479F7E1C093
S1131A20843611F0893639F5F80137FE07C0608134
S1131A307181828193810C5F1F4F08C06081718125
S1131A40072E000C880B990B0E5F1F4FF32DFF76AA
S1131A503F2E97FF09C090958095709561957F4FB3
S1131A608F4F9F4FF0683F2E2AE030E0A30133D11F
S1131A70882E861844C0853731F4232D2F7EB22E4C
S1131A802AE030E025C0932D997FB92E8F36C1F01E
S1131A9018F4883579F0AEC0803719F0883721F012
S1131AA0A9C0E92FE061BE2EB4FE0DC0FB2DF46089
S1131AB0BF2E09C034FE0AC0292F2660B22E06C0EC
S1131AC028E030E005C020E130E002C020E132E04F
S1131AD0F801B7FE07C060817181828193810C5F38
S1131AE01F4F06C06081718180E090E00E5F1F4F40
S1131AF0A301F1D0882E8618FB2DFF773F2E36FEEA
S1131B000DC0232D2E7FA22E891458F434FE0BC051
S1131B1032FC09C0832D8E7EA82E05C0B82CA32CC0
S1131B2003C0B82C01C0B92CA4FE0FC0FE01E80DFF
S1131B30F11D8081803321F49A2D997EA92E09C04C
S1131B40A2FE06C0B394B39404C08A2D867809F02B
S1131B50B394A3FC10C0A0FE06C0B21480F4280CF9
S1131B60922C9B180DC0B21458F4B60180E290E098
S1131B7076D0B394F8CFB21418F42B1802C0982C72
S1131B80212CA4FE0FC0B60180E390E068D0A2FE31
S1131B9016C0A1FC03C088E790E002C088E590E08D
S1131BA0B6010CC08A2D867851F0A1FE02C08BE2EA
S1131BB001C080E2A7FC8DE2B60190E050D0891408
S1131BC030F4B60180E390E04AD09A94F8CF8A9436
S1131BD0F301E80DF11D8081B60190E040D0811041
S1131BE0F6CF222009F44ECEB60180E290E037D041
S1131BF02A94F7CFF6018681978102C08FEF9FEF79
S1131C002B960FB6F894DEBF0FBECDBFDF91CF91F8
S1131C101F910F91FF90EF90DF90CF90BF90AF9006
S1131C209F908F907F906F905F904F903F902F90F8
S1131C300895FC010590615070400110D8F780951B
S1131C4090958E0F9F1F0895FC0161507040019084
S1131C500110D8F7809590958E0F9F1F08950F93CC
S1131C601F93CF93DF93FB01238121FD03C08FEFEB
S1131C709FEF2CC022FF16C04681578124813581F5
S1131C804217530744F4A081B1819D012F5F3F4F58
S1131C90318320838C93268137812F5F3F4F378395
S1131CA0268314C08B01EC01FB010084F185E02D37
S1131CB00995892BE1F6D80116968D919C91179779
S1131CC0019617969C938E931697CE01DF91CF9130
S1131CD01F910F910895FA01AA27283051F120315C
S1131CE081F1E8946F936E7F6E5F7F4F8F4F9F4FAC
S1131CF0AF4FB1E03ED0B4E03CD0670F781F891FEE
S1131D009A1FA11D680F791F8A1F911DA11D6A0FBB
S1131D10711D811D911DA11D20D009F468943F916E
S1131D202AE0269F11243019305D3193DEF6CF016D
S1131D300895462F4770405D4193B3E00FD0C9F733
S1131D40F6CF462F4F70405D4A3318F0495D31FDA0
S1131D504052419302D0A9F7EACFB4E0A6959795F3
S1131D60879577956795BA95C9F7009761057105C9
S1131D7008959B01AC010A2E069457954795379513
S1131D802795BA95C9F7620F731F841F951FA01D6D
S1091D900895F894FFCF52
S1131D960000420520000101016400329664646E6D
S1131DA6947D665643405741544348444F475F54D5
S1131DB661736B005374617274696E67205379732F
S1131DC674656D210D0A0053797374656D2052652F
S1131DD66164792E2E2E0D0A0050617573652052AA
S1131DE66571756573746564210D0A000319070529
S1131DF664004C04200353797374656D20496E693D
S1131E067469616C697A65642E2E2E005379737435
S1131E16656D205061757365204D657373616765E3
S1131E263A2025730D0A004D6F746F72205469634E
S1131E366B3A2025752C20484541445469636B3A16
S1131E462025750D0A004974656D3A2025642C20F9
S1131E565265666C3A2025752C204D61673A20251B
S1131E66752C20436C6173732025752C2053746183
S1131E767475733A2025752C205469636B3A2025B2
S1131E86750D0A000D0A54696D6572202564205388
S1131E96746174653A2025750D0A0025750D0A4886
S1131EA64541443A2025782C205441494C3A202572
S1131EB6782C2046524F4E543A2025782C20454EF5
S1131EC6443A2025782C205354414745313A20255D
S1131ED6782C204D61673A20257520535441474597
S1131EE6323A2025782C205265666C3A2025750DE9
S1131EF60A004D6F746F72205469636B3A2025751E
S1131F060D0A004974656D3A2025642C20526566D5
S1131F166C3A2025752C204D61673A2025750D0AEB
S1131F26000D0A0D0A0D0A0D0A0D0A0D0A537973DE
S1131F3674656D2052616D70696E6720446F776EAB
S1131F462E2E2E0D0A002575204974656D732053B7
S1131F566F72746564210D0A0D0A426C61636B3AF3
S1131F662025752F31320957686974653A2025751D
S1131F762F313209537465656C3A2025752F313239
S1131F8609416C756D696E756D3A2025752F313270
S1131F9609556E6B6E6F776E204974656D733A20C2
S1131FA625750D0A000D0A536F72746564206974F1
S1131FB6656D732E2E2E0D0A0D0A000D0A0D0A49A3
S1131FC674656D7320526561647920666F7220733F
S1131FD66F7274696E672E2E2E200D0A0D0A004943
S1131FE674656D2025643A205265666C6563746178
S1131FF66E63653A2025752C204D61676E6574699C
S1132006633A2025750D0A000D0A0D0A4974656D9B
S11320167320726561647920666F72207363616EE2
S11320266E696E672E2E2E0D0A0D0A000D0A0D0A14
S11320360D0A554E434C415353494649454420499C
S113204654454D2044455445435445440D0A0D0A10
S11320560D0A004974656D2073746174697374693B
S113206663733A0D0A5265666C656374616E6365E3
S11320763A2025752C204D61676E657469633A2094
S113208625750D0A000D0A0D0A0D0A506C6561735B
S1132096652072656D6F7665206974656D20616E65
S11320A664207075736820626F7468206275747436
S11320B66F6E7320746F20726573756D650D0A0DEE
S11320C60A0D0A000D0A0D0A0D0A4954454D204D04
S11320D6495353494E470D0A0D0A0D0A00537973A5
S11320E674656D205469636B3A2025752C204C6108
S11320F67374205469636B3A2025752C20486561F6
S113210664205469636B3A202575205072657620E5
S11321165469636B3A2025750D0A0D0A0D0A0050A1
S11321267265737320626F746820627574746F6E5F
S11321367320746F20726573756D652E2E2E0D0ACD
S1052146000093
S9030000FC
