S00F00004D4543483435382E7372656357
S11300004BC0000067C0000065C0000063C0000072
S113001061C000005FC000005DC000005BC0000064
S113002059C0000057C0000055C0000053C0000074
S113003051C0000094C400004DC000004BC000003B
S113004049C00000D8C6000045C0000043C00000FD
S113005041C000003FC000003DC000003BC00000A4
S113006039C0000037C0000035C0000033C00000B4
S113007031C0000046C000002DC000002BC00000AD
S113008029C0000027C0000025C0000023C00000D4
S113009021C000001FC0000011241FBECFEFD0E21A
S11300A0DEBFCDBF12E0A0E0B1E0EEE0F8E100E099
S11300B00BBF02C007900D92A033B107D9F722E01D
S11300C0A0E3B2E001C01D92A13BB207E1F7C8D2A0
S11300D00C94050C93C3EBE7F0E080818068808387
S11300E0EAE7F0E080818068808380818860808393
S11300F0ACE7B0E08C9181648C93808180648083D0
S113010008951F920F920FB60F9211240BB60F92FF
S11301102F933F938F939F93EF93FF93809150027C
S1130120909151020697D8F4809150029091510217
S11301309C012F5F3F4F3093510220935002209136
S1130140780030917900880F991FFC01E45CFD4F21
S113015031832083EAE7F0E08081806480838091AA
S1130160500290915102069719F482E0809367023D
S1130170FF91EF919F918F913F912F910F900BBE23
S11301800F900FBE0F901F901895679916C080911D
S11301900E01882381F08091540290915502892B9D
S11301A041F48091360290913702909355028093E6
S11301B054021092530210920E0166990EC080915F
S11301C00D01882341F062E080919E0290919F028C
S11301D032D21092530210920D0165990BC0809196
S11301E00C01882329F082E0809379021092530253
S11301F010920C01679B0CC080910E01811105C007
S113020082E08093700280939D0281E080930E01CE
S1130210669B20C080910D01811119C080919E02BE
S113022090919F02009749F4809136029091370291
S113023090939F0280939E0205C0B7D190939F0232
S113024080939E02EAE7F0E080818064808381E00D
S113025080930D01659B03C081E080930C01089598
S1130260CF92DF92EF92FF92CF93ECE3F2E0A08182
S1130270B18160817181C12CD12C760180E090E044
S11302804FB7F894FC01EE0FFF1FE45CFD4F208193
S11302903181C20ED31EE11CF11C2081318126174D
S11302A0370738F4FC01EE0FFF1FE45CFD4F60815B
S11302B07181FC01EE0FFF1FE45CFD4F2081318151
S11302C0A217B30708F04AC0FC01EE0FFF1FE45C5D
S11302D0FD4FA081B18142C08FB7F894CA1ADB0ADE
S11302E0E108F108C61AD70AE108F108F694E79480
S11302F0D794C794F694E794D794C7948FBFCFB795
S1130300F894D701C6010B97A109B1098D3D93401B
S1130310A105B105A0F480919E0290919F0270D135
S1130320A0E0B0E0C816D906EA06FB0640F48091C6
S11303309E0290919F02009711F0B6016CD1CFBF3D
S1130340109251021092500210926702669B0DC0E7
S1130350EAE7F0E080818064808307C04FBF0196A4
S11303608630910509F08CCFB7CFCF91FF90EF90F5
S1130370DF90CF90089580915202882329F08091D4
S113038033028F5F8093330264991AC061E08091D5
S11303905402909155024FD161E0809154029091A2
S11303A055023FD18091540290915502FED0909312
S11303B055028093540210927002109233020895F1
S11303C0809133028F31C8F061E0809154029091A2
S11303D0550231D160E0809154029091550221D1AF
S11303E08091540290915502E0D0909355028093ED
S11303F0540210927002109233020895CF938091A8
S1130400320281116EC0809131028F5F809331027C
S1130410E1EAF2E085819681878103C080E890E07B
S1130420FFD1C091A5028091360290913702E3D0AA
S1130430E82FF0E0EA5FFE4F8081C81349C080E8EE
S113044090E0EED180913102853128F4809132021E
S1130450882309F440C081E0809332021092310273
S11304608091360290913702C6D0C82FE0913602AF
S1130470F091370282819381BED0C81302C01092DA
S1130480320263E08091360290913702D4D0809199
S113049036029091370289D09093370280933602C6
S11304A0FC0182819381A7D0E82FF0E0EA5FFE4F40
S11304B0C08180913602909137029DD0E82FF0E000
S11304C0EA5FFE4F80816C2F35D21092790203C00F
S11304D080E090E0A5D180913602909137028BD0D4
S11304E00AC0E1EAF2E0858196819781891B8F3009
S11304F008F097CF93CFCF91089589B18370C9F055
S1130500809130028F5F80933002833090F089B104
S1130510837019F410923002089589B18370813088
S113052029F48093A00210923002089589B11092A8
S11305303002089580915302823018F08BE191E0EB
S11305404FD3809153028F5F8093530208959BB1E0
S113055080EA89278BB908950895EF92FF921F933B
S1130560CF93DF937C01162FD42FC22F85E090E028
S113057050D5FC01F182E0821283D383C483DF91DE
S1130580CF911F91FF90EF900895CF93DF93EC01EB
S113059086E090E03ED5FC01D183C08315821482AD
S11305A013821282DF91CF910895FC01828193819D
S11305B00895CF93DF93EC01CB0101C0E9012A81B7
S11305C03B8121153105D1F7E0DF9B838A83DF91DD
S11305D0CF910895DC011296ED91FC911397309719
S11305E041F081E08F5F0280F381E02D3097D1F7F5
S11305F0089581E00895DC01ED91FC9183810895D3
S1130600DC01ED91FC91808191810895DC01ED91F3
S1130610FC9182810895DC01ED91FC9171836083EA
S11306200895DC01ED91FC9162830895DC01ED9164
S1130630FC9163830895DC01ED91FC91648308953A
S1130640DC01ED91FC91848108958FEF81B984B927
S113065087B980EF8AB91DB810BA80E090E0089598
S113066053D289B18370E9F789E291E0C4D4F89454
S113067020E030E045EC50E061E070E081E090E0A3
S113068041D4C6E5D2E012E0188720E030E040E330
S113069051E061E070E081E090E034D4198A20E018
S11306A030E04BEB51E061E070E081E090E02AD46F
S11306B01A8E20E030E04EEF51E061E070E081E01E
S11306C090E020D41BA220E030E04CEA52E060E04D
S11306D070E081E090E016D41CA620E030E04DE705
S11306E052E061E070E084E690E00CD41DAB20E0C1
S11306F030E047EA52E061E070E080ED97E002D438
S11307001EAF20E030E04AE952E061E070E088E8A2
S113071093E1F8D310929D028CE391E06CD480E8CD
S113072090E07ED07894E12CF12CCC24C394D12C8D
S11307308091A002882319F08EE491E051D2C091F7
S11307403602D0913702209799F3209709F44FC0CD
S1130750CE0151DF843009F04AC0CE0171DF82300E
S113076009F045C0CE014CDF8C01CE014FDF882358
S113077091F0C80144978135910520F462E0CE01DF
S113078055DF1AC00B52114000361140A8F463E043
S1130790CE014CDF11C0C801865793408E9720F4D8
S11307A061E0CE0143DF08C00B5313400033110551
S11307B018F460E0CE013ADFE114F104C1F4809151
S11307C036029091370217DFE82FF0E0E15FFE4F29
S11307D0108180913602909137020DDFE82FF0E00E
S11307E0E15FFE4F8081612FA5D0EC2CFD2CCE0162
S11307F0DCDEEC01892B09F0A8CF9ACF1F920F926F
S11308000FB60F9211248AEA88B9FECF84B58368A3
S113081084BD85B5836085BD8091530187BD0895EE
S11308209C019FB7F8948091530187BD232B31F02D
S113083081E08093520281EF85B904C01092520284
S113084080EF85B99FBF0895F894E1EAF2E0108241
S113085081E08183138212821482178210861286A9
S1130860138688EC90E09683858380E382B984E9DB
S11308708093B300E0EBF0E0808182608083E0E766
S1130880F0E0808182608083E1EBF0E0808187602A
S113089080837894089590E0861B910952F0853600
S11308A091058CF024E630E0A901481B590BCA01DC
S11308B008958C395FEF950734F42CE93FEFA901D3
S11308C0481B590BCA010895CF93DF93C1EAD2E0C4
S11308D06C818A819B81DFDF9E838D836A817B812A
S11308E08885D9DF2D813E81332314F428E001C0AB
S11308F024E0E1EAF2E0218345815681849F90015E
S1130900859F300D949F300D1124832F8095881F6F
S11309108827881F81878581968199231CF4919566
S113092081959109E1EAF2E0968385831782DF914C
S1130930CF910895CF93DF93F89490E0C1EAD2E089
S11309409B838A836887C0DFEB85F0E0EB5EFE4F14
S113095080818093B3007894DF91CF9108951F92A2
S11309600F920FB60F9211240BB60F922F933F9351
S11309708F939F93AF93BF93EF93FF93CF93DF93A3
S113098000D000D0CDB7DEB786E390E0A0E0B0E0C1
S11309909EE2ADE2B5E389839A83AB83BC83E1EA4B
S11309A0F2E087812581368190E0821793070CF06D
S11309B05AC08091A202843051F48091A102E1E0F6
S11309C0F0E0EC0FFD1FE80FF11D80810DC0809158
S11309D0A102E3E0F0E0E81BF10981E090E08C0F74
S11309E09D1FE80FF91F808182B98091A102833095
S11309F021F08091A1028F5F01C080E0E1EAF2E082
S1130A00808387818F5F8783858196812781821B7D
S1130A109109069774F4E091AC02F0E0EB5EFE4FAE
S1130A208081843930F4E1EAF2E083858150838760
S1130A3011C08091A802863068F0E091AC02F0E029
S1130A40EB5EFE4F8081813428F0E1EAF2E0838599
S1130A508F5F8387E091AC02F0E0EB5EFE4F808114
S1130A608093B30029C0E1EAF2E0878125813681D1
S1130A7090E08217930701F58281938184838185B5
S1130A80882319F08091AC0201C080E0A1EAB2E0B1
S1130A901B968C931B971B96EC911B97F0E0EB5ED7
S1130AA0FE4F80818093B30019968C91811102C00E
S1130AB082B101C082B182B98091AB0281110FC0B1
S1130AC063990DC0E1EAF2E081E0828710828183BC
S1130AD013821282148216821582178210860F9056
S1130AE00F900F900F90DF91CF91FF91EF91BF91F5
S1130AF0AF919F918F913F912F910F900BBE0F90CB
S1130B000FBE0F901F9018950F931F93CF93F894D7
S1130B10E1E6F0E080E88083108255D296DDD8D1FA
S1130B2075DED9DA91DE109251021092500284E1FE
S1130B30ECE3F2E0DF011D928A95E9F710923702A7
S1130B401092360210923B0210923A021092550211
S1130B501092540210929F0210929E021092390237
S1130B601092380220E044E06FEF89EE9DEFF5DC4F
S1130B700CDD909337028093360290933902809370
S1130B803802CAEF08EE1DEF20E044E06C2FC801E4
S1130B90E4DCBC0180913602909137020ADD909327
S1130BA03B0280933A0201501109C150CB3C61F7DA
S1130BB005E010E020E045E06AEF88EE9DEFCDDC33
S1130BC0BC018091360290913702F3DC0150110987
S1130BD089F784E591E00FD2CF911F910F91089589
S1130BE03F924F925F926F927F928F929F92AF92B9
S1130BF0BF92CF92DF92EF92FF920F931F93CF9306
S1130C00DF93CDB7DEB7C85CD1090FB6F894DEBF69
S1130C100FBECDBF982E892EF89480E090E000DEC0
S1130C2000913802109139028F929F928AE691E0E6
S1130C309F938F93CE0101967C019F938F930AD348
S1130C40C701D9D10F900F900F900F900F900F9074
S1130C50E12CF12C0F2EF5E8AF2EF1E0BF2EF02D94
S1130C606E0197E9C90ED11C27C0EFEFEE1AFE0AF8
S1130C70C801E6DC582EC801BEDC682EC801C6DCFB
S1130C80782EC801BDDC1F925F921F926F921F9253
S1130C907F929F938F93FF92EF92BF92AF92DF92D6
S1130CA0CF92D8D2C601A7D1C8017FDC8C010FB680
S1130CB0F894DEBF0FBECDBFC8019DDC8530A9F618
S1130CC00F2EF6E5CF2EF2E0DF2EF02D00E010E03F
S1130CD00F2EF9EBAF2EF1E0BF2EF02D7E0197E938
S1130CE0E90EF11CF60180851F928F931F930F93D9
S1130CF08F929F92BF92AF92FF92EF92ABD2C701B5
S1130D007AD10F5F1F4FF9E0CF0ED11C0FB6F894C4
S1130D10DEBF0FBECDBF0730110521F780919E02C3
S1130D2090919F026DDC482E392E60909E02509067
S1130D309F02809154029091550268DC782E909025
S1130D4054028090550200913A0210913B02F8013E
S1130D50B280A380D0903802C0903902F09036025D
S1130D60E09037028F2D9E2D35DC3F924F925F929B
S1130D706F921F927F928F929F92AF92BF92CF9267
S1130D80DF921F930F93EF92FF921F928F9388ED40
S1130D9091E09F938F938E010B591F4F1F930F93D5
S1130DA059D2C80128D10FB6F894DEBF0FBECDBF0B
S1130DB089B18370E9F789E291E01DD180E890E080
S1130DC02FDD7894C853DF4F0FB6F894DEBF0FBE03
S1130DD0CDBFDF91CF911F910F91FF90EF90DF90E6
S1130DE0CF90BF90AF909F908F907F906F905F90C7
S1130DF04F903F9008951F920F920FB60F921124B7
S1130E000BB60F92EF92FF920F931F932F933F9382
S1130E104F935F936F937F938F939F93AF93BF93FE
S1130E20CF93DF93EF93FF93809134029091350237
S1130E3001969093350280933402C6E5D2E00F2EDA
S1130E40FEE9EF2EF2E0FF2EF02D8E01EC81FD8104
S1130E50309709F1809134029091350228813981CB
S1130E6028173907C1F48885823019F48E819F814F
S1130E700995D80112968D919C911397009741F092
S1130E802D913C911197820F931F8D939C9303C0D6
S1130E90F801158214822996CE15DF05B1F6FF916B
S1130EA0EF91DF91CF91BF91AF919F918F917F91FE
S1130EB06F915F914F913F912F911F910F91FF90EF
S1130EC0EF900F900BBE0F900FBE0F901F901895D0
S1130ED0109285001092840088E498E09093890031
S1130EE0809388001092800089E08093810082E0E2
S1130EF080936F0088E4E6E5F2E0DF011D928A95B5
S1130F00E9F708950F931F93CF93DF938B016091BB
S1130F105A0270915B02672B09F449C0E6E5F2E0DE
S1130F20A1E0B0E0C585D685CD2B09F442C0119669
S1130F303996A830B105B1F780E090E03FC0FD01DB
S1130F40EE0FFF1FEE0FFF1FEE0FFF1FEA0FFB1F39
S1130F50EA5AFD4F938382830DC0FD01EE0FFF1FFC
S1130F60EE0FFF1FEE0FFF1FEA0FFB1FEA5AFD4FA4
S1130F7013821282FD01EE0FFF1FEE0FFF1FEE0F13
S1130F80FF1FEA0FFB1FEA5AFD4F55834483378343
S1130F9026832091340230913502820F931F91836E
S1130FA0808382E080877FBF8A2F9B2F07C0A0E0C9
S1130FB0B0E07FB7F894012B11F6CFCFDF91CF913A
S1130FC01F910F9108951092CD0083E38093CC007C
S1130FD0E9ECF0E0808188618083EAECF0E08081D4
S1130FE0866080830895E8ECF0E0908195FFFDCF62
S1130FF08093CE000895CF93DF93EC0188818823FA
S113100029F02196F0DF89918111FCCFDF91CF91F6
S113101008950F931F93CF93DF938230910510F4BB
S113102082E090E0E091AF02F091B00220E030E085
S1131030A0E0B0E0309719F1408151810281138121
S113104048175907C8F08417950769F4109731F0C9
S113105012960C93129713961C9327C00093AF0219
S11310601093B00222C02115310519F0421753071D
S113107018F49A01BD01EF01DF01F801DBCF21155E
S11310803105F9F0281B390B2430310580F48A81AD
S11310909B816115710521F0FB019383828304C058
S11310A09093B0028093AF02FE01329644C0FE01D9
S11310B0E20FF31F819391932250310939832883DE
S11310C03AC02091AD023091AE02232B41F420911D
S11310D00201309103013093AE022093AD022091BE
S11310E00001309101012115310541F42DB73EB7BE
S11310F04091040150910501241B350BE091AD0290
S1131100F091AE02E217F307A0F42E1B3F0B281751
S1131110390778F0AC014E5F5F4F2417350748F06C
S11311204E0F5F1F5093AE024093AD028193919393
S113113002C0E0E0F0E0CF01DF91CF911F910F9169
S11311400895CF93DF93009709F481C0FC0132978F
S113115013821282A091AF02B091B002109781F471
S113116020813181820F931F2091AD023091AE0214
S11311702817390751F5F093AE02E093AD0267C02A
S1131180ED0120E030E0CE17DF0740F44A815B81B7
S11311909E0141155105F1F0EA01F5CFD383C283D5
S11311A040815181840F951FC817D90759F488814C
S11311B09981840F951F0296918380838A819B81F4
S11311C0938382832115310529F4F093B002E093CF
S11311D0AF023DC0E901FB83EA8349915991C40FF1
S11311E0D51FEC17FD0761F480819181840F951F51
S11311F00296E90199838883828193819B838A8300
S1131200E0E0F0E012968D919C911397009719F00D
S1131210FD01DC01F7CF8D919C9111979D012E5F0B
S11312203F4F820F931F2091AD023091AE022817D9
S1131230390769F4309729F41092B0021092AF0282
S113124002C013821282B093AE02A093AD02DF916A
S1131250CF9108950F931F93CF93DF93CDB7DEB74C
S11312602E970FB6F894DEBF0FBECDBF0D891E8931
S113127086E08C831A8309838FEF9FE79E838D8397
S1131280AE01475E5F4F6F89788DCE01019610D015
S1131290EF81F885E00FF11F10822E960FB6F894B7
S11312A0DEBF0FBECDBFDF91CF911F910F91089587
S11312B02F923F924F925F926F927F928F929F9262
S11312C0AF92BF92CF92DF92EF92FF920F931F9350
S11312D0CF93DF93CDB7DEB72B970FB6F894DEBF6D
S11312E00FBECDBF6C017B018A01FC0117821682FF
S11312F0838181FFBFC1CE0101963C01F601938138
S1131300F70193FD859193FF81917F01882309F46F
S1131310ADC1853239F493FD859193FF81917F01AD
S1131320853221F4B60190E0D6D1E8CF912C212C5E
S1131330312CFFE1F315D8F08B3279F038F4803298
S113134079F08332A1F4232D20611DC08D3261F028
S1131350803369F4232D216016C0832D8260382EDA
S1131360E32DE4603E2E2AC0F32DF8601DC037FC47
S11313702DC020ED280F2A3040F08E32B9F436FC0F
S113138075C1232D2064322E19C036FE06C08AE0B2
S1131390989E200D1124922E11C0EAE02E9E200D5D
S11313A01124222EF32DF0623F2E08C08C3621F436
S11313B0832D8068382E02C0883641F4F70193FDEE
S11313C0859193FF81917F018111B3CF982F9F7DE8
S11313D09554933028F40C5F1F4F9FE399830DC0FD
S11313E0833631F0833771F0833509F055C020C05E
S11313F0F801808189830E5F1F4F88248394912C88
S1131400530112C02801F2E04F0E511CF801A080D4
S1131410B18036FE03C0692D70E002C06FEF7FEF2C
S1131420C5014ED14C018201F32DFF773F2E15C02B
S1131430280122E0420E511CF801A080B18036FE42
S113144003C0692D70E002C06FEF7FEFC5012DD19D
S11314504C01F32DF0683F2E820133FC19C0822D1C
S113146090E088169906A0F4B60180E290E033D1AA
S11314702A94F5CFF50137FC859137FE81915F0100
S1131480B60190E028D121102A9421E0821A910813
S11314908114910479F7E1C0843611F0893639F565
S11314A0F80137FE07C060817181828193810C5FEE
S11314B01F4F08C060817181072E000C880B990BA7
S11314C00E5F1F4FF32DFF763F2E97FF09C09095B7
S11314D08095709561957F4F8F4F9F4FF0683F2E99
S11314E02AE030E0A30133D1882E861844C0853722
S11314F031F4232D2F7EB22E2AE030E025C0932D27
S1131500997FB92E8F36C1F018F4883579F0AEC0C2
S1131510803719F0883721F0A9C0E92FE061BE2E89
S1131520B4FE0DC0FB2DF460BF2E09C034FE0AC00A
S1131530292F2660B22E06C028E030E005C020E145
S113154030E002C020E132E0F801B7FE07C060815C
S11315507181828193810C5F1F4F06C0608171810C
S113156080E090E00E5F1F4FA301F1D0882E861813
S1131570FB2DFF773F2E36FE0DC0232D2E7FA22E8E
S1131580891458F434FE0BC032FC09C0832D8E7EBE
S1131590A82E05C0B82CA32C03C0B82C01C0B92CAC
S11315A0A4FE0FC0FE01E80DF11D8081803321F4FB
S11315B09A2D997EA92E09C0A2FE06C0B394B394B5
S11315C004C08A2D867809F0B394A3FC10C0A0FE51
S11315D006C0B21480F4280C922C9B180DC0B214CF
S11315E058F4B60180E290E076D0B394F8CFB21408
S11315F018F42B1802C0982C212CA4FE0FC0B6019D
S113160080E390E068D0A2FE16C0A1FC03C088E786
S113161090E002C088E590E0B6010CC08A2D86787F
S113162051F0A1FE02C08BE201C080E2A7FC8DE272
S1131630B60190E050D0891430F4B60180E390E014
S11316404AD09A94F8CF8A94F301E80DF11D808171
S1131650B60190E040D08110F6CF222009F44ECE9E
S1131660B60180E290E037D02A94F7CFF601868164
S1131670978102C08FEF9FEF2B960FB6F894DEBFD1
S11316800FBECDBFDF91CF911F910F91FF90EF90CF
S1131690DF90CF90BF90AF909F908F907F906F908E
S11316A05F904F903F902F900895FC0105906150FA
S11316B070400110D8F7809590958E0F9F1F089564
S11316C0FC016150704001900110D8F7809590950D
S11316D08E0F9F1F08950F931F93CF93DF93FB01EA
S11316E0238121FD03C08FEF9FEF2CC022FF16C082
S11316F046815781248135814217530744F4A081E0
S1131700B1819D012F5F3F4F318320838C932681CC
S113171037812F5F3F4F3783268314C08B01EC0141
S1131720FB010084F185E02D0995892BE1F6D801B0
S113173016968D919C911797019617969C938E936C
S11317401697CE01DF91CF911F910F910895FA0161
S1131750AA27283051F1203181F1E8946F936E7FEC
S11317606E5F7F4F8F4F9F4FAF4FB1E03ED0B4E0DD
S11317703CD0670F781F891F9A1FA11D680F791F1E
S11317808A1F911DA11D6A0F711D811D911DA11D2F
S113179020D009F468943F912AE0269F112430193F
S11317A0305D3193DEF6CF010895462F4770405DDA
S11317B04193B3E00FD0C9F7F6CF462F4F70405D89
S11317C04A3318F0495D31FD4052419302D0A9F7E4
S11317D0EACFB4E0A6959795879577956795BA95DE
S11317E0C9F700976105710508959B01AC010A2EA4
S11317F006945795479537952795BA95C9F7620F7B
S1111800731F841F951FA01D0895F894FFCF39
S113180E0000B10220006400329664640101016498
S113181E0032966464947D66504340574154434865
S113182E444F475F5461736B005374617274696EF5
S113183E672053797374656D210D0A00537973749F
S113184E656D2052656164792E2E2E0D0A006D6130
S113185E696E00FF53797374656D20496E697469FE
S113186E616C697A65642E2E2E0053797374656DDE
S113187E205061757365204D6573736167653A20F9
S113188E25730D0A004974656D3A2025642C205287
S113189E65666C3A2025752C204D61673A202575B6
S11318AE2C20436C6173732025752C205374617442
S11318BE75733A2025750D0A0046524F4D3A202570
S11318CE730D0A54696D6572202564205374617416
S11318DE653A2025750D0A0025750D0A48454144C3
S11318EE3A2025782C205441494C3A2025782C2036
S11318FE46524F4E543A2025782C20454E443A20D9
S113190E25782C205354414745313A2025782C20F4
S113191E4D61673A202575205354414745323A208C
S113192E25782C205265666C3A2025750D0A000028
S9030000FC
