S00F00004D4543483435382E7372656357
S11300004BC0000067C0000065C0000063C0000072
S113001061C000005FC000005DC000005BC0000064
S113002059C0000057C0000055C0000053C0000074
S113003051C00000D0C400004DC000004BC00000FF
S113004049C00000C4C7000045C0000043C0000010
S113005041C000003FC000003DC000003BC00000A4
S113006039C0000037C0000035C0000033C00000B4
S113007031C0000046C000002DC000002BC00000AD
S113008029C0000027C0000025C0000023C00000D4
S113009021C000001FC0000011241FBECFEFD0E21A
S11300A0DEBFCDBF12E0A0E0B1E0E6EEF9E100E092
S11300B00BBF02C007900D92AE3FB107D9F723E002
S11300C0AEEFB2E001C01D92AA38B207E1F71FD328
S11300D00C94F10CC7C3EBE7F0E080818068808367
S11300E0EAE7F0E080818068808380818860808393
S11300F0ACE7B0E08C9181648C93808180648083D0
S113010008951F920F920FB60F9211240BB60F92FF
S11301102F933F938F939F93EF93FF9380911E03AD
S113012090911F030697D8F480911E0390911F03AA
S11301309C012F5F3F4F30931F0320931E03209198
S1130140780030917900880F991FFC01E65FFC4F1D
S113015031832083EAE7F0E08081806480838091AA
S11301601E0390911F03069719F482E080933B03CA
S1130170FF91EF919F918F913F912F910F900BBE23
S11301800F900FBE0F901F901895CF93679916C0CC
S113019080910801882381F080912803909129039C
S11301A0892B41F4809104039091050390932903D2
S11301B080932803109223031092080166990EC0BD
S11301C080910701882341F062E08091720390914D
S11301D073037CD2109223031092070165990BC01C
S11301E080910601882329F082E080934D031092C8
S11301F0230310920601679B0EC0809108018111B0
S113020007C0EAE2F3E082E0828F84A7809371035F
S113021081E080930801669B2AC0809107018111C7
S113022023C08091720390917303009771F48091BD
S11302300403909105039093730380937203609178
S11302402103709122034CD20AC0FAD19093730314
S113025080937203609121037091220341D2EAE7F3
S1130260F0E080818064808381E080930701659B56
S11302700FC080910601811108C080910403909100
S1130280050304D2853009F43ED681E0809306014B
S11302908091010381112BC0809104039091050387
S11302A0F5D1843021F1E0910403F09105038281BA
S11302B09381ECD18430D9F081E080930103E09103
S11302C00403F091050382819381E0D1E82FF0E0EB
S11302D0E75FFE4FC0818091040390910503D6D15E
S11302E0E82FF0E0E75FFE4F80816C2F5CD3CF9165
S11302F00895CF92DF92EF92FF92CF93EAE0F3E07A
S1130300A081B18160817181809100038F5F8093AE
S11303100003C12CD12C760180E090E04FB7F89413
S1130320FC01EE0FFF1FE65FFC4F20813181C20EFE
S1130330D31EE11CF11C208131812617370738F4C4
S1130340FC01EE0FFF1FE65FFC4F60817181FC0131
S1130350EE0FFF1FE65FFC4F20813181A217B30728
S113036008F04DC0FC01EE0FFF1FE65FFC4FA081BB
S1130370B18145C08FB7F894CA1ADB0AE108F108C5
S1130380C61AD70AE108F108F694E794D794C794FB
S1130390F694E794D794C7948FBFCFB7F894D70156
S11303A0C6010B97A109B1098D3D9340A105B10583
S11303B0A0F480917203909173036DD1A0E0B0E03A
S11303C0C816D906EA06FB0640F4809172039091A0
S11303D07303009711F0B60169D1CFBF10921F03C8
S11303E010921E0310923B03669B06C0EAE7F0E0FE
S11303F08081806480830AC01092000307C04FBFCD
S113040001968630910509F089CFB4CFCF91FF9042
S1130410EF90DF90CF90089580912003882329F0F6
S11304208091FF028F5F8093FF0264991AC061E09C
S1130430809128039091290349D161E08091280398
S11304409091290339D18091280390912903F8D000
S113045090932903809328031092FF02109244037F
S113046008958091FF028333C8F061E080912803EE
S1130470909129032BD160E0809128039091290366
S11304801BD18091280390912903DAD090932903FA
S1130490809328031092FF02109244030895CF938F
S11304A0E6E7F3E0858196812781821B91090F9706
S11304B024F480918303882379F08091040390913C
S11304C00503E4D0C82FE0910403F0910503828171
S11304D09381DCD0C8133FC063E080910403909102
S11304E00503F4D08091040390910503A9D090935F
S11304F0050380930403CAD0C82FE0910403F0914C
S1130500050382819381C2D0C81304C086E9809315
S11305100F011BC084E680930F01E0910403F09166
S1130520050382819381B2D0E82FF0E0E75FFE4FAC
S1130530C0818091040390910503A8D0E82FF0E0D6
S1130540E75FFE4F80816C2F2ED281E090E09CD13A
S113055010924D0306C080E090E096D181E0809334
S11305607403809104039091050390D0CF91089572
S113057089B18370C1F08091FE028F5F8093FE0287
S1130580833098F089B1837081F089B183708130B0
S113059019F480937503089589B18370823029F426
S11305A08093560308951092FE02089580912303C8
S11305B0823018F086E191E082D3809123038F5F2B
S11305C08093230308959BB180EA89278BB908950A
S11305D080912003882349F0809121039091220384
S11305E0019690932203809321030895EF92FF9242
S11305F01F93CF93DF937C01162FD42FC22F87E054
S113060090E0F3D5FC01F182E0821283D383C483AA
S113061016821582DF91CF911F91FF90EF9008957C
S1130620CF93DF93EC0186E090E0DFD5FC01D1832A
S1130630C0831582148213821282DF91CF910895B0
S1130640FC01828193810895CF93DF93EC01CB0168
S113065001C0E9012A813B8121153105D1F7E0DF91
S11306609B838A83DF91CF910895DC011296ED91EB
S1130670FC911397309741F081E08F5F0280F38102
S1130680E02D3097D1F7089581E00895DC01ED91D4
S1130690FC9183810895DC01ED91FC91808191812D
S11306A00895DC01ED91FC9182810895DC01ED91C6
S11306B0FC91718360830895DC01ED91FC91628368
S11306C00895DC01ED91FC9163830895DC01ED91C3
S11306D0FC9164830895DC01ED91FC91848108957B
S11306E0DC01ED91FC91768365830895DC01ED9145
S11306F0FC918581968108958FEF81B984B987B97A
S113070080EF8AB91DB810BA80E090E0089557D2FE
S113071089B18370E9F784E291E059D5F89420E037
S113072030E045EC50E061E070E081E090E0D6D448
S1130730CAE2D3E012E0188720E030E049E751E054
S113074061E070E081E090E0C9D4198A20E030E0F3
S11307504CE052E061E070E081E090E0BFD41A8E9A
S113076020E030E04FE452E061E070E081E090E0AE
S1130770B5D41BA220E030E048EE52E061E070E026
S113078082E090E0ABD41CA620E030E048EB52E0DD
S113079061E070E084E690E0A1D41DAB20E030E09D
S11307A043EE52E061E070E080ED97E097D41EAF35
S11307B020E030E046ED52E061E070E088E893E14B
S11307C08DD41092710387E391E001D580E890E025
S11307D05BD0789480917503882319F089E491E0C3
S11307E06ED2C0910403D0910503209799F320970A
S11307F091F1CE014BDF843071F5CE016CDF823094
S113080051F5CE0148DF8C01CE014BDF882391F0F6
S1130810C80144978135910520F462E0CE0151DF8F
S11308201AC00456110907321240A8F463E0CE013D
S113083048DF11C0C801895893400B9720F460E049
S1130840CE013FDF08C0005213400739110518F4E8
S113085061E0CE0136DFCE01F3DEEC01892B09F035
S1130860C6CFB8CF1F920F920FB60F9211248AEA07
S113087088B9FECF84B5836884BD85B5836085BDA2
S113088080910F0187BD08959C019FB7F8948091D2
S11308900F0187BD232B31F081E08093200381EF8A
S11308A085B904C01092200380EF85B99FBF0895D5
S11308B0F894E6E7F3E0108281E0818313821282E8
S11308C0148217821186108613861486128688EC89
S11308D090E09683858380E382B984E98093B300B2
S11308E0E0EBF0E0808182608083E0E7F0E08081EB
S11308F082608083E1EBF0E080818760808378947C
S1130900089590E0861B910952F0853691058CF08C
S113091024E630E0A901481B590BCA0108958C391B
S11309205FEF950734F42CE93FEFA901481B590BFD
S1130930CA010895CF93DF93C6E7D3E06C818A811F
S11309409B81DFDF9E838D836A817B818885998586
S1130950D8DF2D813E81332314F428E001C024E044
S1130960E6E7F3E0218345815681849F9001859FCA
S1130970300D949F300D112481E0121613060CF0F3
S113098080E0E6E7F3E082878581968199231CF471
S1130990919581959109E6E7F3E096838583178223
S11309A0DF91CF910895E6E7F3E0248142815381FA
S11309B030E02417350729F091E09587868767870B
S11309C0089590E0E6E7F3E09383828370E0718713
S11309D06087B0CF08951F920F920FB60F92112423
S11309E00BB60F922F933F934F935F936F937F9325
S11309F08F939F93AF93BF93EF93FF93CF93DF9323
S1130A0000D000D0CDB7DEB786E390E0A0E0B0E040
S1130A109EE2ADE2B5E389839A83AB83BC83E6E7C8
S1130A20F3E087812581368190E082179307F9F4FA
S1130A30109226038281938184838585882321F003
S1130A40158667858685AFDF80918003882319F03A
S1130A508091820301C080E0E6E7F3E08487E485C7
S1130A60F0E0E05FFE4F80818093B30066C0E6E76C
S1130A70F3E087812581368190E0281739070CF44B
S1130A805CC080917703843051F480917603E1E077
S1130A90F0E0EC0FFD1FE80FF11D80810DC0809187
S1130AA07603E3E0F0E0E81BF10981E090E08C0FCD
S1130AB09D1FE80FF91F808182B9809176038330EE
S1130AC021F0809176038F5F01C080E0E6E7F3E0D8
S1130AD0808387818F5F87838285811115C085819B
S1130AE096812781821B9109069774F4E091820311
S1130AF0F0E0E05FFE4F8081843930F4E6E7F3E014
S1130B0084858150848711C080917D03863068F08C
S1130B10E0918203F0E0E05FFE4F8081813428F0B1
S1130B20E6E7F3E084858F5F8487E0918203F0E059
S1130B30E05FFE4F80818093B30080918103813018
S1130B4029F1639904C080914E01809381038091BF
S1130B508103823028F0E6E7F3E0838581508387C0
S1130B6080918103813091F4E6E7F3E0838710827A
S1130B70818313821282148216821582178211864F
S1130B801086128614861586178616860F900F9087
S1130B900F900F90DF91CF91FF91EF91BF91AF91A3
S1130BA09F918F917F916F915F914F913F912F9181
S1130BB00F900BBE0F900FBE0F901F9018950F93C0
S1130BC01F93CF93F894E1E6F0E080E880831082ED
S1130BD0E6D292DD69D24EDE7EDA6ADE10921F031F
S1130BE010921E0384E1EAE0F3E0DF011D928A958E
S1130BF0E9F71092750310922303109222031092C6
S1130C00210310927403109226031092050310928C
S1130C1004031092090310920803109229031092FE
S1130C202803109273031092720310920703109218
S1130C300603109225031092240320E044E06FEF92
S1130C4089EE9DEFD3DCECDC9093050380930403E1
S1130C5090930703809306039093250380932403C2
S1130C60CAEF08EE1DEF20E044E06C2FC801BEDCA3
S1130C70BC018091040390910503E6DC9093090381
S1130C808093080301501109C150CB3C61F705E082
S1130C9010E020E045E06AEF88EE9DEFA7DCBC01A0
S1130CA08091040390910503CFDC0150110989F769
S1130CB08FE491E08CD2CF911F910F9108953F92D0
S1130CC04F925F926F927F928F929F92AF92BF9258
S1130CD0CF92DF92EF92FF920F931F93CF93DF9304
S1130CE0CDB7DEB7CA5FD1090FB6F894DEBF0FBE29
S1130CF0CDBFF82EE92EF89480E090E0C5DD009198
S1130D00060310910703EF92FF9285E691E09F930B
S1130D108F93CE0101967C019F938F9387D3C70154
S1130D2056D28091040390910503E0DC20912103C5
S1130D30309122039F938F933F932F9380E891E008
S1130D409F938F93FF92EF9271D3C70140D20FB656
S1130D50F894DEBF0FBECDBFE12CF12C0F2EFFE9BE
S1130D60AF2EF1E0BF2EF02D6E01F7E9CF0ED11CAE
S1130D702DC08FEFE81AF80AC801B8DC682E592E86
S1130D80C801A9DC782EC80181DC882EC80189DC61
S1130D90982EC80180DC5F926F921F927F921F92FF
S1130DA08F921F929F929F938F93FF92EF92BF9285
S1130DB0AF92DF92CF923AD3C60109D2C80140DC88
S1130DC08C010FB6F894DEBF0FBECDBFC8015EDC48
S1130DD0853079F60F2EFAE2CF2EF3E0DF2EF02DD8
S1130DE000E010E00F2EFDEDAF2EF1E0BF2EF02D50
S1130DF07E01F7E9EF0EF11CF60180851F928F93B7
S1130E001F930F93BF92AF92FF92EF920FD3C7013C
S1130E10DED10F5F1F4FF9E0CF0ED11C0FB6F8944F
S1130E20DEBF0FBECDBF0730110531F780917203CD
S1130E309091730330DC482E392E609072035090E9
S1130E40730380912803909129032BDC782E9090D2
S1130E502803809029030091080310910903F801E5
S1130E60B280A380D0900603C0900703F0900403DF
S1130E70E09005038F2D9E2DF8DB3F924F925F92F9
S1130E806F921F927F928F929F92AF92BF92CF9256
S1130E90DF921F930F93EF92FF921F928F9384EF31
S1130EA091E09F938F938E010B591F4F1F930F93C4
S1130EB0BDD2C8018CD10FB6F894DEBF0FBECDBF32
S1130EC089B18370E9F784E291E081D180E890E010
S1130ED0DBDC7894C650DF4F0FB6F894DEBF0FBE4C
S1130EE0CDBFDF91CF911F910F91FF90EF90DF90D5
S1130EF0CF90BF90AF909F908F907F906F905F90B6
S1130F004F903F900895FF920F931F93CF93DF93D9
S1130F10CDB7DEB7E8970FB6F894DEBF0FBECDBFEE
S1130F20FE01319686E0DF011D928A95E9F7009172
S1130F30060310910703F8941BB818B880E090E0FA
S1130F40A3DC8AE792E043D1F12C0FC0F394C801EB
S1130F509DDBE1E0F0E0EC0FFD1FE80FF11D808167
S1130F608F5F8083C8016CDB8C01C801B4DB8330E4
S1130F7069F38D811F928F938B811F928F938C8144
S1130F801F928F9389811F928F938A811F928F93CF
S1130F901F92FF928FE992E09F938F938E01095FD6
S1130FA01F4F1F930F9342D2C80111D10FB6F8946B
S1130FB0DEBF0FBECDBFE8960FB6F894DEBF0FBEFE
S1130FC0CDBFDF91CF911F910F91FF9008951F9294
S1130FD00F920FB60F9211240BB60F92EF92FF925D
S1130FE00F931F932F933F934F935F936F937F932D
S1130FF08F939F93AF93BF93CF93DF93EF93FF931D
S113100080910203909103030196909303038093CC
S11310100203CAE2D3E00F2EF2E7EF2EF3E0FF2E35
S1131020F02D8E01EC81FD81309709F1809102034E
S1131030909103032881398128173907C1F48885E1
S1131040823019F48E819F810995D80112968D9171
S11310509C911397009741F02D913C911197820F29
S1131060931F8D939C9303C0F801158214822996D3
S1131070CE15DF05B1F6FF91EF91DF91CF91BF91CE
S1131080AF919F918F917F916F915F914F913F911C
S11310902F911F910F91FF90EF900F900BBE0F9027
S11310A00FBE0F901F901895109285001092840027
S11310B088E498E0909389008093880010928000DF
S11310C089E08093810082E080936F0088E4EAE203
S11310D0F3E0DF011D928A95E9F708950F931F93BA
S11310E0CF93DF938B0160912E0370912F03672BB5
S11310F009F449C0EAE2F3E0A1E0B0E0C585D68591
S1131100CD2B09F442C011963996A830B105B1F738
S113111080E090E03FC0FD01EE0FFF1FEE0FFF1FC8
S1131120EE0FFF1FEA0FFB1FE65DFC4F93838283E4
S11311300DC0FD01EE0FFF1FEE0FFF1FEE0FFF1F8F
S1131140EA0FFB1FE65DFC4F13821282FD01EE0FD6
S1131150FF1FEE0FFF1FEE0FFF1FEA0FFB1FE65DE1
S1131160FC4F5583448337832683209102033091B7
S11311700303820F931F9183808382E080877FBF64
S11311808A2F9B2F07C0A0E0B0E07FB7F894012B13
S113119011F6CFCFDF91CF911F910F910895109247
S11311A0CD0083E38093CC00E9ECF0E0808188619A
S11311B08083EAECF0E08081866080830895E8EC27
S11311C0F0E0908195FFFDCF8093CE000895CF93FA
S11311D0DF93EC018881882329F02196F0DF89913F
S11311E08111FCCFDF91CF9108950F931F93CF937B
S11311F0DF938230910510F482E090E0E09188035F
S1131200F091890320E030E0A0E0B0E0309719F1DC
S1131210408151810281138148175907C8F084170E
S1131220950769F4109731F012960C931297139660
S11312301C9327C0009388031093890322C02115AF
S1131240310519F04217530718F49A01BD01EF0153
S1131250DF01F801DBCF21153105F9F0281B390B2B
S11312602430310580F48A819B816115710521F058
S1131270FB019383828304C0909389038093880342
S1131280FE01329644C0FE01E20FF31F8193919355
S113129022503109398328833AC020918603309142
S11312A08703232B41F420910201309103013093F1
S11312B087032093860320910001309101012115B9
S11312C0310541F42DB73EB7409104015091050119
S11312D0241B350BE0918603F0918703E217F30793
S11312E0A0F42E1B3F0B2817390778F0AC014E5F92
S11312F05F4F2417350748F04E0F5F1F5093870345
S1131300409386038193919302C0E0E0F0E0CF0123
S1131310DF91CF911F910F910895CF93DF930097A1
S113132009F481C0FC01329713821282A0918803D0
S1131330B0918903109781F420813181820F931F2A
S113134020918603309187032817390751F5F093CC
S11313508703E093860367C0ED0120E030E0CE17F9
S1131360DF0740F44A815B819E0141155105F1F08C
S1131370EA01F5CFD383C28340815181840F951F45
S1131380C817D90759F488819981840F951F02964B
S1131390918380838A819B81938382832115310584
S11313A029F4F0938903E09388033DC0E901FB83AA
S11313B0EA8349915991C40FD51FEC17FD0761F4D5
S11313C080819181840F951F0296E9019983888316
S11313D0828193819B838A83E0E0F0E012968D9171
S11313E09C911397009719F0FD01DC01F7CF8D91C3
S11313F09C9111979D012E5F3F4F820F931F209167
S11314008603309187032817390769F4309729F444
S1131410109289031092880302C013821282B0933F
S11314208703A0938603DF91CF9108950F931F93B1
S1131430CF93DF93CDB7DEB72E970FB6F894DEBF08
S11314400FBECDBF0D891E8986E08C831A83098364
S11314508FEF9FE79E838D83AE01475E5F4F6F8959
S1131460788DCE01019610D0EF81F885E00FF11F41
S113147010822E960FB6F894DEBF0FBECDBFDF915B
S1131480CF911F910F9108952F923F924F925F92A7
S11314906F927F928F929F92AF92BF92CF92DF9280
S11314A0EF92FF920F931F93CF93DF93CDB7DEB7E5
S11314B02B970FB6F894DEBF0FBECDBF6C017B0136
S11314C08A01FC0117821682838181FFBFC1CE018C
S11314D001963C01F6019381F70193FD859193FFF9
S11314E081917F01882309F4ADC1853239F493FDDC
S11314F0859193FF81917F01853221F4B60190E0BB
S1131500D6D1E8CF912C212C312CFFE1F315D8F062
S11315108B3279F038F4803279F08332A1F4232DC0
S113152020611DC08D3261F0803369F4232D216068
S113153016C0832D8260382EE32DE4603E2E2AC02F
S1131540F32DF8601DC037FC2DC020ED280F2A3084
S113155040F08E32B9F436FC75C1232D2064322E4E
S113156019C036FE06C08AE0989E200D1124922EE2
S113157011C0EAE02E9E200D1124222EF32DF062DC
S11315803F2E08C08C3621F4832D8068382E02C08B
S1131590883641F4F70193FD859193FF81917F0192
S11315A08111B3CF982F9F7D9554933028F40C5F0D
S11315B01F4F9FE399830DC0833631F0833771F059
S11315C0833509F055C020C0F801808189830E5FFE
S11315D01F4F88248394912C530112C02801F2E0F8
S11315E04F0E511CF801A080B18036FE03C0692D56
S11315F070E002C06FEF7FEFC5014ED14C01820154
S1131600F32DFF773F2E15C0280122E0420E511C16
S1131610F801A080B18036FE03C0692D70E002C0DD
S11316206FEF7FEFC5012DD14C01F32DF0683F2EF4
S1131630820133FC19C0822D90E088169906A0F42B
S1131640B60180E290E033D12A94F5CFF50137FC5E
S1131650859137FE81915F01B60190E028D1211078
S11316602A9421E0821A91088114910479F7E1C047
S1131670843611F0893639F5F80137FE07C06081E8
S11316807181828193810C5F1F4F08C060817181D9
S1131690072E000C880B990B0E5F1F4FF32DFF765E
S11316A03F2E97FF09C090958095709561957F4F67
S11316B08F4F9F4FF0683F2E2AE030E0A30133D1D3
S11316C0882E861844C0853731F4232D2F7EB22E00
S11316D02AE030E025C0932D997FB92E8F36C1F0D2
S11316E018F4883579F0AEC0803719F0883721F0C6
S11316F0A9C0E92FE061BE2EB4FE0DC0FB2DF4603D
S1131700BF2E09C034FE0AC0292F2660B22E06C09F
S113171028E030E005C020E130E002C020E132E002
S1131720F801B7FE07C060817181828193810C5FEB
S11317301F4F06C06081718180E090E00E5F1F4FF3
S1131740A301F1D0882E8618FB2DFF773F2E36FE9D
S11317500DC0232D2E7FA22E891458F434FE0BC005
S113176032FC09C0832D8E7EA82E05C0B82CA32C74
S113177003C0B82C01C0B92CA4FE0FC0FE01E80DB3
S1131780F11D8081803321F49A2D997EA92E09C000
S1131790A2FE06C0B394B39404C08A2D867809F0DF
S11317A0B394A3FC10C0A0FE06C0B21480F4280CAD
S11317B0922C9B180DC0B21458F4B60180E290E04C
S11317C076D0B394F8CFB21418F42B1802C0982C26
S11317D0212CA4FE0FC0B60180E390E068D0A2FEE5
S11317E016C0A1FC03C088E790E002C088E590E041
S11317F0B6010CC08A2D867851F0A1FE02C08BE29E
S113180001C080E2A7FC8DE2B60190E050D08914BB
S113181030F4B60180E390E04AD09A94F8CF8A94E9
S1131820F301E80DF11D8081B60190E040D08110F4
S1131830F6CF222009F44ECEB60180E290E037D0F4
S11318402A94F7CFF6018681978102C08FEF9FEF2C
S11318502B960FB6F894DEBF0FBECDBFDF91CF91AC
S11318601F910F91FF90EF90DF90CF90BF90AF90BA
S11318709F908F907F906F905F904F903F902F90AC
S11318800895FC010590615070400110D8F78095CF
S113189090958E0F9F1F0895FC0161507040019038
S11318A00110D8F7809590958E0F9F1F08950F9380
S11318B01F93CF93DF93FB01238121FD03C08FEF9F
S11318C09FEF2CC022FF16C04681578124813581A9
S11318D04217530744F4A081B1819D012F5F3F4F0C
S11318E0318320838C93268137812F5F3F4F378349
S11318F0268314C08B01EC01FB010084F185E02DEB
S11319000995892BE1F6D80116968D919C9117972C
S1131910019617969C938E931697CE01DF91CF91E3
S11319201F910F910895FA01AA27283051F120310F
S113193081F1E8946F936E7F6E5F7F4F8F4F9F4F5F
S1131940AF4FB1E03ED0B4E03CD0670F781F891FA1
S11319509A1FA11D680F791F8A1F911DA11D6A0F6F
S1131960711D811D911DA11D20D009F468943F9122
S11319702AE0269F11243019305D3193DEF6CF0121
S11319800895462F4770405D4193B3E00FD0C9F7E7
S1131990F6CF462F4F70405D4A3318F0495D31FD54
S11319A04052419302D0A9F7EACFB4E0A6959795A7
S11319B0879577956795BA95C9F70097610571057D
S11319C008959B01AC010A2E0694579547953795C7
S11319D02795BA95C9F7620F731F841F951FA01D21
S10919E00895F894FFCF06
S11319E600008A03200001010164003296646464E5
S11319F6947D665643405741544348444F475F5489
S1131A0661736B005374617274696E6720537973E2
S1131A1674656D210D0A0053797374656D205265E2
S1131A266164792E2E2E0D0A006D61696E000553D0
S1131A36797374656D20496E697469616C697A6538
S1131A46642E2E2E0053797374656D205061757360
S1131A5665204D6573736167653A2025730D0A0029
S1131A664D6F746F72205469636B3A2025752C2070
S1131A76484541445469636B3A2025750D0A00496B
S1131A8674656D3A2025642C205265666C3A2025CF
S1131A96752C204D61673A2025752C20436C6173A3
S1131AA6732025752C205374617475733A2025753B
S1131AB62C205469636B3A2025750D0A000D0A54CF
S1131AC6696D65722025642053746174653A202516
S1131AD6750D0A0025750D0A484541443A202578B6
S1131AE62C205441494C3A2025782C2046524F4EFE
S1131AF6543A2025782C20454E443A2025782C202B
S1131B065354414745313A2025782C204D61673A94
S1131B16202575205354414745323A2025782C20F8
S1131B265265666C3A2025750D0A004D6F746F7206
S1131B36205469636B3A2025750D0A004974656D56
S1131B463A2025642C205265666C3A2025752C2093
S1131B564D61673A2025750D0A000D0A0D0A0D0A16
S1131B660D0A0D0A0D0A53797374656D2052616D61
S1131B7670696E6720446F776E2E2E2E0D0A00252F
S1131B8675204974656D7320536F72746564210DF5
S1131B960A0D0A426C61636B3A2025752F313209AE
S1131BA657686974653A2025752F3132095374656F
S1131BB6656C3A2025752F313209416C756D696E55
S1131BC6756D3A2025752F313209556E6B6E6F7718
S1111BD66E204974656D733A2025750D0A0062
S9030000FC
