S00F00004D4543483435382E7372656357
S11300004BC0000067C0000065C0000063C0000072
S113001061C000005FC000005DC000005BC0000064
S113002059C0000057C0000055C0000053C0000074
S113003051C0000037C500004DC000004BC0000097
S113004049C000000C946D0845C0000043C0000086
S113005041C000003FC000003DC000003BC00000A4
S113006039C0000037C0000035C0000033C00000B4
S113007031C0000046C000002DC000002BC00000AD
S113008029C0000027C0000025C0000023C00000D4
S113009021C000001FC0000011241FBECFEFD0E21A
S11300A0DEBFCDBF13E0A0E0B1E0E2EFFAE100E093
S11300B00BBF02C007900D92A630B107D9F723E019
S11300C0A6E0B3E001C01D92A339B207E1F77DD3E6
S11300D00C94770D25C4EBE7F0E080818068808381
S11300E0EAE7F0E080818068808380818860808393
S11300F0ACE7B0E08C9181648C93808180648083D0
S113010008951F920F920FB60F9211240BB60F92FF
S11301102F933F938F939F93EF93FF9380912603A5
S1130120909127030697D8F4809126039091270392
S11301309C012F5F3F4F3093270320932603209188
S1130140780030917900880F991FFC01EE5EFC4F16
S113015031832083EAE7F0E08081806480838091AA
S1130160260390912703069719F482E080934303B2
S1130170FF91EF919F918F913F912F910F900BBE23
S11301800F900FBE0F901F901895CF93DF93679930
S113019016C080910801882381F0809130039091EA
S11301A03103892B41F480910C0390910D039093BA
S11301B031038093300310922B0310920801669947
S11301C00EC080910701882341F062E080917A0398
S11301D090917B03D9D210922B0310920701659959
S11301E00BC080910601882329F082E08093550397
S11301F010922B0310920601679B0EC08091080198
S1130200811107C0E2E3F3E082E0828F84A7809348
S1130210790381E080930801669B2AC080910701DD
S1130220811123C080917A0390917B03009771F42C
S113023080910C0390910D0390937B0380937A0338
S11302406091290370912A03A9D20AC057D29093CE
S11302507B0380937A036091290370912A039ED2D1
S1130260EAE7F0E080818064808381E08093070185
S1130270659B0FC080910601811108C080910C0319
S113028090910D0361D2853009F4C3D681E0809347
S1130290060180910C0390910D0356D28430C9F469
S11302A080918C03811115C0C0912903D0912A0338
S11302B080910C0390910D0377D2C81BD90B8091C8
S11302C05401909155018C179D0718F4109209035D
S11302D004C080910903811134C080910C03909172
S11302E00D0332D2843069F1E0910C03F0910D03D7
S11302F08281938129D2843021F1EEE7F3E0848175
S11303002281338190E082179307D9F481E08093AE
S11303100903E0910C03F0910D038281938114D2BF
S1130320E82FF0E0E75FFE4FC08180910C039091CD
S11303300D030AD2E82FF0E0E75FFE4F80816C2FB7
S113034091D3DF91CF910895CF92DF92EF92FF92F4
S1130350CF93E2E1F3E0A081B1816081718180916A
S113036008038F5F80930803C12CD12C760180E0B1
S113037090E04FB7F894FC01EE0FFF1FEE5EFC4FC8
S113038020813181C20ED31EE11CF11C20813181F8
S11303902617370738F4FC01EE0FFF1FEE5EFC4F03
S11303A060817181FC01EE0FFF1FEE5EFC4F208126
S11303B03181A217B30708F04DC0FC01EE0FFF1FF7
S11303C0EE5EFC4FA081B18145C08FB7F894CA1A84
S11303D0DB0AE108F108C61AD70AE108F108F69425
S11303E0E794D794C794F694E794D794C7948FBFAF
S11303F0CFB7F894D701C6010B97A109B1098D3D78
S11304009340A105B105A0F480917A0390917B03F8
S1130410A0D1A0E0B0E0C816D906EA06FB0640F475
S113042080917A0390917B03009711F0B6019CD1DF
S1130430CFBF109227031092260310924303669BAA
S113044006C0EAE7F0E08081806480830AC01092ED
S1130450080307C04FBF01968630910509F089CF84
S1130460B4CFCF91FF90EF90DF90CF90089580911B
S11304702803882329F0809107038F5F8093070363
S113048064991AC061E080913003909131037CD16A
S113049061E080913003909131036CD180913003FD
S11304A0909131032BD190933103809330031092B8
S11304B0070310924C030895809107038333C8F017
S11304C061E080913003909131035ED160E08091CE
S11304D03003909131034ED18091300390913103D8
S11304E00DD190933103809330031092070310923F
S11304F04C0308950F931F93CF93DF931F92CDB7AF
S1130500DEB72091290330912A0380915201909102
S113051053012817390718F41092550381C000912C
S1130520290310912A0380910C0390910D030CD19F
S1130530081B11098091540190915501081719075E
S113054018F4109255036CC080910C0390910D0324
S1130550FBD0EEE7F3E0858196819781891B89833F
S1130560998180914F01981708F041C080918C03C4
S113057081113DC08981853040F4809188038111C7
S113058004C080914E018287158663E080910C033C
S113059090910D03F9D080910C0390910D0304D137
S11305A080910C0390910D03A9D090930D03809337
S11305B00C0381E090E0C6D1E0910C03F0910D03AF
S11305C082819381C1D0E82FF0E0E75FFE4F108174
S11305D080910C0390910D03B7D0E82FF0E0E75F12
S11305E0FE4F8081612F3ED21092550314C0E091DA
S11305F00C03F0910D0384819581009749F0A4D0F8
S1130600182F80910C0390910D039ED0181719F0A8
S113061080E090E097D180910C0390910D0394D0E9
S11306200F90DF91CF911F910F91089589B183703D
S1130630C1F0809106038F5F809306038B3098F09E
S113064089B1837081F089B18370813019F480930A
S11306507D03089589B18370823029F480935E0309
S1130660089510920603089580912B03823018F0A8
S113067086E191E0A8D380912B038F5F80932B03B5
S113068008959BB180EA89278BB908958091280346
S1130690882349F08091290390912A03019690932D
S11306A02A03809329030895EF92FF921F93CF9317
S11306B0DF937C01162FD42FC22F87E090E01BD646
S11306C0FC01F182E0821283D383C48316821582F3
S11306D0DF91CF911F91FF90EF900895CF93DF9317
S11306E0EC0186E090E007D6FC01D183C08315823B
S11306F0148213821282DF91CF910895FC018281CA
S113070093810895CF93DF93EC01CB0101C0E901FC
S11307102A813B8121153105D1F7E0DF9B838A8350
S1130720DF91CF910895DC011296ED91FC9113971E
S1130730309741F081E08F5F0280F381E02D3097A4
S1130740D1F7089581E00895DC01ED91FC91838156
S11307500895DC01ED91FC91808191810895DC0183
S1130760ED91FC9182810895DC01ED91FC917183FE
S113077060830895DC01ED91FC9162830895DC01AE
S1130780ED91FC9163830895DC01ED91FC91648308
S11307900895DC01ED91FC9184810895DC01ED91D3
S11307A0FC91768365830895DC01ED91FC9185814C
S11307B0968108958FEF81B984B987B980EF8AB99A
S11307C01DB810BA80E090E008956CD289B18370AE
S11307D0E9F784E291E081D5F89420E030E045EC3B
S11307E050E061E070E081E090E0FED4C2E3D3E049
S11307F012E0188720E030E044EA51E061E070E064
S113080081E090E0F1D4198A20E030E047E352E03F
S113081061E070E081E090E0E7D41A8E20E030E0FF
S11308204AE752E061E070E081E090E0DDD41BA291
S113083020E030E046E453E061E070E082E090E0E4
S1130840D3D41CA620E030E046E153E061E070E040
S113085084E690E0C9D41DAB20E030E041E453E0ED
S113086061E070E080ED97E0BFD41EAF20E030E09F
S113087044E353E061E070E088E893E1B5D410927A
S1130880790387E391E029D580E890E05BD0789400
S113089080917D03882319F089E491E094D2C0917A
S11308A00C03D0910D03209799F3209791F1CE0179
S11308B04BDF843071F5CE016CDF823051F5CE010F
S11308C048DF8C01CE014BDF882391F0C8010A97E1
S11308D08332914020F462E0CE0151DF1AC00C5201
S11308E01140053F1140A8F463E0CE0148DF11C078
S11308F0C801895893400B9720F460E0CE013FDF94
S113090008C0005213400B3A110518F461E0CE01FF
S113091036DFCE01F3DEEC01892B09F0C6CFB8CF68
S11309201F920F920FB60F9211248AEA88B9FECF54
S113093084B5836884BD85B5836085BD80910F01CE
S113094087BD08959C019FB7F89480910F0187BDDE
S1130950232B31F081E08093280381EF85B904C013
S11309601092280380EF85B99FBF0895F894EEE7AD
S1130970F3E0108281E08183138212821482128652
S113098017821186108614861586138688EC90E0EB
S11309909683858380E382B984E98093B300E0EB96
S11309A0F0E0808182608083E0E7F0E08081826013
S11309B08083E1EBF0E08081876080837894089500
S11309C090E0861B910952F0853691058CF024E65F
S11309D030E0A901481B590BCA0108958C395FEF17
S11309E0950734F42CE93FEFA901481B590BCA01C0
S11309F00895CF93DF93CEE7D3E06C818A819B8106
S1130A00DFDF9E838D836A817B8188859985D8DF2A
S1130A102D813E81332314F428E001C024E0EEE765
S1130A20F3E0218345815681849F9001859F300D99
S1130A30949F300D112481E0121613060CF080E00F
S1130A40EEE7F3E083878581968199231CF49195E1
S1130A5081959109EEE7F3E0968385831782DF9110
S1130A60CF910895EEE7F3E024814281538130E091
S1130A702417350729F091E096878787608B0895BE
S1130A80282F30E0EEE7F3E03383228370E07187B0
S1130A9060879481891304C08091500180938803F6
S1130AA0A8CF08951F920F920FB60F9211240BB680
S1130AB00F922F933F934F935F936F937F938F93F3
S1130AC09F93AF93BF93EF93FF93CF93DF9300D0A4
S1130AD000D0CDB7DEB786E390E0A0E0B0E09EE2C0
S1130AE0ADE2B5E389839A83AB83BC8380918803A9
S1130AF0882329F0EEE7F3E0828581508287EEE7D0
S1130B00F3E087812581368190E082179307F1F421
S1130B1010922E038281938184838685882321F019
S1130B201686608987859EDF80918903882319F062
S1130B3080918B0301C080E0EEE7F3E08587E585D3
S1130B40F0E0E05FFE4F80818093B300EEE7F3E0D6
S1130B5087812581368190E0821793070CF060C06D
S1130B608091880381115CC080917F03843051F4AB
S1130B7080917E03E1E0F0E0EC0FFD1FE80FF11D32
S1130B8080810DC080917E03E3E0F0E0E81BF10971
S1130B9081E090E08C0F9D1FE80FF91F808182B9DE
S1130BA080917E03833021F080917E038F5F01C0AA
S1130BB080E0EEE7F3E0808387818F5F878383851E
S1130BC0811115C0858196812781821B9109069721
S1130BD074F4E0918B03F0E0E05FFE4F8081843990
S1130BE030F4EEE7F3E085858150858711C080916C
S1130BF08503863068F0E0918B03F0E0E05FFE4F00
S1130C008081813428F0EEE7F3E085858F5F858766
S1130C10E0918B03F0E0E05FFE4F80818093B300AE
S1130C2080918A03813029F1639904C08091510134
S1130C3080938A0380918A03823028F0EEE7F3E000
S1130C4084858150848780918A03813091F4EEE712
S1130C50F3E08487108281831382128214821682C5
S1130C601582178211861086138615861686108AB9
S1130C7017860F900F900F900F90DF91CF91FF91F7
S1130C80EF91BF91AF919F918F917F916F915F9100
S1130C904F913F912F910F900BBE0F900FBE0F906D
S1130CA01F9018950F931F93CF93F894E1E6F0E00B
S1130CB080E880831082F9D27DDD7CD239DE0BDAC4
S1130CC055DE109227031092260384E1E2E1F3E05B
S1130CD0DF011D928A95E9F710927D0310922B0390
S1130CE010922A031092290310927C0310922E036F
S1130CF010920D0310920C03109211031092100322
S1130D00109231031092300310927B0310927A03F5
S1130D1010920F0310920E0310922D0310922C03C5
S1130D2020E044E06FEF89EE9DEFBEDCD7DC9093CA
S1130D300D0380930C0390930F0380930E03909301
S1130D402D0380932C03CAEF08EE1DEF20E044E04E
S1130D506C2FC801A9DCBC0180910C0390910D0398
S1130D60D1DC909311038093100301501109C150F9
S1130D70CB3C61F705E010E020E045E06AEF88EE47
S1130D809DEF92DCBC0180910C0390910D03BADCC1
S1130D900150110989F7E0910C03F0910D0364E00F
S1130DA084819581ECDCE0910C03F0910D0360E00B
S1130DB070E084819581F2DC86E591E08ED2CF915A
S1130DC01F910F9108953F924F925F926F927F927D
S1130DD08F929F92AF92BF92CF92DF92EF92FF9247
S1130DE00F931F93CF93DF93CDB7DEB7CA5FD109BB
S1130DF00FB6F894DEBF0FBECDBFF82EE92EF894DF
S1130E0080E090E09FDD00910E0310910F03EF92BC
S1130E10FF928CE691E09F938F93CE0101967C0123
S1130E209F938F9389D3C70158D280910C039091DB
S1130E300D03BADC2091290330912A039F938F93E9
S1130E403F932F9387E891E09F938F93FF92EF92C4
S1130E5073D3C70142D20FB6F894DEBF0FBECDBF25
S1130E60E12CF12C0F2EF6EAAF2EF1E0BF2EF02D7F
S1130E706E01F7E9CF0ED11C2DC08FEFE81AF80AE6
S1130E80C80192DC682E592EC80183DC782EC80173
S1130E905BDC882EC80163DC982EC8015ADC5F92A3
S1130EA06F921F927F921F928F921F929F929F9395
S1130EB08F93FF92EF92BF92AF92DF92CF923CD387
S1130EC0C6010BD2C8011ADC8C010FB6F894DEBF40
S1130ED00FBECDBFC80138DC853079F60F2EF2E3A2
S1130EE0CF2EF3E0DF2EF02D00E010E00F2EF4EE15
S1130EF0AF2EF1E0BF2EF02D7E01F7E9EF0EF11CCD
S1130F00F60180851F928F931F930F93BF92AF9228
S1130F10FF92EF9211D3C701E0D10F5F1F4FF9E0A9
S1130F20CF0ED11C0FB6F894DEBF0FBECDBF073075
S1130F30110531F780917A0390917B030ADC482EE6
S1130F40392E60907A0350907B0380913003909106
S1130F50310305DC782E90903003809031030091AA
S1130F60100310911103F801B280A380D0900E03F6
S1130F70C0900F03F0900C03E0900D038F2D9E2D75
S1130F80D2DB3F924F925F926F921F927F928F9229
S1130F909F92AF92BF92CF92DF921F930F93EF92E3
S1130FA0FF921F928F938BEF91E09F938F938E010B
S1130FB00B591F4F1F930F93BFD2C8018ED10FB689
S1130FC0F894DEBF0FBECDBF89B18370E9F784E228
S1130FD091E083D110927D0380E890E0B3DC7894B3
S1130FE0C650DF4F0FB6F894DEBF0FBECDBFDF9102
S1130FF0CF911F910F91FF90EF90DF90CF90BF9012
S1131000AF909F908F907F906F905F904F903F90A4
S11310100895FF920F931F93CF93DF93CDB7DEB75D
S1131020E8970FB6F894DEBF0FBECDBFFE01319630
S113103086E0DF011D928A95E9F700910E03109175
S11310400F03F8941BB818B880E090E07BDC81E8CB
S113105092E043D1F12C0FC0F394C80175DBE1E0B9
S1131060F0E0EC0FFD1FE80FF11D80818F5F80839E
S1131070C80144DB8C01C8018CDB833069F38D81AA
S11310801F928F938B811F928F938C811F928F93CA
S113109089811F928F938A811F928F931F92FF924F
S11310A086EA92E09F938F938E01095F1F4F1F93EF
S11310B00F9342D2C80111D10FB6F894DEBF0FBE10
S11310C0CDBFE8960FB6F894DEBF0FBECDBFDF915B
S11310D0CF911F910F91FF9008951F920F920FB619
S11310E00F9211240BB60F92EF92FF920F931F935E
S11310F02F933F934F935F936F937F938F939F931C
S1131100AF93BF93CF93DF93EF93FF9380910A0341
S113111090910B03019690930B0380930A03C2E30F
S1131120D3E00F2EFAE7EF2EF3E0FF2EF02D8E0121
S1131130EC81FD81309709F180910A0390910B03B2
S11311402881398128173907C1F48885823019F438
S11311508E819F810995D80112968D919C91139748
S1131160009741F02D913C911197820F931F8D931D
S11311709C9303C0F801158214822996CE15DF05CD
S1131180B1F6FF91EF91DF91CF91BF91AF919F9114
S11311908F917F916F915F914F913F912F911F910B
S11311A00F91FF90EF900F900BBE0F900FBE0F901A
S11311B01F901895109285001092840088E498E09E
S11311C090938900809388001092800089E0809336
S11311D0810082E080936F0088E4E2E3F3E0DF01C2
S11311E01D928A95E9F708950F931F93CF93DF9388
S11311F08B016091360370913703672B09F449C062
S1131200E2E3F3E0A1E0B0E0C585D685CD2B09F497
S113121042C011963996A830B105B1F780E090E04C
S11312203FC0FD01EE0FFF1FEE0FFF1FEE0FFF1F6C
S1131230EA0FFB1FEE5CFC4F938382830DC0FD011C
S1131240EE0FFF1FEE0FFF1FEE0FFF1FEA0FFB1F36
S1131250EE5CFC4F13821282FD01EE0FFF1FEE0FB6
S1131260FF1FEE0FFF1FEA0FFB1FEE5CFC4F5583C1
S113127044833783268320910A0330910B03820F22
S1131280931F9183808382E080877FBF8A2F9B2F67
S113129007C0A0E0B0E07FB7F894012B11F6CFCFE0
S11312A0DF91CF911F910F9108951092CD0083E3A8
S11312B08093CC00E9ECF0E0808188618083EAECE3
S11312C0F0E08081866080830895E8ECF0E090810E
S11312D095FFFDCF8093CE000895CF93DF93EC016B
S11312E08881882329F02196F0DF89918111FCCF30
S11312F0DF91CF9108950F931F93CF93DF938230A3
S1131300910510F482E090E0E0919103F091920352
S113131020E030E0A0E0B0E0309719F14081518145
S11313200281138148175907C8F08417950769F497
S1131330109731F012960C93129713961C9327C0B2
S1131340009391031093920322C02115310519F0E3
S11313504217530718F49A01BD01EF01DF01F801A8
S1131360DBCF21153105F9F0281B390B2430310569
S113137080F48A819B816115710521F0FB019383BF
S1131380828304C09093920380939103FE0132966A
S113139044C0FE01E20FF31F81939193225031095F
S11313A0398328833AC020918F0330919003232BF3
S11313B041F4209102013091030130939003209372
S11313C08F0320910001309101012115310541F471
S11313D02DB73EB74091040150910501241B350BF4
S11313E0E0918F03F0919003E217F307A0F42E1B12
S11313F03F0B2817390778F0AC014E5F5F4F241775
S1131400350748F04E0F5F1F5093900340938F03AE
S11314108193919302C0E0E0F0E0CF01DF91CF919E
S11314201F910F910895CF93DF93009709F481C022
S1131430FC01329713821282A0919103B09192031E
S1131440109781F420813181820F931F20918F03A3
S1131450309190032817390751F5F0939003E093E6
S11314608F0367C0ED0120E030E0CE17DF0740F4C2
S11314704A815B819E0141155105F1F0EA01F5CFE6
S1131480D383C28340815181840F951FC817D90724
S113149059F488819981840F951F029691838083E2
S11314A08A819B81938382832115310529F4F093EA
S11314B09203E09391033DC0E901FB83EA834991E0
S11314C05991C40FD51FEC17FD0761F480819181F8
S11314D0840F951F0296E901998388838281938101
S11314E09B838A83E0E0F0E012968D919C911397A0
S11314F0009719F0FD01DC01F7CF8D919C911197B4
S11315009D012E5F3F4F820F931F20918F033091D7
S113151090032817390769F4309729F4109292033D
S11315201092910302C013821282B0939003A0938D
S11315308F03DF91CF9108950F931F93CF93DF9380
S1131540CDB7DEB72E970FB6F894DEBF0FBECDBF72
S11315500D891E8986E08C831A8309838FEF9FE7A8
S11315609E838D83AE01475E5F4F6F89788DCE0178
S1131570019610D0EF81F885E00FF11F10822E96AE
S11315800FB6F894DEBF0FBECDBFDF91CF911F9190
S11315900F9108952F923F924F925F926F927F9294
S11315A08F929F92AF92BF92CF92DF92EF92FF926F
S11315B00F931F93CF93DF93CDB7DEB72B970FB65F
S11315C0F894DEBF0FBECDBF6C017B018A01FC0124
S11315D017821682838181FFBFC1CE0101963C012F
S11315E0F6019381F70193FD859193FF81917F012A
S11315F0882309F4ADC1853239F493FD859193FFB5
S113160081917F01853221F4B60190E0D6D1E8CFF3
S1131610912C212C312CFFE1F315D8F08B3279F089
S113162038F4803279F08332A1F4232D20611DC077
S11316308D3261F0803369F4232D216016C0832D2F
S11316408260382EE32DE4603E2E2AC0F32DF8602C
S11316501DC037FC2DC020ED280F2A3040F08E32FB
S1131660B9F436FC75C1232D2064322E19C036FE20
S113167006C08AE0989E200D1124922E11C0EAE043
S11316802E9E200D1124222EF32DF0623F2E08C031
S11316908C3621F4832D8068382E02C0883641F4BC
S11316A0F70193FD859193FF81917F018111B3CF60
S11316B0982F9F7D9554933028F40C5F1F4F9FE320
S11316C099830DC0833631F0833771F0833509F087
S11316D055C020C0F801808189830E5F1F4F882484
S11316E08394912C530112C02801F2E04F0E511C37
S11316F0F801A080B18036FE03C0692D70E002C0FD
S11317006FEF7FEFC5014ED14C018201F32DFF77BE
S11317103F2E15C0280122E0420E511CF801A08082
S1131720B18036FE03C0692D70E002C06FEF7FEF19
S1131730C5012DD14C01F32DF0683F2E820133FCFD
S113174019C0822D90E088169906A0F4B60180E2B3
S113175090E033D12A94F5CFF50137FC859137FE1B
S113176081915F01B60190E028D121102A9421E0F3
S1131770821A91088114910479F7E1C0843611F03A
S1131780893639F5F80137FE07C06081718182819D
S113179093810C5F1F4F08C060817181072E000C7C
S11317A0880B990B0E5F1F4FF32DFF763F2E97FF8B
S11317B009C090958095709561957F4F8F4F9F4F8D
S11317C0F0683F2E2AE030E0A30133D1882E86183A
S11317D044C0853731F4232D2F7EB22E2AE030E029
S11317E025C0932D997FB92E8F36C1F018F4883512
S11317F079F0AEC0803719F0883721F0A9C0E92FFD
S1131800E061BE2EB4FE0DC0FB2DF460BF2E09C0F6
S113181034FE0AC0292F2660B22E06C028E030E02C
S113182005C020E130E002C020E132E0F801B7FE5B
S113183007C060817181828193810C5F1F4F06C054
S11318406081718180E090E00E5F1F4FA301F1D0B1
S1131850882E8618FB2DFF773F2E36FE0DC0232DD4
S11318602E7FA22E891458F434FE0BC032FC09C01A
S1131870832D8E7EA82E05C0B82CA32C03C0B82CB3
S113188001C0B92CA4FE0FC0FE01E80DF11D80813A
S1131890803321F49A2D997EA92E09C0A2FE06C098
S11318A0B394B39404C08A2D867809F0B394A3FC4E
S11318B010C0A0FE06C0B21480F4280C922C9B1811
S11318C00DC0B21458F4B60180E290E076D0B3941F
S11318D0F8CFB21418F42B1802C0982C212CA4FEB3
S11318E00FC0B60180E390E068D0A2FE16C0A1FC50
S11318F003C088E790E002C088E590E0B6010CC020
S11319008A2D867851F0A1FE02C08BE201C080E2EC
S1131910A7FC8DE2B60190E050D0891430F4B601F2
S113192080E390E04AD09A94F8CF8A94F301E80DCA
S1131930F11D8081B60190E040D08110F6CF2220C5
S113194009F44ECEB60180E290E037D02A94F7CF66
S1131950F6018681978102C08FEF9FEF2B960FB619
S1131960F894DEBF0FBECDBFDF91CF911F910F91D1
S1131970FF90EF90DF90CF90BF90AF909F908F90AB
S11319807F906F905F904F903F902F900895FC014F
S11319900590615070400110D8F7809590958E0F96
S11319A09F1F0895FC016150704001900110D8F709
S11319B0809590958E0F9F1F08950F931F93CF933B
S11319C0DF93FB01238121FD03C08FEF9FEF2CC028
S11319D022FF16C04681578124813581421753075F
S11319E044F4A081B1819D012F5F3F4F3183208357
S11319F08C93268137812F5F3F4F3783268314C012
S1131A008B01EC01FB010084F185E02D0995892B04
S1131A10E1F6D80116968D919C9117970196179629
S1131A209C938E931697CE01DF91CF911F910F91C6
S1131A300895FA01AA27283051F1203181F1E89460
S1131A406F936E7F6E5F7F4F8F4F9F4FAF4FB1E0AD
S1131A503ED0B4E03CD0670F781F891F9A1FA11DA8
S1131A60680F791F8A1F911DA11D6A0F711D811DA9
S1131A70911DA11D20D009F468943F912AE0269F6E
S1131A8011243019305D3193DEF6CF010895462FCD
S1131A904770405D4193B3E00FD0C9F7F6CF462FAE
S1131AA04F70405D4A3318F0495D31FD4052419317
S1131AB002D0A9F7EACFB4E0A695979587957795D4
S1131AC06795BA95C9F700976105710508959B015B
S1131AD0AC010A2E06945795479537952795BA95E4
S1131AE0C9F7620F731F841F951FA01D0895F894F2
S1051AF0FFCF22
S1131AF200009303200001010164003296646478BB
S1131B02947D665643405741544348444F475F547B
S1131B1261736B005374617274696E6720537973D5
S1131B2274656D210D0A0053797374656D205265D5
S1131B326164792E2E2E0D0A006D61696E000319FF
S1131B4205051405200353797374656D20496E6984
S1131B527469616C697A65642E2E2E0053797374EC
S1131B62656D205061757365204D6573736167659A
S1131B723A2025730D0A004D6F746F722054696305
S1131B826B3A2025752C20484541445469636B3ACD
S1131B922025750D0A004974656D3A2025642C20B0
S1131BA25265666C3A2025752C204D61673A2025D2
S1131BB2752C20436C6173732025752C205374613A
S1131BC27475733A2025752C205469636B3A202569
S1131BD2750D0A000D0A54696D657220256420533F
S1131BE2746174653A2025750D0A0025750D0A483D
S1131BF24541443A2025782C205441494C3A202529
S1131C02782C2046524F4E543A2025782C20454EAB
S1131C12443A2025782C205354414745313A202513
S1131C22782C204D61673A2025752053544147454D
S1131C32323A2025782C205265666C3A2025750D9F
S1131C420A004D6F746F72205469636B3A202575D4
S1131C520D0A004974656D3A2025642C205265668C
S1131C626C3A2025752C204D61673A2025750D0AA2
S1131C72000D0A0D0A0D0A0D0A0D0A0D0A53797395
S1131C8274656D2052616D70696E6720446F776E62
S1131C922E2E2E0D0A002575204974656D7320536E
S1131CA26F72746564210D0A0D0A426C61636B3AAA
S1131CB22025752F31320957686974653A202575D4
S1131CC22F313209537465656C3A2025752F3132F0
S1131CD209416C756D696E756D3A2025752F313227
S1131CE209556E6B6E6F776E204974656D733A2079
S1091CF225750D0A000037
S9030000FC
