:100000004BC0000067C0000065C0000063C0000076
:1000100061C000005FC000005DC000005BC0000068
:1000200059C0000057C0000055C0000053C0000078
:1000300051C00000C5C400004DC000004BC000000E
:1000400049C000008EC7000045C0000043C000004A
:1000500041C000003FC000003DC000003BC00000A8
:1000600039C0000037C0000035C0000033C00000B8
:1000700031C0000046C000002DC000002BC00000B1
:1000800029C0000027C0000025C0000023C00000D8
:1000900021C000001FC0000011241FBECFEFD0E21E
:1000A000DEBFCDBF12E0A0E0B1E0EAE7F9E100E099
:1000B0000BBF02C007900D92A037B107D9F722E01D
:1000C000A0E7B2E001C01D92A23FB207E1F7EFD274
:1000D0000C94BB0CC4C3EBE7F0E0808180688083A4
:1000E000EAE7F0E080818068808380818860808397
:1000F000ACE7B0E08C9181648C93808180648083D4
:1001000008951F920F920FB60F9211240BB60F9203
:100110002F933F938F939F93EF93FF93809191023F
:10012000909192020697D8F4809191029091920258
:100130009C012F5F3F4F30939202209391022091B8
:10014000780030917900880F991FFC01E358FD4F2A
:1001500031832083EAE7F0E08081806480838091AE
:10016000910290919202069719F482E08093A8027E
:10017000FF91EF919F918F913F912F910F900BBE27
:100180000F900FBE0F901F901895679916C0809121
:100190000E01882381F08091950290919602892B1F
:1001A00041F4809177029091780290939602809327
:1001B00095021092940210920E0166990EC08091E1
:1001C0000D01882341F062E08091DF029091E0020E
:1001D00059D21092940210920D0165990DC0809130
:1001E0000C01882339F082E08093BA0210929402C5
:1001F0008FEF88B910920C01679B0CC080910E01A3
:10020000811105C082E08093B1028093DE0281E01B
:1002100080930E01669B20C080910D01811119C051
:100220008091DF029091E002009749F4809177027B
:10023000909178029093E0028093DF0205C0DCD1B8
:100240009093E0028093DF02EAE7F0E0808180642F
:10025000808381E080930D01659B08C080910C0133
:10026000811101C018B881E080930C010895CF92EC
:10027000DF92EF92FF92CF93EDE7F2E0A081B181A0
:1002800060817181809174028F5F80937402C12CB0
:10029000D12C760180E090E04FB7F894FC01EE0F8E
:1002A000FF1FE358FD4F20813181C20ED31EE11C98
:1002B000F11C208131812617370738F4FC01EE0F3D
:1002C000FF1FE358FD4F60817181FC01EE0FFF1F9E
:1002D000E358FD4F20813181A217B30708F057C0C2
:1002E000FC01EE0FFF1FE358FD4FA081B1814FC00D
:1002F0008FB7F894CA1ADB0AE108F108C61AD70AC0
:10030000E108F108F694E794D794C794F694E7943B
:10031000D794C7948FBFCFB7F894D701C6010B9776
:10032000A109B1098D3D9340A105B105A0F48091CB
:10033000DF029091E0028BD1A0E0B0E0C816D906B0
:10034000EA06FB0640F48091DF029091E0020097FC
:1003500011F0B60187D1CFBF109292021092910294
:100360001092A802669B06C0EAE7F0E080818064F4
:10037000808314C0E091DF02F091E0020190F081EF
:10038000E02D8091740282831092740207C04FBFE7
:1003900001968630910509F07FCFAACFCF91FF90CB
:1003A000EF90DF90CF900895809173028F5F8093DC
:1003B0007302649920C061E0809195029091960249
:1003C00061D161E0809195029091960251D1809126
:1003D000950290919602DC01ED91FC9120917302BF
:1003E00024830AD19093960280939502109273020F
:1003F0001092B1020895809173028D3318F161E07B
:1004000080919502909196023DD160E08091950295
:10041000909196022DD1E091DF02F091E0020190DF
:10042000F081E02D809173028483809195029091F8
:100430009602E2D0909396028093950210927302F6
:100440001092B1020895CF938091720281116EC013
:10045000809171028F5F80937102E2EEF2E08581FC
:100460009681878103C080E890E00BD2C091E602BC
:100470008091770290917802E5D0E82FF0E0EA5F72
:10048000FE4F8081C81349C080E890E0FAD1809186
:100490007102893228F480917202882309F440C0E5
:1004A00081E08093720210927102809177029091A4
:1004B0007802C8D0C82FE0917702F091780282814B
:1004C0009381C0D0C81302C01092720263E0809181
:1004D000770290917802D6D080917702909178023D
:1004E0008BD09093780280937702FC018281938174
:1004F000A9D0E82FF0E0EA5FFE4FC081809177023B
:10050000909178029FD0E82FF0E0EA5FFE4F808163
:100510006C2F41D21092BA0203C080E090E0B1D1BA
:1005200080917702909178028DD00AC0E2EEF2E0DD
:10053000858196819781891B893108F097CF93CF68
:10054000CF91089589B18370C9F0809170028F5F57
:1005500080937002833090F089B1837019F4109207
:100560007002089589B18370813029F48093E1028B
:1005700010927002089589B11092700208958091CE
:100580009402823018F08BE191E05BD38091940269
:100590008F5F8093940208959BB180EA89278BB97D
:1005A00008950895EF92FF921F93CF93DF937C01FC
:1005B000162FD42FC22F87E090E0E1D5FC01F18205
:1005C000E0821383D583C68312821482DF91CF9198
:1005D0001F91FF90EF900895CF93DF93EC0186E099
:1005E00090E0CDD5FC01D183C083158214821382A3
:1005F0001282DF91CF910895FC0182819381089549
:10060000CF93DF93EC01CB0101C0E9012A813B814B
:1006100021153105D1F7E0DF9B838A83DF91CF91EC
:100620000895DC011296ED91FC911397309741F0FB
:1006300081E08F5F0280F381E02D3097D1F708953C
:1006400081E00895DC01ED91FC9185810895DC0144
:10065000ED91FC91808191810895DC01ED91FC91F7
:1006600083810895DC01ED91FC917183608308958D
:10067000DC01ED91FC9163830895DC01ED91FC9127
:1006800065830895DC01ED91FC9166830895DC019A
:10069000ED91FC91868108958FEF81B984B987B976
:1006A00080EF8AB91DB810BA80E090E008955DD25D
:1006B00089B18370E9F789E291E053D5F89420E09D
:1006C00030E045EC50E061E070E081E090E0D0D4B3
:1006D000C7E9D2E012E0188720E030E047E351E0BC
:1006E00061E070E081E090E0C3D4198A20E030E05E
:1006F00044ED51E061E070E081E090E0B9D41A8E01
:1007000020E030E043E252E061E070E081E090E020
:10071000AFD41BA220E030E041ED52E060E070E099
:1007200081E090E0A5D41CA620E030E042EA52E04F
:1007300061E070E084E690E09BD41DAB20E030E007
:100740004CEC52E061E070E080ED97E091D41EAF98
:1007500020E030E04FEB52E061E070E088E893E1A8
:1007600087D41092DE028CE391E0FBD480E890E025
:1007700088D07894E12CF12CCC24C394D12C809196
:10078000E102882319F08EE491E073D3C0917702DF
:10079000D0917802209799F3209709F459C0CE019F
:1007A00051DF843009F054C0CE0171DF823009F08E
:1007B0004FC0CE014CDF8C01CE014FDF882391F07A
:1007C000C80144978135910520F462E0CE0155DFE0
:1007D00024C00C5211400F351140F8F463E0CE01F3
:1007E0004CDF1BC0C801895893400B9720F460E090
:1007F000CE0143DF12C0C801805293408739910572
:1008000020F461E0CE0139DF08C00451110901353F
:10081000110518F462E0CE0130DFE114F104C1F4F7
:1008200080917702909178020DDFE82FF0E0E15F90
:10083000FE4F1081809177029091780203DFE82FBC
:10084000F0E0E15FFE4F8081612FA5D0EC2CFD2C04
:10085000CE01D2DEEC01892B09F09ECF90CF1F9202
:100860000F920FB60F9211248AEA88B9FECF84B591
:10087000836884BD85B5836085BD8091540187BD43
:1008800008959C019FB7F8948091540187BD232B54
:1008900031F081E08093930281EF85B904C010921A
:1008A000930280EF85B99FBF0895F894E2EEF2E0DD
:1008B000108281E081831382128214821782108653
:1008C0001286138688EC90E09683858380E382B954
:1008D00084E98093B300E0EBF0E080818260808364
:1008E000E0E7F0E0808182608083E1EBF0E08081EE
:1008F000876080837894089590E0861B910952F078
:10090000853691058CF024E630E0A901481B590B8F
:10091000CA0108958C395FEF950734F42CE93FEF55
:10092000A901481B590BCA010895CF93DF93C2EE6A
:10093000D2E06C818A819B81DFDF9E838D836A8117
:100940007B818885D9DF2D813E81332314F428E013
:1009500001C024E0E2EEF2E0218345815681849FCC
:100960009001859F300D949F300D1124832F809529
:10097000881F8827881F81878581968199231CF489
:10098000919581959109E2EEF2E096838583178235
:10099000DF91CF910895CF93DF93F89490E0C2EE6A
:1009A000D2E09B838A836887C0DFEB85F0E0EB5E53
:1009B000FE4F80818093B3007894DF91CF910895AA
:1009C0001F920F920FB60F9211240BB60F922F9316
:1009D0003F938F939F93AF93BF93EF93FF93CF93E7
:1009E000DF9300D000D0CDB7DEB786E390E0A0E083
:1009F000B0E09EE2ADE2B5E389839A83AB83BC832A
:100A0000E2EEF2E087812581368190E0821793073C
:100A10000CF05AC08091E302843051F48091E202DC
:100A2000E1E0F0E0EC0FFD1FE80FF11D80810DC04B
:100A30008091E202E3E0F0E0E81BF10981E090E060
:100A40008C0F9D1FE80FF91F808182B98091E2020F
:100A5000833021F08091E2028F5F01C080E0E2EEFE
:100A6000F2E0808387818F5F8783858196812781EC
:100A7000821B9109069774F4E091ED02F0E0EB5EC1
:100A8000FE4F8081843930F4E2EEF2E083858150BC
:100A9000838711C08091E902863068F0E091ED0211
:100AA000F0E0EB5EFE4F8081813428F0E2EEF2E070
:100AB00083858F5F8387E091ED02F0E0EB5EFE4F70
:100AC00080818093B30029C0E2EEF2E08781258126
:100AD000368190E08217930701F5828193818483A8
:100AE0008185882319F08091ED0201C080E0A2EE9B
:100AF000B2E01B968C931B971B96EC911B97F0E032
:100B0000EB5EFE4F80818093B30019968C9181112A
:100B100002C082B101C082B182B98091EC02811120
:100B20000FC063990DC0E2EEF2E081E0828710828F
:100B30008183138212821482168215821782108694
:100B40000F900F900F900F90DF91CF91FF91EF9149
:100B5000BF91AF919F918F913F912F910F900BBEBD
:100B60000F900FBE0F901F9018950F931F93CF9368
:100B7000F894E1E6F0E080E880831082DAD28CDD40
:100B80005DD275DEA8DA91DE109292021092910287
:100B900084E1EDE7F2E0DF011D928A95E9F710921A
:100BA00078021092770210927C0210927B021092CF
:100BB0009602109295021092E0021092DF021092BB
:100BC0007A021092790220E044E06FEF89EE9DEF07
:100BD000E9DC02DD909378028093770290937A02A9
:100BE00080937902CAEF08EE1DEF20E044E06C2FFD
:100BF000C801D8DCBC01809177029091780200DDB9
:100C000090937C0280937B0201501109C150CB3C30
:100C100061F705E010E020E045E06AEF88EE9DEF27
:100C2000C1DCBC018091770290917802E9DC01502F
:100C3000110989F785E591E094D2CF911F910F9129
:100C400008953F924F925F926F927F928F929F9200
:100C5000AF92BF92CF92DF92EF92FF920F931F93CA
:100C6000CF93DF93CDB7DEB7CA5FD1090FB6F89443
:100C7000DEBF0FBECDBF982E892EF89480E090E0A5
:100C800000DE0091790210917A028F929F928BE69A
:100C900091E09F938F93CE0101967C019F938F9358
:100CA0008FD3C7015ED20F900F900F900F900F90CF
:100CB0000F90E12CF12C0F2EF6E8AF2EF1E0BF2EB5
:100CC000F02D6E0197E9C90ED11C30C0AFEFEA1AC2
:100CD000FA0AD801ED91FC9144803280C801D7DC3A
:100CE000582EC801AFDC682EC801B7DC782EC801C9
:100CF000AEDC1F924F921F923F921F925F921F9203
:100D00006F921F927F929F938F93FF92EF92BF9269
:100D1000AF92DF92CF9254D3C60123D2C8016CDCCC
:100D20008C010FB6F894DEBF0FBECDBFC8018ADCC0
:100D3000853061F60F2EF7E9CF2EF2E0DF2EF02D91
:100D400000E010E00F2EFBECAF2EF1E0BF2EF02DF7
:100D50007E01F7E9EF0EF11CD60118968C911F92D7
:100D60008F931F930F938F929F92BF92AF92FF9298
:100D7000EF9226D3C701F5D10F5F1F4FB9E0CB0E1D
:100D8000D11C0FB6F894DEBF0FBECDBF07301105E2
:100D900019F78091DF029091E00259DC482E392E3C
:100DA0006090DF025090E00280919502909196024F
:100DB00054DC782E909095028090960200917B02F0
:100DC00010917C02D8011296BC9012971396AC90A9
:100DD000D0907902C0907A02F0907702E090780289
:100DE0008F2D9E2D1EDC3F924F925F926F921F922D
:100DF0007F928F929F92AF92BF92CF92DF921F937A
:100E00000F93EF92FF921F928F938AEE91E09F9340
:100E10008F938E010B591F4F1F930F93D1D2C8018F
:100E2000A0D10FB6F894DEBF0FBECDBF89B18370DD
:100E3000E9F789E291E095D180E890E022DD7894AD
:100E4000C650DF4F0FB6F894DEBF0FBECDBFDF91A7
:100E5000CF911F910F91FF90EF90DF90CF90BF90B7
:100E6000AF909F908F907F906F905F904F903F904A
:100E700008957F928F929F92AF92BF92CF92DF920E
:100E8000EF92FF920F931F93CF93DF93CDB7DEB70F
:100E9000C456D1090FB6F894DEBF0FBECDBF7C019A
:100EA000F89480E090E0EDDC0091790210917A02F4
:100EB000C70157D1E12CF12C0F2EF1E4AF2EF2E057
:100EC000BF2EF02DCE0101966C0126C09FEFE91ACE
:100ED000F90AD801ED91FC9174808280C801BDDBD4
:100EE000982EC801B4DB1F927F921F928F921F929F
:100EF0009F929F938F93FF92EF92BF92AF92DF9258
:100F0000CF925ED2C6012DD1C80176DB8C010FB61F
:100F1000F894DEBF0FBECDBFC801B9DB8111D6CFBB
:100F200089B18370E9F789E291E01BD180E890E014
:100F3000A8DC1092E1027894CC59DF4F0FB6F894F8
:100F4000DEBF0FBECDBFDF91CF911F910F91FF90FC
:100F5000EF90DF90CF90BF90AF909F908F907F9059
:100F600008951F920F920FB60F9211240BB60F9295
:100F7000EF92FF920F931F932F933F934F935F93A3
:100F80006F937F938F939F93AF93BF93CF93DF9391
:100F9000EF93FF9380917502909176020196909362
:100FA000760280937502C7E9D2E00F2EFFEDEF2E97
:100FB000F2E0FF2EF02D8E01EC81FD81309709F1DA
:100FC000809175029091760228813981281739071E
:100FD000C1F48885823019F48E819F810995D801EA
:100FE00012968D919C911397009741F02D913C9111
:100FF0001197820F931F8D939C9303C0F801158264
:1010000014822996CE15DF05B1F6FF91EF91DF919D
:10101000CF91BF91AF919F918F917F916F915F9190
:101020004F913F912F911F910F91FF90EF900F9053
:101030000BBE0F900FBE0F901F9018951092850059
:101040001092840088E498E090938900809388004F
:101050001092800089E08093810082E080936F008D
:1010600088E4E7E9F2E0DF011D928A95E9F7089547
:101070000F931F93CF93DF938B0160919B0270912D
:101080009C02672B09F449C0E7E9F2E0A1E0B0E077
:10109000C585D685CD2B09F442C011963996A83066
:1010A000B105B1F780E090E03FC0FD01EE0FFF1FFA
:1010B000EE0FFF1FEE0FFF1FEA0FFB1FE956FD4F5C
:1010C000938382830DC0FD01EE0FFF1FEE0FFF1F04
:1010D000EE0FFF1FEA0FFB1FE956FD4F138212822E
:1010E000FD01EE0FFF1FEE0FFF1FEE0FFF1FEA0FB8
:1010F000FB1FE956FD4F5583448337832683209198
:10110000750230917602820F931F9183808382E073
:1011100080877FBF8A2F9B2F07C0A0E0B0E07FB7FA
:10112000F894012B11F6CFCFDF91CF911F910F9142
:1011300008951092CD0083E38093CC00E9ECF0E0B9
:10114000808188618083EAECF0E080818660808322
:101150000895E8ECF0E0908195FFFDCF8093CE00FC
:101160000895CF93DF93EC018881882329F021969D
:10117000F0DF89918111FCCFDF91CF9108950F931A
:101180001F93CF93DF938230910510F482E090E0BB
:10119000E091F002F091F10220E030E0A0E0B0E058
:1011A000309719F140815181028113814817590705
:1011B000C8F08417950769F4109731F012960C93D4
:1011C000129713961C9327C00093F0021093F1021C
:1011D00022C02115310519F04217530718F49A015E
:1011E000BD01EF01DF01F801DBCF21153105F9F079
:1011F000281B390B2430310580F48A819B816115CD
:10120000710521F0FB019383828304C09093F10266
:101210008093F002FE01329644C0FE01E20FF31FFC
:101220008193919322503109398328833AC02091C8
:10123000EE023091EF02232B41F420910201309114
:1012400003013093EF022093EE02209100013091D0
:1012500001012115310541F42DB73EB7409104013C
:1012600050910501241B350BE091EE02F091EF0245
:10127000E217F307A0F42E1B3F0B2817390778F06D
:10128000AC014E5F5F4F2417350748F04E0F5F1FCC
:101290005093EF024093EE028193919302C0E0E0FD
:1012A000F0E0CF01DF91CF911F910F910895CF937F
:1012B000DF93009709F481C0FC01329713821282F8
:1012C000A091F002B091F102109781F42081318158
:1012D000820F931F2091EE023091EF0228173907F9
:1012E00051F5F093EF02E093EE0267C0ED0120E0CC
:1012F00030E0CE17DF0740F44A815B819E01411543
:101300005105F1F0EA01F5CFD383C28340815181C9
:10131000840F951FC817D90759F488819981840FC4
:10132000951F0296918380838A819B819383828318
:101330002115310529F4F093F102E093F0023DC04C
:10134000E901FB83EA8349915991C40FD51FEC173A
:10135000FD0761F480819181840F951F0296E90158
:1013600099838883828193819B838A83E0E0F0E084
:1013700012968D919C911397009719F0FD01DC0155
:10138000F7CF8D919C9111979D012E5F3F4F820F5A
:10139000931F2091EE023091EF022817390769F46C
:1013A000309729F41092F1021092F00202C01382D9
:1013B0001282B093EF02A093EE02DF91CF910895D5
:1013C0000F931F93CF93DF93CDB7DEB72E970FB652
:1013D000F894DEBF0FBECDBF0D891E8986E08C83D9
:1013E0001A8309838FEF9FE79E838D83AE01475E4B
:1013F0005F4F6F89788DCE01019610D0EF81F8850F
:10140000E00FF11F10822E960FB6F894DEBF0FBECC
:10141000CDBFDF91CF911F910F9108952F923F92F1
:101420004F925F926F927F928F929F92AF92BF92F4
:10143000CF92DF92EF92FF920F931F93CF93DF93A0
:10144000CDB7DEB72B970FB6F894DEBF0FBECDBF7A
:101450006C017B018A01FC0117821682838181FF66
:10146000BFC1CE0101963C01F6019381F70193FDC6
:10147000859193FF81917F01882309F4ADC1853265
:1014800039F493FD859193FF81917F01853221F499
:10149000B60190E0D6D1E8CF912C212C312CFFE180
:1014A000F315D8F08B3279F038F4803279F083324A
:1014B000A1F4232D20611DC08D3261F0803369F4C9
:1014C000232D216016C0832D8260382EE32DE46029
:1014D0003E2E2AC0F32DF8601DC037FC2DC020ED34
:1014E000280F2A3040F08E32B9F436FC75C1232D16
:1014F0002064322E19C036FE06C08AE0989E200D68
:101500001124922E11C0EAE02E9E200D1124222ECD
:10151000F32DF0623F2E08C08C3621F4832D8068B5
:10152000382E02C0883641F4F70193FD859193FF70
:1015300081917F018111B3CF982F9F7D9554933076
:1015400028F40C5F1F4F9FE399830DC0833631F061
:10155000833771F0833509F055C020C0F8018081D0
:1015600089830E5F1F4F88248394912C530112C0EE
:101570002801F2E04F0E511CF801A080B18036FE28
:1015800003C0692D70E002C06FEF7FEFC5014ED13F
:101590004C018201F32DFF773F2E15C0280122E078
:1015A000420E511CF801A080B18036FE03C0692DA7
:1015B00070E002C06FEF7FEFC5012DD14C01F32D1C
:1015C000F0683F2E820133FC19C0822D90E088160E
:1015D0009906A0F4B60180E290E033D12A94F5CFC9
:1015E000F50137FC859137FE81915F01B60190E0EE
:1015F00028D121102A9421E0821A910881149104A3
:1016000079F7E1C0843611F0893639F5F80137FEF3
:1016100007C060817181828193810C5F1F4F08C078
:1016200060817181072E000C880B990B0E5F1F4F94
:10163000F32DFF763F2E97FF09C09095809570950A
:1016400061957F4F8F4F9F4FF0683F2E2AE030E02B
:10165000A30133D1882E861844C0853731F4232D59
:101660002F7EB22E2AE030E025C0932D997FB92E2F
:101670008F36C1F018F4883579F0AEC0803719F094
:10168000883721F0A9C0E92FE061BE2EB4FE0DC05D
:10169000FB2DF460BF2E09C034FE0AC0292F26603E
:1016A000B22E06C028E030E005C020E130E002C0E4
:1016B00020E132E0F801B7FE07C0608171818281CC
:1016C00093810C5F1F4F06C06081718180E090E0C4
:1016D0000E5F1F4FA301F1D0882E8618FB2DFF77D8
:1016E0003F2E36FE0DC0232D2E7FA22E891458F4D6
:1016F00034FE0BC032FC09C0832D8E7EA82E05C09F
:10170000B82CA32C03C0B82C01C0B92CA4FE0FC068
:10171000FE01E80DF11D8081803321F49A2D997E20
:10172000A92E09C0A2FE06C0B394B39404C08A2DAA
:10173000867809F0B394A3FC10C0A0FE06C0B214D2
:1017400080F4280C922C9B180DC0B21458F4B601EA
:1017500080E290E076D0B394F8CFB21418F42B184E
:1017600002C0982C212CA4FE0FC0B60180E390E0AB
:1017700068D0A2FE16C0A1FC03C088E790E002C0BA
:1017800088E590E0B6010CC08A2D867851F0A1FE64
:1017900002C08BE201C080E2A7FC8DE2B60190E0BE
:1017A00050D0891430F4B60180E390E04AD09A9486
:1017B000F8CF8A94F301E80DF11D8081B60190E025
:1017C00040D08110F6CF222009F44ECEB60180E23F
:1017D00090E037D02A94F7CFF6018681978102C036
:1017E0008FEF9FEF2B960FB6F894DEBF0FBECDBFE5
:1017F000DF91CF911F910F91FF90EF90DF90CF90ED
:10180000BF90AF909F908F907F906F905F904F9020
:101810003F902F900895FC01059061507040011099
:10182000D8F7809590958E0F9F1F0895FC01615009
:10183000704001900110D8F7809590958E0F9F1FF2
:1018400008950F931F93CF93DF93FB01238121FD15
:1018500003C08FEF9FEF2CC022FF16C04681578137
:10186000248135814217530744F4A081B1819D0141
:101870002F5F3F4F318320838C93268137812F5FE9
:101880003F4F3783268314C08B01EC01FB0100849A
:10189000F185E02D0995892BE1F6D80116968D91F9
:1018A0009C911797019617969C938E931697CE014D
:1018B000DF91CF911F910F910895FA01AA27283047
:1018C00051F1203181F1E8946F936E7F6E5F7F4F0D
:1018D0008F4F9F4FAF4FB1E03ED0B4E03CD0670F89
:1018E000781F891F9A1FA11D680F791F8A1F911DDC
:1018F000A11D6A0F711D811D911DA11D20D009F42C
:1019000068943F912AE0269F11243019305D31936D
:10191000DEF6CF010895462F4770405D4193B3E056
:101920000FD0C9F7F6CF462F4F70405D4A3318F0FD
:10193000495D31FD4052419302D0A9F7EACFB4E0AE
:10194000A6959795879577956795BA95C9F7009766
:101950006105710508959B01AC010A2E0694579507
:10196000479537952795BA95C9F7620F731F841F5E
:0A197000951FA01D0895F894FFCF05
:10197A000000F202200064003296646401010164EE
:10198A000032966464947D665043405741544348FC
:10199A00444F475F5461736B005374617274696E8C
:1019AA00672053797374656D210D0A005379737436
:1019BA00656D2052656164792E2E2E0D0A005345FD
:1019CA00540D0A006453797374656D20496E697405
:1019DA0069616C697A65642E2E2E00537973746579
:1019EA006D205061757365204D6573736167653A43
:1019FA002025730D0A004974656D3A2025642C2050
:101A0A005265666C3A2025752C204D61673A20256F
:101A1A00752C20436C6173732025752C20537461D7
:101A2A007475733A2025752C206164543A20257503
:101A3A002C206D543A2025750D0A0046524F4D3A16
:101A4A002025730D0A54696D65722025642053742C
:101A5A006174653A2025750D0A0025750D0A4845F9
:101A6A0041443A2025782C205441494C3A20257883
:101A7A002C2046524F4E543A2025782C20454E446D
:101A8A003A2025782C205354414745313A2025786D
:101A9A002C204D61673A2025752053544147453221
:101AAA003A2025782C205265666C3A2025750D0A55
:101ABA00004974656D3A2025642C205265666C3A9B
:101ACA002025752C204D61673A2025752C206164EC
:101ADA00543A2025752C206D543A2025750D0A009C
:00000001FF
