:100000004BC0000066C0000064C0000062C0000079
:1000100060C000005EC000005CC000005AC000006C
:1000200058C0000056C0000054C0000052C000007C
:1000300050C000004EC000004CC000004AC000008C
:1000400048C0000076C1000044C0000042C000006B
:1000500040C000003EC000003CC000003AC00000AC
:1000600038C0000036C0000034C0000032C00000BC
:1000700030C0000048C000002CC000002AC00000B2
:1000800028C0000026C0000024C0000022C00000DC
:1000900020C000001EC0000011241FBECFEFD0E220
:1000A000DEBFCDBF11E0A0E0B1E0EAE1FBE000E09F
:1000B0000BBF02C007900D92A432B107D9F721E01F
:1000C000A4E2B1E001C01D92A137B207E1F715D15A
:1000D00022C517C19FB7F894EBE7F0E080818068F4
:1000E0008083EAE7F0E08081806880838081886097
:1000F0008083ACE7B0E08C9181648C9380818064D4
:1001000080839FBF08951F920F920FB60F92112404
:100110008F939F938091780090E0909370018093EB
:100120006F018091790090E090936B0180936A0158
:1001300081E080936C019F918F910F900FBE0F9083
:100140001F90189588B1809588B908958FEF9FEF1B
:1001500090936901809368010895AF92BF92CF9206
:10016000DF92EF92FF920F931F93CF93DF93CDB760
:10017000DEB7C25CDB400FB6F894DEBF0FBECDBF6A
:10018000F894E1E6F0E080E880831082C3D1AAD041
:100190008FEF9FEF90936E0180936D0190936701B5
:1001A00080936601909369018093680126D1892B21
:1001B00019F080E091E0C6D1B3D08CDF789440E0B4
:1001C00050E082E090E030EF7FE061EFEE24E394D6
:1001D000F12CAAE7B0E005C08E2D9F2D02C08E2D18
:1001E0009F2D669938B9669B78B9489902C035B990
:1001F00001C065B920916C01222311F1669B20C0DA
:1002000010926C0180916A0190916B0100916F01D5
:1002100010917001FA01EE0FFF1FCC24C394D12C72
:10022000CC0EDD1EEC0DFD1D982F8827802B912B09
:10023000918380838C9180648C934F5F5F4F03C068
:1002400081309105A1F56699C7CF489BC8CF80EF53
:1002500085B98E010F5F1F4F7E012FE8E21A28EE4D
:10026000F20A0F2EF9E1AF2EF1E0BF2EF02D6E0154
:1002700087E4C81A84EFD80AF801819191918F011F
:10028000883EF3E09F0778F49F938F93BF92AF92DD
:10029000DF92CF9265D1C60155D10F900F900F908C
:1002A0000F900F900F90E016F10631F703C0009702
:1002B00009F097CF80E49FE11BD18EE191E042D11C
:1002C000CE53D44F0FB6F894DEBF0FBECDBFDF9133
:1002D000CF911F910F91FF90EF90DF90CF90BF9043
:1002E000AF9008958FEF81B984B987B980EF8AB94B
:1002F0001DB810BA80E090E008952FDF80E090E014
:1003000008951F920F920FB60F92112420E030E053
:1003100042EA50E061E070E080EA9FE08AD0F6CFE8
:1003200084B5836884BD85B5836085BD80E887BD5D
:1003300008951F920F920FB60F9211240BB60F92D1
:10034000EF92FF920F931F932F933F934F935F93DF
:100350006F937F938F939F93AF93BF93CF93DF93CD
:10036000EF93FF9380912401909125010196909342
:10037000250180932401C6E2D1E00F2EF6E6EF2E90
:10038000F1E0FF2EF02DEC81FD813097C9F08091D6
:10039000240190912501288139812817390781F49A
:1003A0008E819F8109958A819B81009739F02881F0
:1003B0003981820F931F9983888302C01D821C821A
:1003C0002896CE15DF05F9F6FF91EF91DF91CF91D9
:1003D000BF91AF919F918F917F916F915F914F915D
:1003E0003F912F911F910F91FF90EF900F900BBEB7
:1003F0000F900FBE0F901F901895109285001092CD
:10040000840088EE93E09093890080938800109296
:10041000800089E08093810082E080936F0080E417
:10042000E6E2F1E0DF011D928A95E9F780E090E0D5
:100430000895CF93DF93EA0140912A0150912B0157
:10044000452B09F44BC0A6E2B1E0E1E0F0E01C96D8
:100450004D915C911D97452B09F442C03196189639
:10046000E830F105A1F780E090E03FC0DF01AA0F7E
:10047000BB1FAA0FBB1FAA0FBB1FAA5DBE4F1396BF
:100480009C938E9312970DC0DF01AA0FBB1FAA0F7A
:10049000BB1FAA0FBB1FAA5DBE4F13961C921E92D4
:1004A0001297DF01AA0FBB1FAA0FBB1FAA0FBB1F0A
:1004B000AA5DBE4F1596DC93CE93149717963C9386
:1004C0002E9316972091240130912501820F931FBE
:1004D0008D939C935FBF8E2F9F2F07C0E0E0F0E0CD
:1004E0005FB7F894672B11F6CFCFDF91CF910895C6
:1004F00020E030E046EA50E060E070E09ADF909360
:100500006901809368018091680190916901019669
:10051000D1F708951092CD0083E38093CC00E9ECED
:10052000F0E0808188618083EAECF0E08081866081
:1005300080830895E8ECF0E0908195FFFDCF8093F3
:10054000CE000895CF93DF93EC018881882329F0B2
:100550002196F0DF89918111FCCFDF91CF91089531
:100560000F931F93CF93DF93CDB7DEB72E970FB6C0
:10057000F894DEBF0FBECDBF0D891E8986E08C8347
:100580001A8309838FEF9FE79E838D83AE01475EB9
:100590005F4F6F89788DCE01019610D0EF81F8857D
:1005A000E00FF11F10822E960FB6F894DEBF0FBE3B
:1005B000CDBFDF91CF911F910F9108952F923F9260
:1005C0004F925F926F927F928F929F92AF92BF9263
:1005D000CF92DF92EF92FF920F931F93CF93DF930F
:1005E000CDB7DEB72B970FB6F894DEBF0FBECDBFE9
:1005F0006C017B018A01FC0117821682838181FFD5
:10060000BFC1CE0101963C01F6019381F70193FD34
:10061000859193FF81917F01882309F4ADC18532D3
:1006200039F493FD859193FF81917F01853221F407
:10063000B60190E0D6D1E8CF912C212C312CFFE1EE
:10064000F315D8F08B3279F038F4803279F08332B8
:10065000A1F4232D20611DC08D3261F0803369F437
:10066000232D216016C0832D8260382EE32DE46097
:100670003E2E2AC0F32DF8601DC037FC2DC020EDA2
:10068000280F2A3040F08E32B9F436FC75C1232D84
:100690002064322E19C036FE06C08AE0989E200DD6
:1006A0001124922E11C0EAE02E9E200D1124222E3C
:1006B000F32DF0623F2E08C08C3621F4832D806824
:1006C000382E02C0883641F4F70193FD859193FFDF
:1006D00081917F018111B3CF982F9F7D95549330E5
:1006E00028F40C5F1F4F9FE399830DC0833631F0D0
:1006F000833771F0833509F055C020C0F80180813F
:1007000089830E5F1F4F88248394912C530112C05C
:100710002801F2E04F0E511CF801A080B18036FE96
:1007200003C0692D70E002C06FEF7FEFC5014ED1AD
:100730004C018201F32DFF773F2E15C0280122E0E6
:10074000420E511CF801A080B18036FE03C0692D15
:1007500070E002C06FEF7FEFC5012DD14C01F32D8A
:10076000F0683F2E820133FC19C0822D90E088167C
:100770009906A0F4B60180E290E033D12A94F5CF37
:10078000F50137FC859137FE81915F01B60190E05C
:1007900028D121102A9421E0821A91088114910411
:1007A00079F7E1C0843611F0893639F5F80137FE62
:1007B00007C060817181828193810C5F1F4F08C0E7
:1007C00060817181072E000C880B990B0E5F1F4F03
:1007D000F32DFF763F2E97FF09C090958095709579
:1007E00061957F4F8F4F9F4FF0683F2E2AE030E09A
:1007F000A30133D1882E861844C0853731F4232DC8
:100800002F7EB22E2AE030E025C0932D997FB92E9D
:100810008F36C1F018F4883579F0AEC0803719F002
:10082000883721F0A9C0E92FE061BE2EB4FE0DC0CB
:10083000FB2DF460BF2E09C034FE0AC0292F2660AC
:10084000B22E06C028E030E005C020E130E002C052
:1008500020E132E0F801B7FE07C06081718182813A
:1008600093810C5F1F4F06C06081718180E090E032
:100870000E5F1F4FA301F1D0882E8618FB2DFF7746
:100880003F2E36FE0DC0232D2E7FA22E891458F444
:1008900034FE0BC032FC09C0832D8E7EA82E05C00D
:1008A000B82CA32C03C0B82C01C0B92CA4FE0FC0D7
:1008B000FE01E80DF11D8081803321F49A2D997E8F
:1008C000A92E09C0A2FE06C0B394B39404C08A2D19
:1008D000867809F0B394A3FC10C0A0FE06C0B21441
:1008E00080F4280C922C9B180DC0B21458F4B60159
:1008F00080E290E076D0B394F8CFB21418F42B18BD
:1009000002C0982C212CA4FE0FC0B60180E390E019
:1009100068D0A2FE16C0A1FC03C088E790E002C028
:1009200088E590E0B6010CC08A2D867851F0A1FED2
:1009300002C08BE201C080E2A7FC8DE2B60190E02C
:1009400050D0891430F4B60180E390E04AD09A94F4
:10095000F8CF8A94F301E80DF11D8081B60190E093
:1009600040D08110F6CF222009F44ECEB60180E2AD
:1009700090E037D02A94F7CFF6018681978102C0A4
:100980008FEF9FEF2B960FB6F894DEBF0FBECDBF53
:10099000DF91CF911F910F91FF90EF90DF90CF905B
:1009A000BF90AF909F908F907F906F905F904F908F
:1009B0003F902F900895FC01059061507040011008
:1009C000D8F7809590958E0F9F1F0895FC01615078
:1009D000704001900110D8F7809590958E0F9F1F61
:1009E00008950F931F93CF93DF93FB01238121FD84
:1009F00003C08FEF9FEF2CC022FF16C046815781A6
:100A0000248135814217530744F4A081B1819D01AF
:100A10002F5F3F4F318320838C93268137812F5F57
:100A20003F4F3783268314C08B01EC01FB01008408
:100A3000F185E02D0995892BE1F6D80116968D9167
:100A40009C911797019617969C938E931697CE01BB
:100A5000DF91CF911F910F910895FA01AA272830B5
:100A600051F1203181F1E8946F936E7F6E5F7F4F7B
:100A70008F4F9F4FAF4FB1E03ED0B4E03CD0670FF7
:100A8000781F891F9A1FA11D680F791F8A1F911D4A
:100A9000A11D6A0F711D811D911DA11D20D009F49A
:100AA00068943F912AE0269F11243019305D3193DC
:100AB000DEF6CF010895462F4770405D4193B3E0C5
:100AC0000FD0C9F7F6CF462F4F70405D4A3318F06C
:100AD000495D31FD4052419302D0A9F7EACFB4E01D
:100AE000A6959795879577956795BA95C9F70097D5
:100AF0006105710508959B01AC010A2E0694579576
:100B0000479537952795BA95C9F7620F731F841FCC
:0A0B1000951FA01D0895F894FFCF73
:100B1A0054494D455220444944204E4F5420494E91
:100B2A00495449414C495A450025640D0A00656EED
:040B3A00640D0A003C
:00000001FF
