S00F00004D4543483435382E7372656357
S11300004BC0000067C0000065C0000063C0000072
S113001061C000005FC000005DC000005BC0000064
S113002059C0000057C0000055C0000053C0000074
S113003051C00000B8C400004DC000004BC0000017
S113004049C00000B9C7000045C0000043C000001B
S113005041C000003FC000003DC000003BC00000A4
S113006039C0000037C0000035C0000033C00000B4
S113007031C0000046C000002DC000002BC00000AD
S113008029C0000027C0000025C0000023C00000D4
S113009021C000001FC0000011241FBECFEFD0E21A
S11300A0DEBFCDBF13E0A0E0B1E0E0EDF9E100E098
S11300B00BBF02C007900D92A030B107D9F723E01F
S11300C0A0E0B3E001C01D92AD38B207E1F7FED263
S11300D00C94E60CA6C3EBE7F0E080818068808393
S11300E0EAE7F0E080818068808380818860808393
S11300F0ACE7B0E08C9181648C93808180648083D0
S113010008951F920F920FB60F9211240BB60F92FF
S11301102F933F938F939F93EF93FF9380912003AB
S1130120909121030697D8F48091200390912103A4
S11301309C012F5F3F4F3093210320932003209194
S1130140780030917900880F991FFC01E45FFC4F1F
S113015031832083EAE7F0E08081806480838091AA
S1130160200390912103069719F482E080933D03C4
S1130170FF91EF919F918F913F912F910F900BBE23
S11301800F900FBE0F901F901895CF93679916C0CC
S113019080910801882381F080912A0390912B0398
S11301A0892B41F4809106039091070390932B03CC
S11301B080932A03109225031092080166990EC0B9
S11301C080910701882341F062E08091740390914B
S11301D075035BD2109225031092070165990BC039
S11301E080910601882329F082E080934F031092C6
S11301F0250310920601679B0EC0809108018111AE
S113020007C0ECE2F3E082E0828F84A7809373035B
S113021081E080930801669B2AC0809107018111C7
S113022023C08091740390917503009771F48091B9
S11302300603909107039093750380937403609170
S11302402303709124032BD20AC0D9D19093750350
S113025080937403609123037091240320D2EAE70E
S1130260F0E080818064808381E080930701659B56
S11302700FC080910601811108C0809106039091FE
S11302800703E3D1853009F433D681E08093060176
S11302908091030381112BC0809106039091070381
S11302A0D4D1843021F1E0910603F09107038281D7
S11302B09381CBD18430D9F081E080930303E09122
S11302C00603F091070382819381BFD1E82FF0E008
S11302D0E75FFE4FC0818091060390910703B5D17B
S11302E0E82FF0E0E75FFE4F80816C2F3CD3CF9185
S11302F00895CF92DF92EF92FF92CF93ECE0F3E078
S1130300A081B18160817181809102038F5F8093AC
S11303100203C12CD12C760180E090E04FB7F89411
S1130320FC01EE0FFF1FE45FFC4F20813181C20E00
S1130330D31EE11CF11C208131812617370738F4C4
S1130340FC01EE0FFF1FE45FFC4F60817181FC0133
S1130350EE0FFF1FE45FFC4F20813181A217B3072A
S113036008F04DC0FC01EE0FFF1FE45FFC4FA081BD
S1130370B18145C08FB7F894CA1ADB0AE108F108C5
S1130380C61AD70AE108F108F694E794D794C794FB
S1130390F694E794D794C7948FBFCFB7F894D70156
S11303A0C6010B97A109B1098D3D9340A105B10583
S11303B0A0F480917403909175034CD1A0E0B0E057
S11303C0C816D906EA06FB0640F48091740390919E
S11303D07503009711F0B60148D1CFBF10922103E5
S11303E01092200310923D03669B06C0EAE7F0E0FA
S11303F08081806480830AC01092020307C04FBFCB
S113040001968630910509F089CFB4CFCF91FF9042
S1130410EF90DF90CF90089580912203882329F0F4
S1130420809101038F5F8093010364991AC061E096
S113043080912A0390912B0328D161E080912A03B3
S113044090912B0318D180912A0390912B03D7D03C
S113045090932B0380932A03109201031092460376
S11304600895809101038333C8F061E080912A03E9
S113047090912B030AD160E080912A0390912B0381
S1130480FAD080912A0390912B03B9D090932B0337
S113049080932A0310920103109246030895CF9388
S11304A0E8E7F3E0858196812781821B91090C9707
S11304B08CF58091860381112DC063E08091060341
S11304C090910703E2D0809106039091070397D09F
S11304D0909307038093060381E090E0B4D1E09108
S11304E00603F091070382819381AFD0E82FF0E0F7
S11304F0E75FFE4FC0818091060390910703A5D06A
S1130500E82FF0E0E75FFE4F80816C2F2CD2109231
S11305104F0306C080E090E096D181E0809376039B
S1130520809106039091070390D0CF91089589B1EB
S11305308370C1F0809100038F5F80930003833048
S113054098F089B1837081F089B18370813019F496
S113055080937703089589B18370823029F480935E
S11305605803089510920003089580912503823062
S113057018F086E191E098D3809125038F5F8093F2
S1130580250308959BB180EA89278BB9089580914A
S11305902203882349F08091230390912403019638
S11305A090932403809323030895EF92FF921F9363
S11305B0CF93DF937C01162FD42FC22F87E090E0D6
S11305C009D6FC01F182E0821283D383C4831682AC
S11305D01582DF91CF911F91FF90EF900895CF93F3
S11305E0DF93EC0186E090E0F5D5FC01D183C08374
S11305F01582148213821282DF91CF910895FC0137
S1130600828193810895CF93DF93EC01CB0101C0E4
S1130610E9012A813B8121153105D1F7E0DF9B8374
S11306208A83DF91CF910895DC011296ED91FC91BC
S11306301397309741F081E08F5F0280F381E02DC2
S11306403097D1F7089581E00895DC01ED91FC9194
S113065083810895DC01ED91FC918081918108955D
S1130660DC01ED91FC9182810895DC01ED91FC9116
S1130670718360830895DC01ED91FC916283089598
S1130680DC01ED91FC9163830895DC01ED91FC9113
S113069064830895DC01ED91FC9184810895DC016B
S11306A0ED91FC91768365830895DC01ED91FC91D5
S11306B08581968108958FEF81B984B987B980EFD8
S11306C08AB91DB810BA80E090E008956DD289B15E
S11306D08370E9F784E291E06FD5F89420E030E08C
S11306E045EC50E061E070E081E090E0ECD4CCE2D5
S11306F0D3E012E0188720E030E049E751E061E000
S113070070E081E090E0DFD4198A20E030E04CE032
S113071052E061E070E081E090E0D5D41A8E20E0F0
S113072030E04FE452E061E070E081E090E0CBD44F
S11307301BA220E030E047EC52E061E070E082E090
S113074090E0C1D41CA620E030E047E952E061E02B
S113075070E084E690E0B7D41DAB20E030E042ECDA
S113076052E061E070E080ED97E0ADD41EAF20E090
S113077030E045EB52E061E070E088E893E1A3D417
S11307801092730387E391E017D580E890E05BD083
S1130790789480917703882319F089E491E084D2D6
S11307A0C0910603D0910703209799F3209791F104
S11307B0CE014BDF843071F5CE016CDF823051F510
S11307C0CE0148DF8C01CE014BDF882391F0C801B4
S11307D044978135910520F462E0CE0151DF1AC0BF
S11307E00456110907321240A8F463E0CE0148DF31
S11307F011C0C801895893400B9720F460E0CE01E2
S11308003FDF08C0005213400739110518F461E0B6
S1130810CE0136DFCE01F3DEEC01892B09F0C6CF21
S1130820B8CF1F920F920FB60F9211248AEA88B99B
S1130830FECF84B5836884BD85B5836085BD809112
S11308400F0187BD08959C019FB7F89480910F0113
S113085087BD232B31F081E08093220381EF85B99A
S113086004C01092220380EF85B99FBF0895F894C5
S1130870E8E7F3E0108281E081831382128214821C
S1130880128617821186108614861586138688ECC4
S113089090E09683858380E382B984E98093B300F2
S11308A0E0EBF0E0808182608083E0E7F0E080812B
S11308B082608083E1EBF0E08081876080837894BC
S11308C0089590E0861B910952F0853691058CF0CD
S11308D024E630E0A901481B590BCA0108958C395C
S11308E05FEF950734F42CE93FEFA901481B590B3E
S11308F0CA010895CF93DF93C8E7D3E06C818A815E
S11309009B81DFDF9E838D836A817B8188859985C6
S1130910D8DF2D813E81332314F428E001C024E084
S1130920E8E7F3E0218345815681849F9001859F08
S1130930300D949F300D112481E0121613060CF033
S113094080E0E8E7F3E083878581968199231CF4AE
S1130950919581959109E8E7F3E096838583178261
S1130960DF91CF910895E8E7F3E024814281538138
S113097030E02417350729F091E096878787608B4C
S11309800895282F30E0E8E7F3E03383228370E012
S1130990718760879481891304C080914E0180938C
S11309A08203A8CF08951F920F920FB60F921124BD
S11309B00BB60F922F933F934F935F936F937F9355
S11309C08F939F93AF93BF93EF93FF93CF93DF9353
S11309D000D000D0CDB7DEB786E390E0A0E0B0E071
S11309E09EE2ADE2B5E389839A83AB83BC838091B5
S11309F08203882329F0E8E7F3E082858150828727
S1130A00E8E7F3E087812581368190E08217930738
S1130A10F9F4109228038281938184838685882344
S1130A2021F01686608987859EDF80918303882361
S1130A3019F08091850301C080E0E8E7F3E0858741
S1130A40E585F0E0E05FFE4F80818093B3006AC0EB
S1130A50E8E7F3E087812581368190E082179307E8
S1130A600CF060C08091820381115CC08091790395
S1130A70843051F480917803E1E0F0E0EC0FFD1F45
S1130A80E80FF11D80810DC080917803E3E0F0E070
S1130A90E81BF10981E090E08C0F9D1FE80FF91F1E
S1130AA0808182B980917803833021F0809178032A
S1130AB08F5F01C080E0E8E7F3E0808387818F5F88
S1130AC087838385811115C0858196812781821B47
S1130AD09109069774F4E0918503F0E0E05FFE4F1E
S1130AE08081843930F4E8E7F3E085858150858797
S1130AF011C080917F03863068F0E0918503F0E0B7
S1130B00E05FFE4F8081813428F0E8E7F3E08585DB
S1130B108F5F8587E0918503F0E0E05FFE4F808181
S1130B208093B30080918403813029F1639904C0D8
S1130B3080914F018093840380918403823028F054
S1130B40E8E7F3E0848581508487809184038130D1
S1130B5091F4E8E7F3E084871082818313821282A0
S1130B6014821682158217821186108613861586C2
S1130B701686108A17860F900F900F900F90DF91B2
S1130B80CF91FF91EF91BF91AF919F918F917F9101
S1130B906F915F914F913F912F910F900BBE0F90EA
S1130BA00FBE0F901F9018950F931F93CF93F89437
S1130BB0E1E6F0E080E880831082E6D27CDD69D251
S1130BC038DE89DA54DE109221031092200384E186
S1130BD0ECE0F3E0DF011D928A95E9F710927703C8
S1130BE0109225031092240310922303109276038B
S1130BF010922803109207031092060310920B031D
S1130C0010920A0310922B0310922A031092750378
S1130C101092740310920903109208031092270390
S1130C201092260320E044E06FEF89EE9DEFBDDCD7
S1130C30D6DC909307038093060390930903809373
S1130C4008039093270380932603CAEF08EE1DEF51
S1130C5020E044E06C2FC801A8DCBC0180910603AD
S1130C6090910703D0DC90930B0380930A03015007
S1130C701109C150CB3C61F705E010E020E045E0EC
S1130C806AEF88EE9DEF91DCBC01809106039091A0
S1130C900703B9DC0150110989F780E591E08CD292
S1130CA0CF911F910F9108953F924F925F926F924F
S1130CB07F928F929F92AF92BF92CF92DF92EF92E8
S1130CC0FF920F931F93CF93DF93CDB7DEB7CA5F25
S1130CD0D1090FB6F894DEBF0FBECDBFF82EE92EB2
S1130CE0F89480E090E0AFDD0091080310910903CF
S1130CF0EF92FF9286E691E09F938F93CE01019647
S1130D007C019F938F9387D3C70156D280910603AA
S1130D1090910703CADC20912303309124039F930D
S1130D208F933F932F9381E891E09F938F93FF924A
S1130D30EF9271D3C70140D20FB6F894DEBF0FBE55
S1130D40CDBFE12CF12C0F2EF0EAAF2EF1E0BF2E37
S1130D50F02D6E01F7E9CF0ED11C2DC08FEFE81AEC
S1130D60F80AC801A2DC682E592EC80193DC782E3B
S1130D70C8016BDC882EC80173DC982EC8016ADCBC
S1130D805F926F921F927F921F928F921F929F92F7
S1130D909F938F93FF92EF92BF92AF92DF92CF9285
S1130DA03AD3C60109D2C8012ADC8C010FB6F894E3
S1130DB0DEBF0FBECDBFC80148DC853079F60F2EEB
S1130DC0FCE2CF2EF3E0DF2EF02D00E010E00F2E3A
S1130DD0FEEDAF2EF1E0BF2EF02D7E01F7E9EF0E10
S1130DE0F11CF60180851F928F931F930F93BF927E
S1130DF0AF92FF92EF920FD3C701DED10F5F1F4F67
S1130E00F9E0CF0ED11C0FB6F894DEBF0FBECDBFF4
S1130E100730110531F780917403909175031ADC42
S1130E20482E392E609074035090750380912A03E4
S1130E3090912B0315DC782E90902A0380902B033D
S1130E4000910A0310910B03F801B280A380D090A3
S1130E500803C0900903F0900603E09007038F2D68
S1130E609E2DE2DB3F924F925F926F921F927F9290
S1130E708F929F92AF92BF92CF92DF921F930F9364
S1130E80EF92FF921F928F9385EF91E09F938F9340
S1130E908E010B591F4F1F930F93BDD2C8018CD1E4
S1130EA00FB6F894DEBF0FBECDBF89B18370E9F7EA
S1130EB084E291E081D180E890E0C5DC7894C6506A
S1130EC0DF4F0FB6F894DEBF0FBECDBFDF91CF91D9
S1130ED01F910F91FF90EF90DF90CF90BF90AF9054
S1130EE09F908F907F906F905F904F903F90089568
S1130EF0FF920F931F93CF93DF93CDB7DEB7E8979D
S1130F000FB6F894DEBF0FBECDBFFE01319686E06A
S1130F10DF011D928A95E9F70091080310910903F6
S1130F20F8941BB818B880E090E08DDC8BE792E071
S1130F3043D1F12C0FC0F394C80187DBE1E0F0E06A
S1130F40EC0FFD1FE80FF11D80818F5F8083C801C6
S1130F5056DB8C01C8019EDB833069F38D811F92BF
S1130F608F938B811F928F938C811F928F93898192
S1130F701F928F938A811F928F931F92FF9280EA10
S1130F8092E09F938F938E01095F1F4F1F930F93DE
S1130F9042D2C80111D10FB6F894DEBF0FBECDBF47
S1130FA0E8960FB6F894DEBF0FBECDBFDF91CF91A8
S1130FB01F910F91FF9008951F920F920FB60F92F9
S1130FC011240BB60F92EF92FF920F931F932F935E
S1130FD03F934F935F936F937F938F939F93AF93BD
S1130FE0BF93CF93DF93EF93FF938091040390918A
S1130FF0050301969093050380930403CCE2D3E0A8
S11310000F2EF4E7EF2EF3E0FF2EF02D8E01EC818E
S1131010FD81309709F180910403909105032881A3
S1131020398128173907C1F48885823019F48E81F3
S11310309F810995D80112968D919C9113970097E1
S113104041F02D913C911197820F931F8D939C93A6
S113105003C0F801158214822996CE15DF05B1F676
S1131060FF91EF91DF91CF91BF91AF919F918F91BC
S11310707F916F915F914F913F912F911F910F91AC
S1131080FF90EF900F900BBE0F900FBE0F901F902C
S11310901895109285001092840088E498E090934B
S11310A08900809388001092800089E080938100F9
S11310B082E080936F0088E4ECE2F3E0DF011D92AC
S11310C08A95E9F708950F931F93CF93DF938B01CC
S11310D06091300370913103672B09F449C0ECE24D
S11310E0F3E0A1E0B0E0C585D685CD2B09F442C07C
S11310F011963996A830B105B1F780E090E03FC071
S1131100FD01EE0FFF1FEE0FFF1FEE0FFF1FEA0F93
S1131110FB1FE45DFC4F938382830DC0FD01EE0F42
S1131120FF1FEE0FFF1FEE0FFF1FEA0FFB1FE45D13
S1131130FC4F13821282FD01EE0FFF1FEE0FFF1F03
S1131140EE0FFF1FEA0FFB1FE45DFC4F5583448342
S1131150378326832091040330910503820F931F64
S11311609183808382E080877FBF8A2F9B2F07C073
S1131170A0E0B0E07FB7F894012B11F6CFCFDF9158
S1131180CF911F910F9108951092CD0083E3809326
S1131190CC00E9ECF0E0808188618083EAECF0E047
S11311A08081866080830895E8ECF0E0908195FF6B
S11311B0FDCF8093CE000895CF93DF93EC01888117
S11311C0882329F02196F0DF89918111FCCFDF91EA
S11311D0CF9108950F931F93CF93DF93823091059E
S11311E010F482E090E0E0918B03F0918C0320E016
S11311F030E0A0E0B0E0309719F1408151810281E4
S1131200138148175907C8F08417950769F4109794
S113121031F012960C93129713961C9327C00093E7
S11312208B0310938C0322C02115310519F042174A
S1131230530718F49A01BD01EF01DF01F801DBCF78
S113124021153105F9F0281B390B2430310580F4C0
S11312508A819B816115710521F0FB01938382834F
S113126004C090938C0380938B03FE01329644C098
S1131270FE01E20FF31F81939193225031093983C8
S113128028833AC02091890330918A03232B41F4A7
S1131290209102013091030130938A032093890342
S11312A020910001309101012115310541F42DB740
S11312B03EB74091040150910501241B350BE09188
S11312C08903F0918A03E217F307A0F42E1B3F0B66
S11312D02817390778F0AC014E5F5F4F24173507A4
S11312E048F04E0F5F1F50938A0340938903819304
S11312F0919302C0E0E0F0E0CF01DF91CF911F9124
S11313000F910895CF93DF93009709F481C0FC01F6
S1131310329713821282A0918B03B0918C031097A1
S113132081F420813181820F931F209189033091B0
S11313308A032817390751F5F0938A03E093890348
S113134067C0ED0120E030E0CE17DF0740F44A81AA
S11313505B819E0141155105F1F0EA01F5CFD3837C
S1131360C28340815181840F951FC817D90759F44E
S113137088819981840F951F0296918380838A8145
S11313809B81938382832115310529F4F0938C0387
S1131390E0938B033DC0E901FB83EA8349915991B2
S11313A0C40FD51FEC17FD0761F480819181840F70
S11313B0951F0296E90199838883828193819B8397
S11313C08A83E0E0F0E012968D919C911397009748
S11313D019F0FD01DC01F7CF8D919C9111979D01CE
S11313E02E5F3F4F820F931F2091890330918A0310
S11313F02817390769F4309729F410928C03109256
S11314008B0302C013821282B0938A03A0938903D0
S1131410DF91CF9108950F931F93CF93DF93CDB7AF
S1131420DEB72E970FB6F894DEBF0FBECDBF0D8981
S11314301E8986E08C831A8309838FEF9FE79E833E
S11314408D83AE01475E5F4F6F89788DCE01019623
S113145010D0EF81F885E00FF11F10822E960FB6A1
S1131460F894DEBF0FBECDBFDF91CF911F910F91D6
S113147008952F923F924F925F926F927F928F9234
S11314809F92AF92BF92CF92DF92EF92FF920F930F
S11314901F93CF93DF93CDB7DEB72B970FB6F89496
S11314A0DEBF0FBECDBF6C017B018A01FC01178238
S11314B01682838181FFBFC1CE0101963C01F601F2
S11314C09381F70193FD859193FF81917F01882397
S11314D009F4ADC1853239F493FD859193FF81916F
S11314E07F01853221F4B60190E0D6D1E8CF912C6A
S11314F0212C312CFFE1F315D8F08B3279F038F43C
S1131500803279F08332A1F4232D20611DC08D3205
S113151061F0803369F4232D216016C0832D82602D
S1131520382EE32DE4603E2E2AC0F32DF8601DC052
S113153037FC2DC020ED280F2A3040F08E32B9F44C
S113154036FC75C1232D2064322E19C036FE06C028
S11315508AE0989E200D1124922E11C0EAE02E9E5E
S1131560200D1124222EF32DF0623F2E08C08C365C
S113157021F4832D8068382E02C0883641F4F701A7
S113158093FD859193FF81917F018111B3CF982FB2
S11315909F7D9554933028F40C5F1F4F9FE39983EC
S11315A00DC0833631F0833771F0833509F055C0AF
S11315B020C0F801808189830E5F1F4F88248394A3
S11315C0912C530112C02801F2E04F0E511CF80176
S11315D0A080B18036FE03C0692D70E002C06FEFB9
S11315E07FEFC5014ED14C018201F32DFF773F2ED1
S11315F015C0280122E0420E511CF801A080B180E0
S113160036FE03C0692D70E002C06FEF7FEFC501A5
S11316102DD14C01F32DF0683F2E820133FC19C00B
S1131620822D90E088169906A0F4B60180E290E03D
S113163033D12A94F5CFF50137FC859137FE81919A
S11316405F01B60190E028D121102A9421E0821A8A
S113165091088114910479F7E1C0843611F0893638
S113166039F5F80137FE07C0608171818281938169
S11316700C5F1F4F08C060817181072E000C880B1E
S1131680990B0E5F1F4FF32DFF763F2E97FF09C076
S113169090958095709561957F4F8F4F9F4FF0681F
S11316A03F2E2AE030E0A30133D1882E861844C0AF
S11316B0853731F4232D2F7EB22E2AE030E025C069
S11316C0932D997FB92E8F36C1F018F4883579F0AF
S11316D0AEC0803719F0883721F0A9C0E92FE06146
S11316E0BE2EB4FE0DC0FB2DF460BF2E09C034FE27
S11316F00AC0292F2660B22E06C028E030E005C0BB
S113170020E130E002C020E132E0F801B7FE07C07A
S113171060817181828193810C5F1F4F06C060815B
S1131720718180E090E00E5F1F4FA301F1D0882EFD
S11317308618FB2DFF773F2E36FE0DC0232D2E7FFE
S1131740A22E891458F434FE0BC032FC09C0832D38
S11317508E7EA82E05C0B82CA32C03C0B82C01C0C3
S1131760B92CA4FE0FC0FE01E80DF11D8081803369
S113177021F49A2D997EA92E09C0A2FE06C0B39425
S1131780B39404C08A2D867809F0B394A3FC10C0E6
S1131790A0FE06C0B21480F4280C922C9B180DC035
S11317A0B21458F4B60180E290E076D0B394F8CF46
S11317B0B21418F42B1802C0982C212CA4FE0FC0CC
S11317C0B60180E390E068D0A2FE16C0A1FC03C07D
S11317D088E790E002C088E590E0B6010CC08A2D4D
S11317E0867851F0A1FE02C08BE201C080E2A7FC22
S11317F08DE2B60190E050D0891430F4B60180E354
S113180090E04AD09A94F8CF8A94F301E80DF11D40
S11318108081B60190E040D08110F6CF222009F4F7
S11318204ECEB60180E290E037D02A94F7CFF6018D
S11318308681978102C08FEF9FEF2B960FB6F894A5
S1131840DEBF0FBECDBFDF91CF911F910F91FF90EF
S1131850EF90DF90CF90BF90AF909F908F907F904C
S11318606F905F904F903F902F900895FC010590EA
S1131870615070400110D8F7809590958E0F9F1F8E
S11318800895FC016150704001900110D8F78095D3
S113189090958E0F9F1F08950F931F93CF93DF93FF
S11318A0FB01238121FD03C08FEF9FEF2CC022FF9A
S11318B016C046815781248135814217530744F469
S11318C0A081B1819D012F5F3F4F318320838C9391
S11318D0268137812F5F3F4F3783268314C08B01C6
S11318E0EC01FB010084F185E02D0995892BE1F6DB
S11318F0D80116968D919C911797019617969C93F3
S11319008E931697CE01DF91CF911F910F91089579
S1131910FA01AA27283051F1203181F1E8946F931C
S11319206E7F6E5F7F4F8F4F9F4FAF4FB1E03ED0C2
S1131930B4E03CD0670F781F891F9A1FA11D680F60
S1131940791F8A1F911DA11D6A0F711D811D911D93
S1131950A11D20D009F468943F912AE0269F112408
S11319603019305D3193DEF6CF010895462F47706C
S1131970405D4193B3E00FD0C9F7F6CF462F4F70C7
S1131980405D4A3318F0495D31FD4052419302D025
S1131990A9F7EACFB4E0A6959795879577956795CB
S11319A0BA95C9F700976105710508959B01AC01CB
S11319B00A2E06945795479537952795BA95C9F7F2
S11319C0620F731F841F951FA01D0895F894FFCF05
S11319D000008D03200001010164003296646464F8
S11319E0947D665643405741544348444F475F549F
S11319F061736B005374617274696E6720537973F9
S1131A0074656D210D0A0053797374656D205265F8
S1131A106164792E2E2E0D0A006D61696E000A052F
S1131A2053797374656D20496E697469616C697A60
S1131A3065642E2E2E0053797374656D2050617584
S1131A407365204D6573736167653A2025730D0ACC
S1131A50004D6F746F72205469636B3A2025752CA6
S1131A6020484541445469636B3A2025750D0A00AA
S1131A704974656D3A2025642C205265666C3A20C1
S1131A8025752C204D61673A2025752C20436C6107
S1131A9073732025752C205374617475733A202553
S1131AA0752C205469636B3A2025750D0A000D0AC4
S1131AB054696D65722025642053746174653A20FD
S1131AC025750D0A0025750D0A484541443A20251F
S1131AD0782C205441494C3A2025782C2046524FEA
S1131AE04E543A2025782C20454E443A2025782C13
S1131AF0205354414745313A2025782C204D6167C5
S1131B003A202575205354414745323A2025782CF4
S1131B10205265666C3A2025750D0A004D6F746F6E
S1131B2072205469636B3A2025750D0A0049746567
S1131B306D3A2025642C205265666C3A2025752C5C
S1131B40204D61673A2025750D0A000D0A0D0A0D16
S1131B500A0D0A0D0A0D0A53797374656D205261DA
S1131B606D70696E6720446F776E2E2E2E0D0A00FD
S1131B702575204974656D7320536F7274656421F3
S1131B800D0A0D0A426C61636B3A2025752F3132C0
S1131B900957686974653A2025752F3132095374E1
S1131BA065656C3A2025752F313209416C756D6974
S1131BB06E756D3A2025752F313209556E6B6E6F37
S1131BC0776E204974656D733A2025750D0A0000FF
S9030000FC
