:100000004BC0000067C0000065C0000063C0000076
:1000100061C000005FC000005DC000005BC0000068
:1000200059C0000057C0000055C0000053C0000078
:1000300051C000009AC400004DC000004BC0000039
:1000400049C000002DC7000045C0000043C00000AB
:1000500041C000003FC000003DC000003BC00000A8
:1000600039C0000037C0000035C0000033C00000B8
:1000700031C0000049C000002DC000002BC00000AE
:1000800029C0000027C0000025C0000023C00000D8
:1000900021C000001FC0000011241FBECFEFD0E21E
:1000A000DEBFCDBF12E0A0E0B1E0E8E0F9E100E0A2
:1000B0000BBF02C007900D92A639B107D9F723E014
:1000C000A6E9B2E001C01D92AA36B207E1F7D1D28B
:1000D0000C94820C9CC39FB7F894EBE7F0E080810E
:1000E00080688083EAE7F0E0808180688083808197
:1000F00088608083ACE7B0E08C9181648C938081D0
:10010000806480839FBF08951F920F920FB60F9255
:1001100011240BB60F922F933F938F939F93EF93DE
:10012000FF938091DE029091DF020A97D8F48091CC
:10013000DE029091DF029C012F5F3F4F3093DF0280
:100140002093DE022091780030917900880F991F6A
:10015000FC01E653FD4F31832083EAE7F0E0808124
:10016000806480838091DE029091DF020A9719F407
:1001700082E080932303FF91EF919F918F913F91B4
:100180002F910F900BBE0F900FBE0F901F901895E0
:100190009BB180EA89278BB908958F929F92AF9285
:1001A000BF92CF92DF92EF92FF92CF9380919B020A
:1001B00090919C02019690939C0280939B0240E058
:1001C00050E0BA0180E090E02FB7F894FC01EE0F08
:1001D000FF1FE653FD4F0190F081E02D4E0F5F1F92
:1001E000611D711D2FBF01968A30910569F7CFB748
:1001F000F894CB01BA012AE030E040E050E064D747
:1002000069017A01CFBFCFB7F894DA01C90101972C
:10021000A109B1098F3C9740A105B105A0F48091D7
:100220005A0390915B03F5D1A0E0B0E0C816D9065F
:10023000EA06FB0640F480915A0390915B03009715
:1002400011F0B601F1D1CFBF1092DF021092DE02A1
:1002500010922303669B05C0EAE7F0E0808180648A
:100260008083CF91FF90EF90DF90CF90BF90AF90C1
:100270009F908F90089580910203882349F0809188
:10028000990290919A02019690939A028093990212
:1002900064991CC061E08091100390911103D4D146
:1002A00061E08091100390911103C4D180911003FB
:1002B0009091110383D190931103809310031092B6
:1002C0002C0310929A02109299020895809199023B
:1002D00090919A024597D8F061E080911003909137
:1002E0001103B2D160E08091100390911103A2D16B
:1002F000809110039091110361D190931103809329
:10030000100310922C0310929A02109299020895F1
:10031000CF93E7EBF2E085819681378120919802B7
:10032000211169C0809197028F5F8093970203C06B
:1003300080E890E07DD2C091BB028091B50290919F
:10034000B60262D1E82FF0E0E75FFE4F8081C8136C
:1003500049C080E890E06CD280919702853128F402
:1003600080919802882309F440C081E0809398022C
:10037000109297028091B5029091B60245D1C82F94
:10038000E091B502F091B602828193813DD1C8130C
:1003900002C0109298021092350363E08091B5027A
:1003A0009091B60251D18091B5029091B60206D1DA
:1003B0009093B6028093B502FC018281938124D18F
:1003C000E82FF0E0E75FFE4FC0818091B502909189
:1003D000B6021AD1E82FF0E0E75FFE4F80816C2F64
:1003E000AFD203C080E090E023D28091B50290911B
:1003F000B6020AD105C0831B8F3008F09CCF98CF7E
:10040000CF91089589B1837069F1809196028F5FD1
:1004100080939602833030F189B1837031F484E2A5
:1004200091E044D610929602089589B1837081308C
:1004300069F48CE391E03AD681E0809365031092F1
:10044000C7021092C60210929602089589B1837075
:10045000823031F482E691E029D610929602089516
:100460001092960208950895679916C08091080128
:10047000882381F08091100390911103892B41F41E
:100480008091B5029091B60290931103809310036E
:100490001092F4021092080166990EC08091070133
:1004A000882341F062E080915A0390915B03CCD0A5
:1004B0001092F4021092070165990BC08091060119
:1004C000882329F082E0809335031092F402109281
:1004D0000601679B0EC080910801811107C082E070
:1004E00080932C03809359031092F40281E080934F
:1004F0000801669B22C08091070181111BC0809179
:100500005A0390915B03009749F48091B502909152
:10051000B60290935B0380935A0305C04FD090932B
:100520005B0380935A031092F402EAE7F0E08081C3
:100530008064808381E080930701659B09C080917E
:100540000601811102C01092F40281E0809306013D
:1005500008958091F402823018F085E791E095D3F8
:100560008091F4028F5F8093F4020895EF92FF92DE
:100570001F93CF93DF937C01162FD42FC22F85E0DA
:1005800090E0C4D5FC01F182E0821283D383C4835E
:10059000DF91CF911F91FF90EF900895CF93DF935C
:1005A000EC0186E090E0B2D5FC01D183C0831582D6
:1005B000148213821282DF91CF910895FC0182810F
:1005C00093810895CF93DF93EC01CB0101C0E90142
:1005D0002A813B8121153105D1F7E0DF9B838A8396
:1005E000DF91CF910895DC011296ED91FC91139764
:1005F000309741F081E08F5F0280F381E02D3097EA
:10060000D1F7089581E00895DC01ED91FC9183819B
:100610000895DC01ED91FC91808191810895DC01C8
:10062000ED91FC9182810895DC01ED91FC91718343
:1006300060830895DC01ED91FC9162830895DC01F3
:10064000ED91FC9163830895DC01ED91FC9164834D
:100650000895DC01ED91FC91848108958FEF81B9BB
:1006600084B987B980EF8AB91DB810BA80E090E0EC
:10067000089550D289B18370E9F783E891E016D5E7
:10068000F89420E030E044E352E061E070E081E083
:1006900090E093D4C2E1D3E012E0188720E030E08C
:1006A0004DEC50E061E070E081E090E086D4198A82
:1006B00020E030E04BE351E061E070E081E090E069
:1006C0007CD41A8E20E030E048E851E061E070E030
:1006D00081E090E072D41BA220E030E043E352E0DE
:1006E00061E070E081E090E068D41CA620E030E09A
:1006F00042E052E061E070E082E390E05ED41DAB46
:1007000020E030E048EC50E061E070E088EE93E0FB
:1007100054D41EAF20E030E049EA52E061E070E0DE
:1007200089E991E14AD41092590386E991E0BED457
:1007300080E890E07DD07894E12CF12CCC24C39417
:10074000D12C80916503882319F088EA91E09DD22D
:10075000C091B502D091B602209799F3209709F481
:100760004FC0CE0151DF843009F04AC0CE0171DFA5
:10077000823009F045C0CE014CDF8C01CE014FDF45
:10078000882391F0C80144978135910520F462E0F7
:10079000CE0155DF1AC00B52114000361140A8F4AB
:1007A00063E0CE014CDF11C0C801865793408E979D
:1007B00020F461E0CE0143DF08C00B531340003347
:1007C000110518F460E0CE013ADFE114F104C1F440
:1007D0008091B5029091B60217DFE82FF0E0E15F5B
:1007E000FE4F10818091B5029091B6020DDFE82F87
:1007F000F0E0E15FFE4F8081612FA2D0EC2CFD2C58
:10080000CE01DCDEEC01892B09F0A8CF9ACF1F9234
:100810000F920FB60F9211248AEA88B9FECF84B5E1
:10082000836884BD85B5836085BD80E887BD0895F4
:1008300028EC27BD892B31F081E08093020381EF02
:1008400085B908951092020380EF85B90895F89450
:100850001092C502E7EBF2E0108281E081831382FF
:100860001282148288EC90E096838583178210862A
:1008700012861386118680E382B984E98093B300DF
:10088000E0EBF0E0808182608083E0E7F0E080814F
:1008900082608083E1EBF0E08081876080837894E0
:1008A000089590E0861B910952F0853691058CF0F1
:1008B00024E630E0A901481B590BCA0108958C3980
:1008C0005FEF950734F42CE93FEFA901481B590B62
:1008D000CA010895CF93DF93C7EBD2E06C818A8180
:1008E0009B81DFDF9E838D836A817B818885D9DF51
:1008F0002D813E81332314F428E001C024E0E7EB8E
:10090000F2E0218345815681849F9001859F300DBF
:10091000949F300D1124832F8095881F8827881F6E
:1009200081878581968199231CF491958195910900
:10093000E7EBF2E0968385831782DF91CF910895EC
:10094000CF93DF93F89490E0C7EBD2E09B838A8348
:100950006887C0DFEB85F0E0EB5EFE4F808180931F
:10096000B3007894DF91CF9108951F920F920FB644
:100970000F9211240BB60F922F933F938F939F9357
:10098000AF93BF93EF93FF93CF93DF9300D000D04B
:10099000CDB7DEB786E390E0A0E0B0E09EE2ADE246
:1009A000B5E389839A83AB83BC83E7EBF2E087816D
:1009B0002581368190E0821793070CF05AC0809110
:1009C000B802843051F48091B702E1E0F0E0EC0F1E
:1009D000FD1FE80FF11D80810DC08091B702E3E09B
:1009E000F0E0E81BF10981E090E08C0F9D1FE80F1B
:1009F000F91F808182B98091B702833021F0809104
:100A0000B7028F5F01C080E0E7EBF2E0808387816F
:100A10008F5F8783858196812781821B9109069745
:100A200074F4E091C202F0E0EB5EFE4F8081843905
:100A300030F4E7EBF2E083858150838711C0809129
:100A4000BE02863068F0E091C202F0E0EB5EFE4F3D
:100A50008081813428F0E7EBF2E083858F5F838724
:100A6000E091C202F0E0EB5EFE4F80818093B30024
:100A700029C0E7EBF2E087812581368190E082177B
:100A8000930701F58281938184838185882319F0FE
:100A90008091C20201C080E0A7EBB2E01B968C936C
:100AA0001B971B96EC911B97F0E0EB5EFE4F80814D
:100AB0008093B30019968C91811102C082B101C05C
:100AC00082B182B98091C10281110FC063990DC0BA
:100AD000E7EBF2E081E08287108281831382128249
:100AE000148216821582178210860F900F900F9035
:100AF0000F90DF91CF91FF91EF91BF91AF919F91B7
:100B00008F913F912F910F900BBE0F900FBE0F90C2
:100B10001F901895AF92BF92CF92DF92EF92FF9203
:100B20000F931F93CF93DF93CDB7DEB7E2970FB646
:100B3000F894DEBF0FBECDBFF894E1E6F0E080E8A8
:100B4000808310829BD28ADDC6DA81DE1AD267DE0C
:100B50001092DF021092DE0284E1EAECF2E0DF01A3
:100B60001D928A95E9F71092F60210926503109291
:100B7000B6021092B5021092C9021092C8021092E9
:100B800011031092100310925B0310925A031092FB
:100B9000C4021092C30220E044E06FEF89EE9DEFA3
:100BA000E5DCFCDC9093B6028093B5029093C4021E
:100BB0008093C3021AEF0F2EF8EEEF2EFDEFFF2EFB
:100BC000F02D20E044E0612FC701D0DCBC01809112
:100BD000B5029091B602F6DC9093C9028093C802E8
:100BE000B1E0EB1AF10811501A3C59F705E010E09A
:100BF00020E045E06AEF88EE9DEFB8DCBC01809113
:100C0000B5029091B602DEDC0150110989F700911E
:100C1000C8021091C902F801B280A380D090C3022B
:100C2000C090C402F090B502E090B6028F2D9E2DC8
:100C3000DADCAF92BF92CF92DF921F930F93EF92C5
:100C4000FF921F928F938DEA91E09F938F938E0175
:100C50000F5F1F4F1F930F937AD3C80127D20FB690
:100C6000F894DEBF0FBECDBFE2960FB6F894DEBF9C
:100C70000FBECDBFDF91CF911F910F91FF90EF90ED
:100C8000DF90CF90BF90AF9008953F924F925F92C8
:100C90006F927F928F929F92AF92BF92CF92DF928C
:100CA000EF92FF920F931F93CF93DF93CDB7DEB7F1
:100CB000C85CD1090FB6F894DEBF0FBECDBFF82EC9
:100CC000E92EF89480E090E0B3DD0091C30210912A
:100CD000C402EF92FF928AED91E09F938F93CE0131
:100CE00001967C019F938F9332D3C701DFD10F9080
:100CF0000F900F900F900F900F90E12CF12C0F2E72
:100D0000F5EFAF2EF1E0BF2EF02D6E0197E9C90E81
:100D1000D11C27C0EFEFEE1AFE0AC8019ADC782E2C
:100D2000C80172DC882EC8017ADC982EC80171DCFB
:100D30001F927F921F928F921F929F929F938F93E9
:100D4000FF92EF92BF92AF92DF92CF9200D3C60193
:100D5000ADD1C80133DC8C010FB6F894DEBF0FBEF5
:100D6000CDBFC80151DC8530A9F60F2EF2E1CF2EA0
:100D7000F3E0DF2EF02D00E010E00F2EF9E2AF2EB1
:100D8000F2E0BF2EF02D7E0197E9E90EF11CF6018D
:100D900080851F928F931F930F93BF92AF92FF9204
:100DA000EF92D5D2C70182D10F5F1F4FF9E0CF0E6E
:100DB000D11C0FB6F894DEBF0FBECDBF07301105B2
:100DC00031F780915A0390915B0323DC482E392E32
:100DD00060905A0350905B0380911003909111032F
:100DE0001EDC782E90901003809011030091C802B1
:100DF0001091C902F801B280A380D090C302C090C4
:100E0000C402F090B502E090B6028F2D9E2DEBDB70
:100E10003F924F925F926F921F927F928F929F921A
:100E2000AF92BF92CF92DF921F930F93EF92FF92F8
:100E30001F928F938EE392E09F938F938E010B59B5
:100E40001F4F1F930F9383D2C80130D10FB6F89470
:100E5000DEBF0FBECDBF89B18370E9F783E891E0B3
:100E600025D180E890E0E4DC109265037894C853C3
:100E7000DF4F0FB6F894DEBF0FBECDBFDF91CF912D
:100E80001F910F91FF90EF90DF90CF90BF90AF90A8
:100E90009F908F907F906F905F904F903F900895BC
:100EA0001F920F920FB60F9211240BB60F92EF9272
:100EB000FF920F931F932F933F934F935F936F93E3
:100EC0007F938F939F93AF93BF93CF93DF93EF93D2
:100ED000FF9398B18EEF892788B980919D029091F8
:100EE0009E02019690939E0280939D02C2E1D3E000
:100EF0000F2EFAE5EF2EF3E0FF2EF02D8E01EC81A0
:100F0000FD813097E9F080919D0290919E022881A9
:100F1000398128173907A1F48885823019F48E8128
:100F20009F810995D80112968D919C9113970097F6
:100F300039F02D913C911197820F931F8D939C93C3
:100F40002996CE15DF05D1F698B18EEF892788B99D
:100F5000FF91EF91DF91CF91BF91AF919F918F91D1
:100F60007F916F915F914F913F912F911F910F91C1
:100F7000FF90EF900F900BBE0F900FBE0F901F9041
:100F80001895109285001092840080EE9DE0909359
:100F90008900809388001092800089E0809381000E
:100FA00082E080936F0088E4E2E1F3E0DF011D92CC
:100FB0008A95E9F780E090E008950F931F93CF930F
:100FC000DF938B016091160370911703672B09F46F
:100FD00049C0E2E1F3E0A1E0B0E0C585D685CD2BC4
:100FE00009F442C011963996A830B105B1F780E0F6
:100FF00090E03FC0FD01EE0FFF1FEE0FFF1FEE0F51
:10100000FF1FEA0FFB1FEE5EFC4F938382830DC030
:10101000FD01EE0FFF1FEE0FFF1FEE0FFF1FEA0F88
:10102000FB1FEE5EFC4F13821282FD01EE0FFF1FCD
:10103000EE0FFF1FEE0FFF1FEA0FFB1FEE5EFC4FD0
:10104000558344833783268320919D0230919E02ED
:10105000820F931F9183808382E080877FBF8A2FD6
:101060009B2F07C0A0E0B0E07FB7F894012B11F6EA
:10107000CFCFDF91CF911F910F9108951092CD00A6
:1010800083E38093CC00E9ECF0E080818861808389
:10109000EAECF0E08081866080830895E8ECF0E07F
:1010A000908195FFFDCF8093CE000895CF93DF937D
:1010B000EC018881882329F02196F0DF8991811144
:1010C000FCCFDF91CF910895A1E21A2EAA1BBB1B82
:1010D000FD010DC0AA1FBB1FEE1FFF1FA217B30704
:1010E000E407F50720F0A21BB30BE40BF50B661F1A
:1010F000771F881F991F1A9469F7609570958095DE
:1011000090959B01AC01BD01CF0108950F931F93F2
:10111000CF93DF938230910510F482E090E0E0916C
:101120006803F091690320E030E0A0E0B0E0309780
:1011300019F1408151810281138148175907C8F084
:101140008417950769F4109731F012960C93129753
:1011500013961C9327C0009368031093690322C061
:101160002115310519F04217530718F49A01BD01F2
:10117000EF01DF01F801DBCF21153105F9F0281B64
:10118000390B2430310580F48A819B81611571050A
:1011900021F0FB019383828304C0909369038093C1
:1011A0006803FE01329644C0FE01E20FF31F8193F3
:1011B000919322503109398328833AC020916603E4
:1011C00030916703232B41F42091020130910301F8
:1011D0003093670320936603209100013091010151
:1011E0002115310541F42DB73EB7409104015091CE
:1011F0000501241B350BE0916603F0916703E217AC
:10120000F307A0F42E1B3F0B2817390778F0AC0129
:101210004E5F5F4F2417350748F04E0F5F1F509306
:101220006703409366038193919302C0E0E0F0E08E
:10123000CF01DF91CF911F910F910895CF93DF934D
:10124000009709F481C0FC01329713821282A091A9
:101250006803B0916903109781F420813181820F76
:10126000931F20916603309167032817390751F5C2
:10127000F0936703E093660367C0ED0120E030E080
:10128000CE17DF0740F44A815B819E01411551056D
:10129000F1F0EA01F5CFD383C28340815181840FFD
:1012A000951FC817D90759F488819981840F951F14
:1012B0000296918380838A819B8193838283211507
:1012C000310529F4F0936903E09368033DC0E90117
:1012D000FB83EA8349915991C40FD51FEC17FD0791
:1012E00061F480819181840F951F0296E9019983B1
:1012F0008883828193819B838A83E0E0F0E0129669
:101300008D919C911397009719F0FD01DC01F7CFA7
:101310008D919C9111979D012E5F3F4F820F931FDE
:1013200020916603309167032817390769F43097D5
:1013300029F4109269031092680302C0138212828A
:10134000B0936703A0936603DF91CF9108950F9345
:101350001F93CF93DF93CDB7DEB72E970FB6F894D8
:10136000DEBF0FBECDBF0D891E8986E08C831A8338
:1013700009838FEF9FE79E838D83AE01475E5F4FAA
:101380006F89788DCE01019610D0EF81F885E00F3E
:10139000F11F10822E960FB6F894DEBF0FBECDBFA0
:1013A000DF91CF911F910F9108952F923F924F920D
:1013B0005F926F927F928F929F92AF92BF92CF92E5
:1013C000DF92EF92FF920F931F93CF93DF93CDB7EE
:1013D000DEB72B970FB6F894DEBF0FBECDBF6C0102
:1013E0007B018A01FC0117821682838181FFBFC1C4
:1013F000CE0101963C01F6019381F70193FD8591A1
:1014000093FF81917F01882309F4ADC1853239F4BE
:1014100093FD859193FF81917F01853221F4B6017F
:1014200090E0D6D1E8CF912C212C312CFFE1F3159F
:10143000D8F08B3279F038F4803279F08332A1F42D
:10144000232D20611DC08D3261F0803369F4232D7E
:10145000216016C0832D8260382EE32DE4603E2E7D
:101460002AC0F32DF8601DC037FC2DC020ED280FD9
:101470002A3040F08E32B9F436FC75C1232D206439
:10148000322E19C036FE06C08AE0989E200D112427
:10149000922E11C0EAE02E9E200D1124222EF32D53
:1014A000F0623F2E08C08C3621F4832D8068382EE0
:1014B00002C0883641F4F70193FD859193FF819135
:1014C0007F018111B3CF982F9F7D9554933028F4DD
:1014D0000C5F1F4F9FE399830DC0833631F0833734
:1014E00071F0833509F055C020C0F80180818983EF
:1014F0000E5F1F4F88248394912C530112C0280142
:10150000F2E04F0E511CF801A080B18036FE03C0FE
:10151000692D70E002C06FEF7FEFC5014ED14C0125
:101520008201F32DFF773F2E15C0280122E0420EE5
:10153000511CF801A080B18036FE03C0692D70E017
:1015400002C06FEF7FEFC5012DD14C01F32DF06884
:101550003F2E820133FC19C0822D90E08816990637
:10156000A0F4B60180E290E033D12A94F5CFF501E2
:1015700037FC859137FE81915F01B60190E028D15B
:1015800021102A9421E0821A91088114910479F79C
:10159000E1C0843611F0893639F5F80137FE07C00D
:1015A00060817181828193810C5F1F4F08C06081CF
:1015B0007181072E000C880B990B0E5F1F4FF32DC6
:1015C000FF763F2E97FF09C09095809570956195A5
:1015D0007F4F8F4F9F4FF0683F2E2AE030E0A301EE
:1015E00033D1882E861844C0853731F4232D2F7EC1
:1015F000B22E2AE030E025C0932D997FB92E8F3688
:10160000C1F018F4883579F0AEC0803719F088370A
:1016100021F0A9C0E92FE061BE2EB4FE0DC0FB2D64
:10162000F460BF2E09C034FE0AC0292F2660B22EF6
:1016300006C028E030E005C020E130E002C020E133
:1016400032E0F801B7FE07C0608171818281938129
:101650000C5F1F4F06C06081718180E090E00E5FDB
:101660001F4FA301F1D0882E8618FB2DFF773F2E48
:1016700036FE0DC0232D2E7FA22E891458F434FE81
:101680000BC032FC09C0832D8E7EA82E05C0B82C5D
:10169000A32C03C0B82C01C0B92CA4FE0FC0FE01BE
:1016A000E80DF11D8081803321F49A2D997EA92EB9
:1016B00009C0A2FE06C0B394B39404C08A2D8678F4
:1016C00009F0B394A3FC10C0A0FE06C0B21480F4CD
:1016D000280C922C9B180DC0B21458F4B60180E26D
:1016E00090E076D0B394F8CFB21418F42B1802C05F
:1016F000982C212CA4FE0FC0B60180E390E068D0A6
:10170000A2FE16C0A1FC03C088E790E002C088E5F5
:1017100090E0B6010CC08A2D867851F0A1FE02C07F
:101720008BE201C080E2A7FC8DE2B60190E050D0D0
:10173000891430F4B60180E390E04AD09A94F8CF4F
:101740008A94F301E80DF11D8081B60190E040D04C
:101750008110F6CF222009F44ECEB60180E290E04F
:1017600037D02A94F7CFF6018681978102C08FEF98
:101770009FEF2B960FB6F894DEBF0FBECDBFDF9163
:10178000CF911F910F91FF90EF90DF90CF90BF907E
:10179000AF909F908F907F906F905F904F903F9011
:1017A0002F900895FC010590615070400110D8F70A
:1017B000809590958E0F9F1F0895FC016150704099
:1017C00001900110D8F7809590958E0F9F1F089576
:1017D0000F931F93CF93DF93FB01238121FD03C060
:1017E0008FEF9FEF2CC022FF16C0468157812481C6
:1017F00035814217530744F4A081B1819D012F5FC9
:101800003F4F318320838C93268137812F5F3F4F59
:101810003783268314C08B01EC01FB010084F18522
:10182000E02D0995892BE1F6D80116968D919C91B2
:101830001797019617969C938E931697CE01DF917A
:10184000CF911F910F910895FA01AA27283051F1E5
:10185000203181F1E8946F936E7F6E5F7F4F8F4FE1
:101860009F4FAF4FB1E03ED0B4E03CD0670F781F40
:10187000891F9A1FA11D680F791F8A1F911DA11D25
:101880006A0F711D811D911DA11D20D009F468945E
:101890003F912AE0269F11243019305D3193DEF606
:1018A000CF010895462F4770405D4193B3E00FD0BC
:1018B000C9F7F6CF462F4F70405D4A3318F0495DA7
:1018C00031FD4052419302D0A9F7EACFB4E0A6958A
:1018D0009795879577956795BA95C9F700976105AC
:1018E000710508959B01AC010A2E06945795479502
:1018F00037952795BA95C9F7620F731F841F951FF7
:08190000A01D0895F894FFCF2B
:1019080000006A03200001010164003296646464E7
:101918000032966464947D6650434048656C6C6FF1
:10192800210D0A00426F746820427574746F6E73DB
:101938002050726573736564210D0A0042757474D2
:101948006F6E312050726573736564210D0D0D0D36
:1019580050617573696E672053797374656D2E2EA7
:101968002E00427574746F6E322050726573736501
:1019780064210D0A005741544348444F475F54615E
:10198800736B005374617274696E67205379737452
:10199800656D210D0A0053797374656D2052656178
:1019A80064792E2E2E0D0A006D61696E0025750D65
:1019B8000A484541443A2025782C205441494C3A5C
:1019C8002025782C2046524F4E543A2025782C203A
:1019D800454E443A2025780D0A0053797374656D95
:1019E800205061757365204D6573736167653A2092
:1019F80025730D0A004974656D3A2025642C205220
:101A080065666C3A2025752C204D61673A2025754E
:101A18002C20436C6173732025752C2053746174DA
:101A280075733A2025750D0A0054696D6572202575
:101A3800642053746174653A2025750D0A00257574
:101A48000D0A484541443A2025782C205441494CF8
:101A58003A2025782C2046524F4E543A2025782C8F
:101A680020454E443A2025782C205354414745318F
:101A78003A2025782C204D61673A2025752053544B
:101A8800414745323A2025782C205265666C3A2029
:061A980025750D0A000097
:00000001FF
